S013000046696E616C50726F6A6563742E73333720
S113000000100020510400004D0400004D040000C5
S11300104D0400004D0400004D0400004D04000098
S11300204D0400004D0400004D0400004D04000088
S11300304D0400004D0400000B5300004D0400006B
S11300404D0400004D0400004D0400004D04000068
S11300504D0400004D0400004D0400004D04000058
S11300604D0400004D040000997400004D0400008C
S11300704D0400004D0400004D0400004D04000038
S11300804D0400004D040000BD7400004D04000048
S11300904D0400004D0400004D0400004D04000018
S11300A04D0400004D0400004D0400004D04000008
S11300B04D0400004D040000A16200004D04000046
S11300C04D0400004D0400004D0400004D040000E8
S11300D04D0400004D0400004D0400004D040000D8
S11300E04D0400004D0400004D0400004D040000C8
S11300F04D0400004D0400004D0400004D040000B8
S11301004D0400004D0400004D04000010B5054CE2
S1130110237833B9044B13B10448AFF300800123AF
S1130120237010BD3011002000000000CC8E0000B0
S113013008B5034B1BB103490348AFF3008008BD66
S11301400000000034110020CC8E0000A3F5803A9A
S1130150704700BF174B002B08BF134B9D46FFF79A
S1130160F5FF00218B460F461348144A121A07F074
S11301703DFC0E4B002B00D098470D4B002B00D0BC
S113018098470020002104000D000D48002802D0EB
S11301900C48AFF3008007F0F7FB2000290007F0BC
S11301A0A1F907F0DDFB00BF00000800000000001B
S11301B000000000001000203011002010A20020D8
S11301C0000000000000000008B5042201230F21F4
S11301D0032001F05DFD002008BD00002DE9F04181
S11301E01A4E0446884617460FCE86B06D460FC594
S11301F096E8030085E8030015482568012100F00E
S1130200DDFA6068012100F0D9FA617B207B0023CC
S1130210042201F03DFD617A207A0023042201F0DA
S113022037FD28466946CDF80880ADF8107001F016
S113023071FE237CA27B1B0643EA0223AB670020EA
S11302400A236B6706B0BDE8F08100BF287A00007E
S113025000350A0070B506680C468D18AC4201D111
S1130260002070BD14F8011B304601F0ADFEF5E727
S1130270026813699B06FCD57047000013B5044659
S113028005F0D2FE247B00230122CDE90032640074
S1130290034AB0FBF4F1034805F028FE02B010BD98
S11302A0A90200004C110020024B4FF40052C3F885
S11302B0A820704700A0004073B50F4B0F4E4FF4B9
S11302C08045C3F89C500446407B06F00DF8042397
S11302D002220DF106013046ADF80630FFF7BAFFF1
S11302E03046FFF7C5FFA07B05F0FEFF044B00205E
S11302F0C3F89C5002B070BD00A00046001000205E
S113030000A0004438B5044601211248124D00F003
S113031055FAA16811480022FFF760FF0023042268
S11303200E21032001F0B4FC002304220D2103203C
S113033001F0AEFC94E80F0085E80F00084B0122A1
S113034020461A70FFF79AFF2046FFF7B5FF0020FA
S113035038BD00BF00350A006C11002000100020D9
S1130360681100202DE9F74F0688DFF8A4B09846FD
S113037003795E43254B14464FF48042C3F89C2016
S11303800134A4B20546407B0F4605F0ADFF2302BD
S113039043F001031E48ADF8063002220DF10601B8
S11303A00134FFF757FF2402F610A4B24FF00009FE
S11303B008F1FF3AC1450ED11548FFF759FFA87B54
S11303C005F092FF134B4FF480420020C3F89C20A9
S11303D003B0BDE8F08F394632465846FFF73AFF7E
S11303E0CA4514BF44F0FF034FF6FF7302220DF118
S11303F00601584604F58074ADF806303744FFF71B
S113040029FF09F10109A4B2D4E700BF00A0004606
S11304100010002000A00044034B04481B78002B6C
S113042008BF0020704700BF681100206C11002035
S11304301FB5054B0FCB6C4684E80F002046FFF731
S113044061FF04B010BD00BF407A0000FEE7000069
S113045008B500F059F8064B0649074A8B4201D308
S1130460FFF778FE52F8040B43F8040BF6E700BFDD
S11304700010002030110020D48E00000048704786
S1130480005A6202104AD2F8943003F00703023B88
S1130490032B13D8DFE803F00C14020E0B4B1B687C
S11304A0D2F80001C0F304200130B3FBF0F0704730
S11304B0074BF4E7074B1B685B08F1E7054BEEE7D6
S11304C04FF40043ECE700BF00400E402010002032
S11304D0181000201C10002008B5FFF7D3FF054BAF
S11304E0D3F80831C3F308230133B0FBF3F0024B14
S11304F0186008BD00400E4014100020014B18681D
S1130500704700BF18100020044B054A9A60D3F8C6
S1130510882042F47002C3F88820704700ED00E0A0
S1130520000000004FF4004070474FF47A707047A9
S1130530014B1868704700BF2010002070B50546B5
S11305400E46144600F07AFE296881EA040202EAA3
S113055006044C402C60BDE8704000F073BE0000FF
S1130560B0F1804F38B504460D4606D01D4B984275
S113057003D01D48A22100F081F82B693F2B03D939
S11305801948B62100F07AF8EB683F2B03D91648D6
S1130590B72100F073F86B683F2B03D91248B821D8
S11305A000F06CF86B682A781B0643EAC27343F4C4
S11305B000432360EA682B7A43EA0243A3622A6970
S11305C06B7A43EA0243E362AA7A084B43EA027372
S11305D0636004F1424404F5801464012B7D2360BC
S11305E038BD00BF00040040507A000000FD000444
S11305F0B0F1804F13B50A46044608D0074B984221
S113060005D001910648F52100F038F8019AFF2140
S1130610201D02B0BDE81040FFF790BF0004004069
S1130620507A0000B0F1804F10B5044607D0064B55
S1130630984204D0054840F21B1100F01FF82368CB
S113064023F00103236010BD00040040507A000031
S1130650B0F1804F10B5044607D0064B984204D041
S113066005484FF49C7100F009F8236843F0010336
S1130670236010BD00040040507A0000FEE7000033
S11306800C4B984210D90C4B984210D902220123EA
S11306900A490B640A49D1F8003123F0807343EA14
S11306A00263C1F80031704700221346F0E70122CB
S11306B0FBE700BF0048E8010090D0030000C843F6
S11306C000400E4038B5114B5B68114B00221C46AC
S11306D0C9B21D798D4202D11D68854212D2013200
S11306E0052A03F10803F4D10A4841F23A41FFF71D
S11306F0C5FF032205494B6823F0407343EA0263B4
S11307004B6038BD04EBC2025279F3E700000E409F
S1130710787B0000807A00001F2810B5044604D9B5
S1130720034840F22F11FFF7A9FF0120A04010BD9C
S1130730E37A000038B5074C41F67133256C236425
S1130740FFF79CFE0021FFF7BDFF0DB100232364DA
S113075038BD00BF00000E40044BDB6B5B0604D4C5
S1130760034AD2F8C830002BFBD1704700300E404A
S11307700000C64308B5FFF7EFFF024B5868C0F30B
S1130780014008BD00300E40044BD3F84421D20789
S113079003D4D3F840211042FBD1704700400E40EF
S11307A038B5054C41F67133256C2364FFF78AFF95
S11307B00DB10023236438BD00000E4038B5C0F3EA
S11307C00323013B092B24D8DFE803F02A2D23233C
S11307D0051619231C20154C0023C0F3043513B14E
S11307E01846FFF7D1FF04F1424404F5801405EBE9
S11307F0C404A400216038BD0D4C0123EDE70D4C69
S11308001023EAE70C4C4FF48033E6E70B4C00234B
S1130810E3E7BDE838400A4841F6D711FFF72EBF99
S1130820084C0023D9E7084C0023D6E7B0400E401B
S1130830E0400E40E8400E40F0400E4050410E4073
S1130840807A000000400E40C0400E4008B5C0F35E
S11308500313013B092B60D8DFE803F0050B0F19E4
S11308605F5F1F233C532E4BD3F80001C0F30420D9
S113087008BD2B4BD3F81401F8E7294BD3F800013A
S1130880C0F300600130FFF747FF0138F0E7244B65
S1130890D3F80C01C0F30820EAE7214BD3F8080190
S11308A0F8E7204B984209D01F4B98420CD041F6F0
S11308B07B311E48FFF7E2FE0020D9E7184BD3F83E
S11308C0200100F00F00DEE7154BD3F82001C0F340
S11308D00110D8E7164B984208D003F5B01303F57E
S11308E08053984206D041F69F31E2E70C4BD3F88F
S11308F02801ECE70A4BD3F82801C0F301200430A7
S1130900C1E70C4B984205D1054BD3F8300100F0F8
S11309100300ADE741F6AE31CBE741F6D331C8E78A
S113092000400E408006160080162E00807A0000DB
S113093090171A00A009140008B5FFF787FF0130CB
S113094008BD000000F00F00013808B5072844D89E
S1130950DFE800F0040F1943232D4335264BD3F869
S1130960943003F00703023B052B3DD8234AD05CA7
S113097008BD214BD3F8803003F00703013B032B60
S113098034D81F4AF3E71C4BD3F8843003F0070331
S1130990013B032B2AD81B4AE9E7174BD3F88830CD
S11309A003F00703013B032B20D8174ADFE7124B60
S11309B01B6F13F0010F0CBF07200920D8E70E4B63
S11309C0D3F85C3103F03003202B11D0302B11D03D
S11309D0102B14BF01200720CAE70C4841F62771E9
S11309E0FFF74CFE0020C3E70520C1E70120BFE765
S11309F00420BDE70820BBE700400E40497B00000F
S1130A004F7B0000537B00004F7B0000807A000086
S1130A1038B52C4B984205460AD02B4B984207D048
S1130A202A4B984204D02A4841F23A51FFF726FE55
S1130A302846FFF787FF234B9D42044611D0224BE3
S1130A409D4212D0214B9D4213D1224BD3F88040BA
S1130A5004F00704042C2DD8DFE804F02A11151D36
S1130A6019001C4BD3F88440F2E71A4BD3F88840A2
S1130A70EEE7174841F26951FFF700FEEAE7BDE8E7
S1130A803840FFF74FBDBDE83840FFF751BDBDE822
S1130A903840FFF74ABDFFF7F5FC0E4B0446D3F888
S1130AA00001C0F300600130FFF736FEB4FBF0F440
S1130AB0204638BD064841F2BB51FFF7DFFD002454
S1130AC0F6E700BF030020000500240002001E001A
S1130AD0807A000000400E4038B500F47813B3F576
S1130AE0B01F05467FD02ED8B3F5402F69D011D85A
S1130AF0B3F5802F54D006D843B1B3F5003F5AD094
S1130B0041F607311AE0B3F5202FF9D1BDE838409A
S1130B10FFF7B8BCB3F5801F00F0A280B3F5A01FA7
S1130B2057D0B3F5602FEBD15B48FFF70BFF0728D5
S1130B3000F096800928E9D041F2FC215748FFF7DC
S1130B409DFD002036E0B3F5381F5AD013D8B3F515
S1130B50001F5FD00AD8B3F5D01F5DD0B3F5F01FE6
S1130B60CED14F48BDE83840FFF752BFB3F5101F50
S1130B70C6D14C48F6E7B3F5481F57D0B3F5781FF4
S1130B8000F08280B3F5401FBAD14748FFF740FF19
S1130B90464B0446D3F82801C0F3012004302BE06F
S1130BA0FFF770FC414BD3F80C31C3F30823013336
S1130BB0B0FBF3F038BDFFF765FC3C4BD3F80831CC
S1130BC0F3E7FFF75FFC394BD3F81431C3F3042385
S1130BD0EDE73448FFF71CFF344BD3F8303103F012
S1130BE00303D840E6E72E48FFF712FF2F4B0446D5
S1130BF0D3F8200100F00F00FFF78EFDB4FBF0F0F6
S1130C00D8E72748FFF704FF284BD3F82031C3F374
S1130C100113E6E72448A5E72348FFF7F9FE234B31
S1130C200446D3F82801C0F30110E5E72048FFF794
S1130C3089FE0138072824D801A353F820F000BF07
S1130C40430B0000830C0000830C0000670C0000C1
S1130C50830C0000830C0000610C00006F0C00008A
S1130C60144B1868A6E7BDE83840FFF747BCFFF708
S1130C7009FC0E4BD3F80031C3F3042303FB00003B
S1130C8098E741F2333159E7FFF7FCFB0446284665
S1130C90FFF752FEB2E700BF06000E00807A0000A4
S1130CA002001E00050024000300200000400E4046
S1130CB0B800320024100020013838B50C4603284F
S1130CC064D8DFE800F002441A2FB1F5007F04D3A2
S1130CD0324842F22571FFF7D1FC314AC4F30804CB
S1130CE0D2F86838002BFBD12E4A136A23F4FF7321
S1130CF023F001032343136238BD7F2904D9274815
S1130D0042F23271FFF7BAFC254A04F07F01D2F8AF
S1130D106038002BFBD1234B1C6924F07F040C4367
S1130D201C61E9E77F2904D91C4842F24D71FFF7A1
S1130D30A5FC1B4A04F07F01D2F86438002BFBD1D8
S1130D40184B9C6924F07F040C439C61D4E7154D37
S1130D50D5F890305B0704D5104842F25D71FFF777
S1130D608DFC6B6A23F0300343F010036B62C4F311
S1130D70C311CB1C2A6B0C490F2B01EA020128BFBB
S1130D800F23214341EA03712963B5E7BDE83840E5
S1130D90024842F27771FFF771BC00BF807A00000D
S1130DA00020C84300400E4000F8FF0F022810B591
S1130DB00C4604D0144842F28F71FFF75FFC134BCA
S1130DC05B6A13F0300F1BD0202C16D0302C17D0B8
S1130DD0B4B10D4842F2AA71FFF750FC0C4B0B4A18
S1130DE0D2F8901033EA0101FAD15B024ABFD2F87B
S1130DF0A0000120C0F3802010BD4FF40003EEE7F3
S1130E004FF44003EBE700BF807A000000400E403F
S1130E10FF33E107022808B50CD129B1094B4FF47F
S1130E208060C3F8A80059664AB1BDE808400220B2
S1130E30FFF7BCBF044842F2E071FFF71FFC01203A
S1130E4008BD00BF00400E40807A000004282DE950
S1130E50F04704460F4691461FD83D4B3D4A13F8D0
S1130E6000A03D4B13F80080F1B93C4B33F810302F
S1130E701366012303FA08F8D2F8903013EA080F36
S1130E80FAD1B9F1000F5AD00125324A05FA0AF510
S1130E90D2F890302B42FBD151E0BDE8F047304806
S1130EA042F27461FFF7EABB2E4B022833F810605C
S1130EB047D1536A13F0300F43D12B4BDB6B5A05E8
S1130EC004D4274842F28361FFF7D8FB214A536ACE
S1130ED0DB0705D5536A23F0300343F01003536254
S1130EE0224D1C4BA8441E664FEA8808D8F80030EF
S1130EF0002BFBD0B9F1000F21D05544AD002B6875
S1130F00002BFCD0022C1AD1CFB1124F796A11F008
S1130F10010118D0012220212046FFF77BFFD7F8DA
S1130F209C40012200210220FFF790FFC4F30A0134
S1130F300220FFF7C1FE3E662B68002BFCD0BDE803
S1130F40F0870027CCE72046FFF730FFE7E700BF34
S1130F50577B000000400E405C7B00006C7B00006F
S1130F60807A0000627B000000300E408004F210A2
S1130F70112838B50C460FD000F00F0001380728AF
S1130F8000F2EB80DFE810F0240066009A00E9002C
S1130F907D00B400E900C200042912D1FFF7AEFAC3
S1130FA00546A8B10021284600F056FA023C0A2C56
S1130FB045D8DFE804F04A473137444444443D0F00
S1130FC04D00052904D1664B1D68664B9D42E9D846
S1130FD00025EBE70320052401221146FFF736FF25
S1130FE0FFF7A8FB0DB1FFF7B7FB5F4B5C67FFF79B
S1130FF073FA0446FFF746FAFFF742FBFFF7BAFB22
S113100001462046FFF7CCFB002D5DD12846012187
S1131010BDE8384000F020BA5448FFF731FB022005
S11310200446D9E75148FFF72BFB01240320D3E7FB
S113103041F6E871BDE838404D48FFF71FBB41F663
S1131040ED71F7E701200324C6E700200424C3E779
S11310500724C5E7062933D14548464D42F22C0101
S1131060FFF70CFB424842F23C01FFF707FBFFF796
S113107009FAFFF705FB404B0122C3F808260323B6
S113108021E006293D4DEDD0013C092C2BD801A3CC
S113109053F824F0ED100000CB100000D91000002C
S11310A0E7100000E71000006F100000E7100000D8
S11310B0E7100000E7100000C5100000304DE3E722
S11310C02C4DE1E704232B6038BD0122114600209A
S11310D0FFF7BCFE0223F6E7012211461046FFF794
S11310E0B5FE0123EFE742F26701A3E70023EAE735
S11310F0072904D0092906D042F2F1019AE71A4BD4
S113110000221A67E0E7184B0122FAE74C1E072C6D
S11311101ED8DFE804F0201D1D161D1D0F04032238
S11311201149D1F85C3123F0300343EA0213C1F8CA
S11311305C31C9E7012211460420FFF787FE012232
S1131140EEE7012211460220FFF780FE0222E7E7C4
S113115042F24F116EE70022E2E742F2262169E7EC
S11311601C100020002D310100400E400148E80110
S1131170807A000080400E400010C84388400E4032
S113118084400E4010B504461120FFF7DBFB042811
S113119004D1274842F20F51FFF770FA01220021CF
S11311A00220FFF753FE63781BB9A3780BB9E378E9
S11311B023B11F4842F24B51FFF760FA237C012B05
S11311C004D11B4842F25251FFF758FA194A217CC4
S11311D0536A23F00103022908BF43F00103536259
S11311E0154B2178C3F8A014637AA18843EAC1237C
S11311F0D362136BA07A217A03F07F630343E08800
S113120043EAC02343EAC11303310F2928BF0F2146
S113121043EA01731363A37B617B1B0143EA01333C
S1131220E17B0B43217B43EA0143536310BD00BFC1
S1131230807A000000400E400000C843EFF31080A5
S113124072B6704700B962B67047EFF3118060233D
S113125083F31188704780F311887047034B5868F3
S1131260C0F30800003818BF0120704700ED00E00B
S1131270EFF31083DB0706D4EFF311805F2894BFEC
S1131280002001207047012070470000034BD86BF9
S113129080F04000C0F38010704700BF00300E4063
S11312A038B542EA0323B3F5007F05460C463ED029
S11312B019D8B3F5807F36D00AD883B3012B21D057
S11312C01F4840F68E11FFF7D9F9002213461FE09C
S11312D040F201129342F3D11A4BD3F824321A0E7E
S11312E0C3F3074314E0B3F5407F24D040F2013246
S11312F0934210D040F201229342E1D1114BD3F832
S1131300283202E00F4BD3F82432C3F30722DBB2B6
S11313102B60226038BD0B4BD3F82832DFE7094B32
S1131320D3F81C32F1E7074BD3F81C32D7E7054B4F
S1131330D3F82032E9E7034BD3F82032CFE700BFDC
S1131340A07B00000081E00F08B5FFF79FFF20B1EC
S1131350024AD2F8C830002BFBD108BD0000C643B6
S11313601A4B022810B5D3F830320C4612D0032899
S113137013D0012814BFDBB2C3F307231B0323F4E8
S11313807042ECB95AB140F61D111148FFF776F9D5
S1131390002010BDC3F30743F0E71B0EEEE70D4931
S11313A0CA6E22F470421343CB660120F1E7094967
S11313B0D1F8EC2022F470421343C1F8EC30F4E786
S11313C0002AF4D040F62911DFE700BF0081E00FC6
S11313D0A07B000000300E40F8B504460F46FFF72E
S11313E055FF78B3FFF7B0FF174B5B68C3F30143B6
S11313F09C4227D0154BD3F80061FFF743F8022C29
S113140005460FD1124BC6F3042606FB00069E4286
S113141004D9104840F23161FFF730F9022128461F
S1131420FFF7BEF9C4F1020210239340064A136188
S11314300FB1FFF789FF2CB921462846BDE8F840D3
S1131440FFF7AEB9F8BD00BF00300E4000400E40BB
S1131450002D3101A07B000013B50246FFF716FFF3
S1131460C8B152B90D4B0191D3F80041FFF70AF806
S1131470C4F30422019902FB0002094B1B7843B117
S1131480084B9A4205D8022002B0BDE81040FFF78D
S1131490A3BF0020F8E702B010BD00BF00400E401B
S11314A082110020002D3101094942780B6823F490
S11314B0407343EA0223022A0B6008D1054B5B6A9E
S11314C09B0004D5044840F26D61FFF7D7B870471C
S11314D000300E4000400E40A07B0000224B4AF634
S11314E0E85210B5596B5A639A6FD207FCD41B6C3F
S11314F013F003031EBF1D4A0124C2F8B44A8342F9
S113150004D110B9194BC3F8B40A10BD032B00D091
S11315109BB9431E012B10D8134A4FF40023D36206
S1131520936FDB07FCD4136C23F0030343F0010334
S113153013640D4A536A1C03FCD50B4B9A6FD207F4
S1131540FCD41A6C22F0030202431A649A6F12F05C
S11315500102FBD10038054C18BF01200129C4F851
S1131560B40A08BF5A63D0E700300E400000C643F7
S11315702DE9F04FA0F5E16389B00024B3F5966F2F
S1131580CDE90244CDE90444CDE9064406468A4641
S1131590934605D940F6EE215548FFF76FF8A3E0CE
S11315A0B0F5E16F534B8CBF0122002249D1D3F82F
S11315B01832C3F30721DBB2079104934FF4167575
S11315C04FF4966748E0BBF1000F0ED0D9F85C20C9
S11315D022F4FE4222F00202B6F5E16F42EA012251
S11315E018BF02200243C9F85C20BAF1000F26D0CC
S11315F020460021FFF7B4FE044610B940F64B31F3
S1131600CAE701214046FFF7ABFE044610B940F695
S11316105331C1E7384A536EBD4238BF3D4623F4C7
S1131620FF73E72D23F0010328BFE725B6F5E16F2B
S113163018BF43F0010343EA4503536654E0012411
S113164052E0D3F81832190EC3F3074307910493F9
S11316504FF496654FF4E167DFF89C90D9F84C405D
S11316600192C4F30174234605A902A8FFF718FEEA
S1131670D9F8EC30019AC3F30128434606A903A81C
S1131680FFF70EFE049BF01B079FF91A4143B1FBC1
S1131690F5F299182CBF012300238F421ED3EBB916
S11316A0069A039FD31B4343B3FBF5F3FF182CBFE8
S11316B001230023BA4211D383B9059B029AA3EBF9
S11316C0020C00FB0CF0B0FBF5F555192CBF012002
S11316D00020AB4202D300283FF475AF044840F623
S11316E03C31FEF7CBFF0024204609B0BDE8F08F63
S11316F0A07B00000081E00F00300E40334A08B5A3
S1131700136FD16C11F0010F03F0060344D0002BCA
S113171042D0132857D9143813288CBF1023082318
S11317202A49013BCA6C180322F47F4240EA03238E
S11317301343CB64264BCA6C1B88C2F303222833A1
S1131740013202EB820003EB5303B3FBF0F3C86CEA
S1131750013B072B28BF072320F0EE6040EA036318
S113176043F48013CB641B4BB3F90030002B12DB22
S113177003F12800C0F34E030344500800EB420277
S1131780B3FBF2F20B6D072A28BF072223F0700384
S113179043EA02120A6508BDD16C01F00101194344
S11317A004D109280FD90A380928B6E7D26CD20720
S11317B002D50BB92728B0E7074840F69131FEF768
S11317C05DFF0023ACE70423AAE700BF00300E400E
S11317D07E11002080110020A07B00000C4BD3F868
S11317E0803910B5044633B9012804D9094840F6B4
S11317F0AF31FEF743FF084A136F23F00703234377
S11318001367064BBDE810401888FFF777BF00BF89
S11318100000C643A07B000000300E407C11002075
S113182038B55A4B02229A639B6B03F00F03934221
S1131830044607D0564840F64B21FEF71FFF00250B
S1131840284638BD0389C82B04D9514840F6552190
S1131850FEF714FFA28823899A4204D94C4840F623
S11318605621FEF70BFFB4F90C30C82B04DD4848B1
S113187040F65721FEF702FF6378012B55D1A38868
S1131880C82B04D940F65B214148FEF7F7FEE288F5
S113189042F210739A4204D93D4840F66821FEF79B
S11318A0EDFEE3884A2B48D9B3F5FA7F47D340F6D7
S11318B0C312934294BF4FF000524FF04052334949
S11318C0B4F90C00CB6C23F0405323F0010300283F
S11318D0A8BF43F001031343CB64D1F8EC30A288D2
S11318E043F44073C1F8EC302A4B1A80CB6E43F0BA
S11318F08073CB66284BD3F8800900B10420FFF72E
S11319006DFF264B21891980254BB4F90C20A08842
S11319101A80FFF7F3FEA37BA3B1012B22D01C484E
S113192040F6CE01FEF7AAFE0FE0022BAFD1A3884A
S11319300A2BACD94FF42661A6E70022BFE74FF08B
S11319408052BCE7114B174A9A6501226088114600
S1131950FFF70EFE054640B90D4840F69F21FEF7FD
S11319608DFE6DE7094B104AEEE7084AD36B43F44A
S11319708063D3636078FFF7B1FDA37AA3F12002FB
S113198053425341044AC2F8943759E700300E4099
S1131990A07B00007C1100200000C6437E110020C3
S11319A08011002077402057372110B70C4B0222BA
S11319B010B59A63DA6B42F48062DA639A6FD207E5
S11319C0FCD403221A641B6C93420CBF0124002430
S11319D004D0044840F6DD31FEF750FE204610BD29
S11319E000300E40A07B000038B50D46044618B305
S11319F0012824D0022825D0032826D004280ED07C
S1131A00052825D0831F012B09D9082823D00928AC
S1131A1023D00A2803D10723EB40DB0704D4104862
S1131A2040F21341FEF72AFE30200E4B01214443BD
S1131A3001FA05F51D5138BD40F2FF33ECE74FF6CE
S1131A40C073E9E740F6FF73E6E74FF47F43E3E74B
S1131A504FF6FF73E0E70F23DEE74FF44043DBE785
S1131A60037C00000CA0004638B50D46044618B3AC
S1131A70012824D0022825D0032826D004280ED0FB
S1131A80052825D0831F012B09D9082823D009282C
S1131A9023D00A2803D10723EB40DB0704D41048E2
S1131AA04FF47971FEF7EAFD30200E4B01214443D7
S1131AB001FA05F51D5138BD40F2FF33ECE74FF64E
S1131AC0C073E9E740F6FF73E6E74FF47F43E3E7CB
S1131AD04FF6FF73E0E70F23DEE74FF44043DBE705
S1131AE0037C00000CA0004470B505460E46144665
S1131AF0FFF7A4FB296881EA040202EA06044C40C9
S1131B002C60BDE87040FFF79DBB0000032838B58A
S1131B1004460D4607D9042808D0052803D0A0F1AF
S1131B200803022B02D835F0011303D008487D21A5
S1131B30FEF7A4FD3020604300F180402A464FF0B8
S1131B400111BDE8384000F52040FFF7CDBF00BFCC
S1131B50677C00002DE9F0410E4615461F460446F9
S1131B6000285FD0012860D0022861D0032862D009
S1131B7004280ED0052861D0831F012B09D9082819
S1131B805FD009285FD00A2803D10720F040C3079B
S1131B9003D43748BF21FEF771FD86EA050333F00D
S1131BA0030303D03248C121FEF768FD072D06F078
S1131BB003064FF00F0149D84FEA85082D4804FA6F
S1131BC008F201FA08F1FFF78FFF03212A4806FA09
S1131BD008F201FA08F1FFF787FF1F2D03D9274800
S1131BE09121FEF74BFD264C2C44A4001F2D2760A9
S1131BF003D922489121FEF741FD9DF81830C4F81D
S1131C008030204A0123AB401F2DC2F8243403D96D
S1131C101A489121FEF732FD9DF81C30C4F80033B8
S1131C20BDE8F08140F2FF30B0E74FF6C070ADE799
S1131C3040F6FF70AAE74FF47F40A7E74FF6FF7026
S1131C40A4E70F20A2E74FF440409FE7A5F108085E
S1131C504FEA88080C4804FA08F201FA08F1FFF781
S1131C6043FF0321094806FA08F201FA08F1B2E732
S1131C70677C000000A4004008A40040CB7C000066
S1131C808020851000A0004004A400400CA4004063
S1131C90F8B50D4616461F460446D8B301283CD075
S1131CA002283DD003283ED004280ED005283DD07C
S1131CB0831F012B09D908283BD009283BD00A28C7
S1131CC003D10723EB40DB0704D4274840F21D115E
S1131CD0FEF7D4FC26B1294620467FB3FFF784FEE5
S1131CE03020604300F18040072D00F5204028D8C3
S1131CF04368AA000F21914023EA010306FA02F285
S1131D001343436076BB294620463FB3BDE8F84001
S1131D10FFF76ABE40F2FF33D4E74FF6C073D1E752
S1131D2040F6FF73CEE74FF47F43CBE74FF6FF73E4
S1131D30C8E70F23C6E74FF44043C3E7FFF794FE19
S1131D40CEE7A5F1080382689B000F21994022EA9F
S1131D50010206FA03F313438360D3E7BDE8F840B6
S1131D60FFF782BEF8BD00BF677C0000022838B5CB
S1131D7004460D4603D911484C21FEF77FFC6B79CC
S1131D801F2B03D90D484F21FEF778FCAB786A78F6
S1131D909B0143EA82032A781343EA7843EA021355
S1131DA02A7943EAC2236A7943EA0233AA790434DA
S1131DB043EA42432401024A135138BD2E7D0000F8
S1131DC000200440014B1860704700BF00008442AB
S1131DD0427801790378002A827870B514BF04260A
S1131DE00026002AC27814BF10250025002A427953
S1131DF04FEA023242EA012242EA0302837914BF23
S1131E0020240024002BC37942EA034343EA060357
S1131E10027A43EA050314BF4FF40041002123432F
S1131E20002A14BF4FF4003200220B431343014A2B
S1131E30136070BD0020044070B506460C4615467C
S1131E4022B90D484FF42271FEF718FC1CB90B4857
S1131E50FEF742FE04460A4B6D00013CB4FBF5F468
S1131E6013EA04234FEA042504D0034840F2A521D1
S1131E70FEF704FC756170BD927D000040410500D1
S1131E80070080FF38B51E4B1E4D984204460ED005
S1131E90A8420CD003F50063984208D003F5806390
S1131EA0984204D0184840F22E41FEF7E7FB40F672
S1131EB0AA63E36041F20502002323606260134ACF
S1131EC0A3606361E364A26423666367A367E36753
S1131ED00B4B9C4209D0AC4207D003F500639C42F3
S1131EE003D003F580639C4201D1002323650023C2
S1131EF0AC42A36502D0064A944200D1E36538BDE2
S1131F000000014000040140927D0000F9FF01003F
S1131F10000C014038B52A4B984204460D4610D0B7
S1131F2003F5806398420CD003F58063984208D08F
S1131F3003F58063984204D022484FF45671FEF7AB
S1131F409DFB2046FFF79EFFA97B2A8A2368002970
S1131F5042F0010214BF4FF48061002113430B438C
S1131F602A7D23602368002A14BF4FF00052002208
S1131F7013432360AB7C1BB1EB7C43F08003A3656C
S1131F802B7B43F480536360D5E901122046FFF7AD
S1131F9053FF6B7B0BB11023E3606B7D1BB1236894
S1131FA043F480332360AB7DEA7D1B07120503F005
S1131FB0E04302F4E002134323662B78E36038BD68
S1131FC000000140927D000003695B06FCD541637B
S1131FD0704700002DE9F047374FDDE908840646D5
S1131FE0154699468A4641B9082323704FF4D963AC
S1131FF0A360324B6760E360FEE75AB1531E13429D
S113200008D00823237040F2CB63A3602B4B676096
S1132010E360FEE7FFF719F9002D08BF04254D45DD
S113202038BF4D46D6F808E06B1E13EA0E0FC5F113
S1132030000202EA0E0208BF0025154409F1FF332D
S1132040AA4413EA0A0FC9F1000202EA0A0208BF0D
S11320504FF0000902EB090372680132A2EB0E0192
S1132060A3EB0E0E7145844615491AD2B8F1000F40
S113207002D09B1AC8F80030162540F22273C4E936
S11320800231257067606046FFF7E5F840F2D763D8
S1132090A3600A4B25706760E36000252846BDE80D
S11320A0F087B360002323704FF4E563C4E9023181
S11320B06760FFF7D0F8F1E7F77D0000867E000047
S11320C06E7E000030B50C4685B011461D461BB926
S11320D0039200F019F80399064801950023009330
S11320E004220123002C18BF2046FFF773FF05B01C
S11320F030BD00BF28100020024B00221A6003F0FC
S113210091B800BF84350020FEE70000014B186041
S1132110704700BF84350020704700002DE9F0416E
S1132120044608B9FFF7F0FFFFF798F8194E1A4D67
S1132130074638B12023237040F21933C4E902352D
S11321406660FEE7154B1B78012B08D00223237031
S1132150666040F21D33C4E90235BDE8F081DFF862
S1132160408098F80030F92B05D91E23237066604F
S113217040F22233EFE7FFF768F898F800300133B4
S113218088F80030FFF767F82770666040F22D3357
S1132190E1E700BFA07E0000937F0000343A0020F6
S11321A0353A002070B5044608B9FFF7ADFF264B59
S11321B01E78012E09D013232370244B636040F250
S11321C0F633A360224BE360FEE7224B1B88022B0D
S11321D009D8092323701D4B636040F20143A360B7
S11321E01B4BE360FEE71C4D2B784BB11F23237080
S11321F0164B636040F20443A360154BE360FEE7B3
S1132200FFF736F848B11F232370104B636040F288
S11322100743A3600E4BE360FEE701F08DFC0F4B18
S11322200F4A18700F4B2E7018700C2358430E4B26
S11322301B5813600D4A136001F028FF03F01CF8CB
S1132240BDE87040FFF760BF16370020A07E000095
S11322507D7F0000543B0020343A00202B370020BF
S1132260483B00202A37002034370020443B00201C
S113227030B14368C1F8EC308368DB68C3617047F0
S113228091F83030022B03D0072B05D0034B00E02C
S1132290034BC1F8EC307047024BFAE7237F000090
S11322A0137F00001A7F0000044BC1F8EC3018B112
S11322B0826802B1D368C361704700BF237F000006
S11322C00023C0E9003303817047036810B533B9B4
S11322D001220281C1E90933016041601CE00289E5
S11322E091F833400132028193F83320A2420CD892
S11322F05B6A002BF8D14B6243688B625962ECE74E
S1132300C1E909325162996206E09A6A002AF7D15A
S1132310C1E909329962016010BDC36A5BB19A6870
S1132320526A4AB9C3E902221A8A013A1A8200237C
S1132330C0E90933C3627047D0E9092111B9916238
S11323409A60F1E74A620AB9D960EDE79162EBE776
S113235038B5C56AAB685B6A4BB1FFF7DEFFC5628F
S1132360014605F10800BDE83840FFF7AEBF38BDAF
S1132370054B40220021013AC3E90011198103F100
S11323800C03F8D1704700BF34370020F8B5044679
S113239008B9FFF7B9FE964D6A68D2B12B68954E1D
S11323A04BB92346296B94489200FFF78BFE3060AB
S11323B023780BB1F8BD3360904B32681A60904AB1
S11323C06B6813608F49904A9B0013600A6813443A
S11323D00B602A89B2B12346296B8C481201FFF79E
S11323E071FE8B4B18602378002BE3D1894B8A4A0A
S11323F018602B8913808349884A1B0113600A687B
S113240013440B606A69002A27D02B69844E002B81
S113241062D12346296B83489200FFF753FE306054
S11324202378002BC6D1804B2A7E1A707F4BEA6931
S11324301A607F4B32681A606B69EA6864215A43F8
S1132440B2FBF1F27B490A607B4A6E4913607B4A16
S11324509B0013600A6813440B606A6A002A28D040
S11324602B6A774E002B39D12346296B754892008D
S1132470FFF728FE30602378002B9BD1724B95F830
S113248028201A70714B32681A606B6AEA686421FA
S11324905A43B2FBF1F26E490A606E4AE96A13606C
S11324A06D4A9B0013606D4A116056490A681344D3
S11324B00B606B4E6B6B336002F092FF03F0B4FC65
S11324C0054668B101232370664B63604FF4D773EC
S11324D0A360654BE3606DE73360A4E73360CDE749
S11324E003F0A2FD3368984209D2092323705D4B9F
S11324F063604FF4D973A3605B4BE360FEE703F0C2
S113250093FD3368594F984240F0D8803D6032685B
S1132510B2F57A7F07D900230020012105F09AF84B
S11325204FF47A754543524B524A1D600023137091
S1132530514A1370514A1360514A1360514A13703F
S1132540514A1370514A2046137002F02FFA0A239D
S1132550B0FBF3F04E4B18602578002D7FF42AAFC2
S1132560274A136853B12549086838B10146013B2D
S113257041F8045BFBD1116801F0B6FF454B00251F
S11325801D7001F0D1FAFFF7F3FE434B1D60434B7E
S11325901D80214B1B88002B40F09C80404A002367
S11325A01360404A1380404A1360404A1380404AF3
S11325B01360404A2046138001F012FF2378002B59
S11325C07FF4F8AE204601F02DFD2378002B7FF434
S11325D0F1AE204602F0AEFC2378002B7FF4EAAE85
S11325E000F0B0FBFFF798FD334B01221A70E1E6CF
S11325F03C1000208C350020257F00009035002001
S1132600943500208835002098350020387F00005C
S11326109C350020A0350020A4350020A8350020DA
S1132620B43500204A7F0000AC350020B0350020CE
S1132630B8350020BC350020C0350020C43500204A
S1132640D4350020637F0000CC350020D83500202D
S1132650DC350020E0350020E4350020D0350020B2
S1132660C8350020A07E00009F7F0000EC350020CC
S1132670E8350020343A0020353A0020443B00205D
S1132680483B00202A3700202B3700203C3A00200A
S1132690383A0020563B0020103700201437002021
S11326A024370020283700202C3700203037002022
S11326B0403A0020443A00201637002003F0B4FCCE
S11326C02B4602460121002004F0C4FF336858431E
S11326D038601CE7204600F045FF2378002B3FF4C8
S11326E05DAF67E690F833300B490C22534330B5A5
S11326F0CA58CC1832B901252581C0E90422C85032
S1132700606030BD25890135258100240261446162
S11327105061C850F5E700BF3437002090F83320EB
S11327200B490C235A4330B58C588B1834B9012506
S11327301D81C0E904448850586030BD1A890132B3
S11327401A81002202615A6842611061F4E700BFF5
S11327503437002010B5044690F8330001F0FCF93A
S1132760074B94F833201B789A42204603D1BDE8E6
S11327701040FFF7D3BFBDE81040FFF7B3BF00BF61
S11327802A37002038B50C4691F83210072905463F
S1132790049807D80239052906D8DFE801F00606AF
S11327A005052525FF293AD138BDA267A4F87C3058
S11327B0606415B12046FFF7B0FD21462846FFF7B7
S11327C073FD94F83230032B06D104F1540003F066
S11327D065FB08B1FFF798FC2046FFF7BBFF002319
S11327E0238684F83230DFE7A267A4F87C30606483
S11327F015B12046FFF791FD21462846FFF754FD09
S113280094F83230072B06D104F1540003F046FB50
S113281008B1FFF779FC002323860423E1E7BDE830
S11328203840FFF771BCD0E90032934210B50FD0A5
S11328301C690021A24215BF6161C3E90412C3E906
S11328400412C2E9043116BF1361026004604360DC
S113285010BD000070B50446D4E9043590F8330087
S1132860104A0C219DB953B94143551853502B813B
S11328706B6001F087F90023C4E9043370BD484359
S113288016183189013931815D611350F3E701FB79
S113289000221189013911812B610BB95560EAE7D6
S11328A05D61E8E73437002013B5044670B1084B86
S11328B01B78012B0AD10023CDE90033054A416F6F
S11328C00346054803F048FB044B1C6002B010BDEE
S11328D03C3A0020792B0000F4350020F03500202C
S11328E0F8B50446A8B1114B1B78012B11D1056F23
S11328F00F4E7DB90F4B1F6803F096FB32682B46D1
S1132900511E0D461946E7FB0051284604F0A2FE6D
S11329106067F8BD03F088FB32680023511E0E4641
S11329201946E5FB00613046F0E700BF3C3A002061
S1132930C8350020383A00202DE9F7435D4B1B7859
S1132940012B00D0FEE75C4B93F80080B8F1000F38
S113295040F09680FEF779FC584F594C97F8009058
S1132960584D064601F0E8F840280346387000F058
S11329708A800C20DFF858814343B9F1400F58F89E
S11329800330236003D101F073FCAFF300802268AD
S11329902B68DFF840919A4218D1002001F090FD95
S11329A0012802D0286802F039FD99F800303BB1C3
S11329B02068436F0BB9FFF793FF2068FFF774FF9C
S11329C0304603B0BDE8F043FEF745BC99F800304B
S11329D01BB3DFF80491D9F800305B6FEBB13A48D0
S11329E001A903F0DDFA30B9D9F80030019A36486C
S11329F05A6703F053FAD9F800305A6F6AB993F85A
S1132A00330000EB400008EB8000FFF70CFF3B783D
S1132A100C22534358F8033023602268D2F8C030A4
S1132A200133C2F8C030294A1368013313603B787C
S1132A30402B33D02B682268934215D0A3B102F007
S1132A4009FC2B68D3F8C83098421FD302F002FC6B
S1132A502B68D3F8C830C01A2A68D2F8CC30C2F830
S1132A60C4001844C2F8CC00246802F0F3FBC4F894
S1132A70C80002F040FC3046FEF7EDFBBFF36F8F59
S1132A8003B0BDE8F083C4F80080CCE702F0E2FBB9
S1132A902B68D3F8C820D2431044DDE701F0E0FBF3
S1132AA02C681CB102F0D6FBC4F8C800AFF3008058
S1132AB0DFE700BF343A0020353A00202B370020EE
S1132AC0483B0020443B0020F43500204C3B0020D0
S1132AD0343700203C3A0020F03500202DE9F04145
S1132AE0044608B9FFF710FBFEF7B8FB1E4F1F4E54
S1132AF038B12023237040F24533C4E902366760BD
S1132B00FEE71B4B1B78012B08D002232370676060
S1132B1040F24933C4E90236BDE8F081DFF854805D
S1132B2098F800302BB91F232370676040F24E33AE
S1132B30F0E7FEF78AFB98F80050013DEDB288F803
S1132B4000503DB1FEF787FB2D232370676040F2F0
S1132B505633DFE7FEF77FFBFFF7EEFE2570676075
S1132B604FF45873D6E700BFA07E0000857F0000B5
S1132B70343A0020353A002038B50E4B1B78012B2F
S1132B800D4616D1FEF761FB00236B670A4B1B68E9
S1132B9093F833300446094803EB430300EB830006
S1132BA0FFF741FE2046FEF756FBBDE83840FFF72D
S1132BB0C3BE38BD3C3A0020F03500203437002035
S1132BC0F8B50C46FEF741FB94F83230013B07465A
S1132BD0062B3FD8DFE803F04B3E043E523E040090
S1132BE094F83030042B08BFE36A4FF0000608BFA6
S1132BF05D6AA667A4F87C6018BF354602F02AFB1C
S1132C0060642046FFF789FB94F83230032B28D107
S1132C10FFF7A0FD84F832604FF440732386CDB1F2
S1132C2095F8333095F834209A4213D094F8332031
S1132C309A420FD1284600F071FE95F83430834251
S1132C4028BF0346D9B295F833308B4202D02846C8
S1132C5001F06CFD3846FEF7FEFABDE8F840FFF7D8
S1132C606BBE072B04BF042384F83230D4E700235F
S1132C7084F832302046FFF76DFDEBE7042384F837
S1132C803230E7E7F7B504460D4611B303F0CCF94B
S1132C90114B1A680026571E46F1FF31E5FB0071FF
S1132CA03346384604F0D6FCCDE9006601460B4AAB
S1132CB0234604F1540003F04FF908B1FFF724FA56
S1132CC00323204684F8323003B0BDE8F040FFF718
S1132CD0C1BD0223F5E700BFC8350020C12B0000A9
S1132CE037B5144D0B4611462A6882F8303000235C
S1132CF082F83130104A127804463AB10F4A10482B
S1132D0012680191536703F0C9F801992868FFF725
S1132D10B9FF64B1296804F10800CC62FFF7D5FA61
S1132D202968204603B0BDE83040FFF7A1BA2B68FC
S1132D30DC62F5E7443B00203C3A0020F0350020FB
S1132D40F4350020774B1B7882B0DBB28DF8053068
S1132D50754B1B68DBB28DF80730744B1B78DBB204
S1132D608DF80530724B1B78DBB28DF80530714B52
S1132D701B68DBB28DF807306F4B1B6ADBB28DF832
S1132D8007306E4B1B78DBB28DF805306C4B1B782B
S1132D90DBB28DF805306B4B1B88DBB28DF8063047
S1132DA0694B1B88DBB28DF80630684B1B78DBB2AD
S1132DB08DF80530664B1B88DBB28DF80630654B09
S1132DC01B88DBB28DF80630634B1B88DBB28DF8B1
S1132DD00630624B93F82830DBB28DF80730604B35
S1132DE01B78DBB28DF805305E4B1B88DBB28DF8A7
S1132DF006305D4B1B88DBB28DF806305B4B1B88BD
S1132E00DBB28DF806305A4B1B88DBB28DF80630E6
S1132E10584B1B88DBB28DF80630574B1B88DBB24E
S1132E208DF80630554B5B8DDBB28DF80730544B73
S1132E301B78DBB28DF80530524B1B88DBB28DF862
S1132E400630514B1B78DBB28DF806304F4B1B6AB2
S1132E50DBB28DF807304E4B1B78DBB28DF80530B2
S1132E604C4B1B88DBB28DF806304B4B1B88DBB216
S1132E708DF80630494B1B68DBB28DF80730484BA0
S1132E801B78DBB28DF80630464B1B78DBB28DF82D
S1132E900530454B1B78DBB28DF80530434B1B786E
S1132EA0DBB28DF80530424B1B78DBB28DF8053070
S1132EB0404B1B78DBB28DF805303F4B1B78DBB2FF
S1132EC08DF805303D4B1B88DBB28DF806303C4B4A
S1132ED01B78DBB28DF805303A4B1B88DBB28DF8DA
S1132EE00630394B1B88DBB28DF80630374B1B7824
S1132EF0DBB28DF80530364B1B88DBB28DF806301B
S1132F00344B9B8CDBB28DF80730334B1B88DBB220
S1132F108DF806309DF805309DF806309DF8073091
S1132F2002B070477C10002078100020741000203C
S1132F301036002080100020143600208410002059
S1132F403C36002086100020881000208A100020C3
S1132F50901000208C1000208E100020403600209D
S1132F609210002094100020961000209810002049
S1132F709A1000209C1000209E1000207036002023
S1132F80A0100020A2100020AC100020A0360020C9
S1132F90AD100020AE100020A4100020A8100020C6
S1132FA0B2100020B0100020B1100020B610002094
S1132FB0B7100020B9100020B8100020BA1000206B
S1132FC0BC100020B4100020BE100020C01000204F
S1132FD0C2100020C8360020C410002010B4074CD2
S1132FE02468A4F8AC200022C4F8A410C4F8A820D3
S1132FF001215DF8044B1A46FFF772BE443B0020E2
S11330002DE9F04F2DED028B83B0DDE90E6408EE5F
S1133010102A05468A4698460CB9FFF775F80FFA48
S113302088F3002B0093C0F25081FEF717F90028B3
S113303000F04681202323709C4B636040F23513DB
S1133040A3609B4BE360FEE71F232370974B6360F1
S113305040F23913A360964BE360FEE7022323702A
S1133060924B63604FF49F73A360914BE3604FF006
S1133070000B57E047F6FF6308EA0303581E0128D4
S11330800DD9042B0BD0082B09D008232370874BB0
S113309063604FF4A373A360854BE360FEE7286885
S11330A0844B984209D00C232370804B63604FF407
S11330B0AC73A3607E4BE360FEE708F48073019376
S11330C00EB100233360FEF7C0F808F00F09B9F120
S11330D0040F074607D0B9F1080F42D0FEF7BBF83A
S11330E0FFF712F87AE02A6A3AEA020302EA0A0BC4
S11330F01ED1019B13B122EA0B022A626E4A1268A6
S11331000AB1C2F8A8B00EB16A6A32603846FEF756
S1133110A2F800222270654A62604FF4BB72A2607A
S1133120634AE260584603B0BDEC028BBDE8F08F01
S1133130009B002B08DAFEF78EF81D2323705B4BEF
S1133140636040F27D138FE75C4B1B78002B3BD010
S1133150FEF781F82D232370544B63604FF4C27340
S113316082E72A6A12EA0A0B16D0019B13B122EAFB
S11331700B022A62504A12680AB1C2F8A8B00EB112
S11331806A6A32603846FEF766F800222270474ABF
S113319062604FF4D172C2E7009B002B08DAFEF79D
S11331A05AF81D222270414A626040F2A912B6E721
S11331B0424B1B7843B1FEF74EF82D2222703B4A56
S11331C062604FF4D872AAE7284618EE103A4246D5
S11331D05146FFF703FF3846FEF73DF8364FFFF739
S11331E0ABFBFEF732F83B6893F83120032A4BD847
S11331F0DFE802F002263E320EB15B6C336000233E
S113320023702A4B636040F22D23A360284BE360B4
S11332103B68D3F8A8B0019B4BB1B9F1040F02D0BD
S1133220B9F1080F3AD12A6A22EA0B022A62FEF7A0
S113323012F8002222701D4A626040F26F226EE78B
S11332400EB15B6C3360FEF706F821232370174B35
S113325063604FF40E7307E70EB100233360FDF78C
S1133260FAFF22232370114B636040F24123FBE6F3
S11332700EB15B6C3360FDF7EEFF312323700B4B13
S113328063604FF41373EFE60090FDF7E4FFFEF77D
S11332903BFF23780098002BBAD0E8E60090FDF7B6
S11332A0DAFFFEF731FF0098C1E700BFA67F0000F8
S11332B024800000464C4147443B0020353A00201E
S11332C0FDF7D6FF00287FF4BFAE094B1B78012B16
S11332D07FF4C4AE002D7FF4CDAE0A232370054BDA
S11332E0636040F24313A360034BE360FEE700BF57
S11332F0343A0020A67F000024800000054B064AD3
S1133300C36100234361136883610BB91060704784
S11333105861FBE7237F0000103700202DE9F84FA8
S113332005468B4692461C460BB9FEF7EDFEFDF7AB
S113333095FFDFF87C801B4F064638B120232370AD
S11333405523C4E90237C4F80480FEE73DB90A23D3
S113335023705823C4E90237C4F80480FEE7FDF75C
S113336074FF282231468146284604F03FFB0E4B69
S1133370C5F820A0C5E9003B05F10800FEF7A0FF51
S11333802846FFF7BBFF094A1388484601331380D8
S1133390FDF761FF70232670C4E90237C4F8048086
S11333A0BDE8F88F2F800000464C414714370020B9
S11333B0A67F000010B50023038690F83230C0F8D1
S11333C0A81004464264072B1AD8DFE803F012124F
S11333D0040412121717032B05D1543002F05EFDBA
S11333E008B1FEF791FE2046FFF7B4F9002384F8F4
S11333F032302046BDE81040FEF78FBF0423F6E7C5
S1133400FEF782FEF5E700002DE9F84305460F4676
S113341016461C460BB9FEF777FE4E4B1B78012B64
S11334200CD0022323704C4B636040F23233A36010
S11334304A4BE36000252846BDE8F8834DB90A23CA
S11334402370454B636040F23733A360434BE36022
S1133450FEE747F6FE731E4209D0082323703E4B55
S1133460636040F23A33A3603C4BE360FEE72A68B2
S11334703B4B9A4209D00C232370374B63604FF4C3
S11334805073A360354BE360FEE701F0E3FE814631
S1133490FDF7DBFEB6F5004F80460BD048F2010382
S11334A09E421BD036B1012E18D0FDF7D4FEFEF794
S11334B02BFE02E0296A39432962AF68C5F82490DB
S11334C087B94046FDF7C7FE234B636040F2623381
S11334D02770A360214B2D6AE360ACE7296A21EAD7
S11334E00701E9E738467F6AB0F8AC3003F00F0310
S11334F0042B07D0082B0FD04046FDF7ACFEFEF797
S113350003FE0EE0D0F8A4102B6A31EA030308D1BD
S11335104A46FFF74FFF04E0296AD0F8A430194067
S1133520F6D1002FDED14046FDF795FE330401D4D9
S1133530FFF702FAFDF789FE2D6AFDF78CFE0023E2
S11335402370054B636040F2A333A360034BE36035
S113355071E700BF343A0020A67F00001980000004
S1133560464C4147154BF0B51C68154B1E88002589
S1133570721E04F1100192B22B46AFB2BA4213D8B4
S1133580110104EB0212635053601381D3600D4A9E
S11335901381D3809680146003700B4B43605D23CA
S11335A083600A4BC360F0BD41E9041321F8083C71
S11335B041F8043C01351031DFE700BFA03500209D
S11335C0A4350020183700203C800000AE800000A5
S11335D0428910B582B1094B01681C680C604168CE
S11335E01960D988891AD98099881144998000234F
S11335F0C0E9003343818381104610BD1837002091
S113360038B504460D461022002104F0EFF9258157
S113361038BD00002DE9F74F0C9C06468946174635
S11336201D460CB9FEF770FDFDF718FE48B12023C6
S11336302370814B636040F23313A3607F4BE360DC
S1133640FEE74EB90A2323707B4B63604FF49B73F0
S1133650A3607A4BE360FEE7C7F30E034BB1082384
S11336602370754B636040F23913A360734BE360BE
S1133670FEE73268724B9A4209D00C2323706E4BDA
S1133680636040F23D13A3606C4BE360FEE73FB21E
S1133690002F0CDBFDF7ECFD48B11F232370664BB4
S11336A063604FF4A073A360644BE360FEE7654B73
S11336B093F800B0BBF1010F1CD1FDF7C6FD96F8DD
S11336C02830DFF888A18046F3B9DAF80030736255
S11336D086F828B00DB1F26A2A609A6B32624046CD
S11336E09E63FDF7B8FD00232370534B63604FF4D2
S11336F0AA7305E0022323704F4B636040F2451325
S1133700A3604E4BE36013E0726ADAF800108A4259
S113371021D1FF2BDFF82091484F0CD1FDF79BFD01
S11337201E232370C4F8049040F25D13C4E90237E9
S113373003B0BDE8F08F013386F828300DB1F36A89
S11337402B604046FDF787FD23232370C4F80490C3
S113375040F26913EAE7002F0BDAFDF77CFD0DB1A7
S113376000232B601D232370334B63604FF4BB7322
S1133770C6E7354B1B785BB1FDF76DFD0DB100233A
S11337802B602D2323702C4B63604FF4C173B7E778
S113379091F8331092F833308B4202D9104600F07E
S11337A0C5FF4A4604213046FFF79AFA4046FDF722
S11337B052FDFFF7C1F8FDF748FDDAF8003093F841
S11337C03120032A32D8DFE802F00213271D0DB19D
S11337D05B6C2B6000232370174B63604FF4D07332
S11337E0A360164BE36003B0BDE8F04FFDF733BDB3
S11337F00DB15B6C2B60212323700F4B63604FF47E
S1133800D573EDE70DB100232B60222323700A4BFF
S113381063604FF4DA73E3E70DB15B6C2B60312323
S11338202370054B63604FF4DF73D9E70190FEF713
S11338306BFC0198D7E700BFBD8000003D8100000C
S11338404D555458343A0020353A0020443B00206A
S1133850054B064AC36100234361136883610BB9B6
S1133860106070475861FBE7237F00002437002075
S11338702DE9F04705468A4614460AB9FEF744FC8A
S1133880FDF7ECFCDFF878801A4F064638B12023A8
S113389023705223C4E90237C4F80480FEE73DB91B
S11338A00A2323705523C4E90237C4F80480FEE7D1
S11338B0FDF7CBFC302231468146284604F096F8C9
S11338C00D4B05F10800C5E9003AFEF7F9FC28465E
S11338D0FFF7BEFF094A1388484601331380FDF7FA
S11338E0BAFC6C232670C4E90237C4F80480BDE82E
S11338F0F08700BF498100004D55545828370020F7
S1133900BD800000836B00F138028B42186A01D13C
S11339101060704703F120020346F6E7836B3F20F3
S113392003B970479A6822B192F83320904228BFB5
S113393010461B6AF4E700002DE9F04F054685B0F8
S11339408A4614460AB9FEF7DFFBFDF787FC5C4F95
S11339505C4E38B12023237040F25723C4E9023669
S11339606760FEE73DB90A23237040F25A23C4E995
S113397002366760FEE7CAF30E033BB108232370E7
S113398040F25D23C4E902366760FEE72A684E4BC5
S11339909A4207D00C23237040F26123C4E9023613
S11339A06760FEE7494B1B78012B09D00223237083
S11339B0676040F26523C4E9023605B0BDE8F08FC4
S11339C0DFF81091FDF741FC6A6AD9F800309A4299
S11339D0804607D0FDF73FFC1B23237067604FF43C
S11339E01B73E8E701F036FC95F828300290013BA0
S11339F0DBB2E86285F8283043B14046FDF72BFC82
S1133A0023232370676040F27D23D4E7D9F80000B4
S1133A102946FFF777FFD5F808B0BBF1000F0CD1AA
S1133A20C5F824B085F828B04046FDF714FC84F8A6
S1133A3000B0676040F28A23BDE7D9F8001091F81E
S1133A40332091F834B003925A451BD00846FFF74F
S1133A5065FF584528BF5846039A5FFA80FB5A45CC
S1133A6010D20846FEF7F6FED9F80020584682F830
S1133A7033B000F071F8D9F80000FEF74FFE144A95
S1133A8082F800B0A9686962012385F828308B6B3D
S1133A902B62029B8D63009300231A462846FEF78F
S1133AA071FE4046FDF7D7FB1AF4004F01D1FEF733
S1133AB043FF00232370676040F2AD237BE700BF20
S1133AC0BD800000318100004D555458343A002027
S1133AD02A370020443B00202DE9F341846B05463E
S1133AE0012714B902B0BDE8F081D4F8208001F0B8
S1133AF0B1FB2146E06206462846FFF703FFA168B2
S1133B0021B984F8281061624446EAE784F82870F1
S1133B108B6B2362002365621A468C6320460096F1
S1133B20FEF730FEF0E70000024B0022C3E900225A
S1133B30704700BFF836002008B5064B186828B94E
S1133B40586801F08DFB2030C0B208BD01F088FB3D
S1133B50FAE700BFF83600201F28094A07D84FF0BB
S1133B60004323FA00F013680343136070470123F2
S1133B70C0F13F0003FA00F05368184350607047E7
S1133B80F83600201F280A4B08D84FF0004222FACA
S1133B9000F01A6822EA00021A6070470122C0F19C
S1133BA03F0002FA00F05A6822EA00025A607047A5
S1133BB0F83600202DE9F3470A9C07468946164645
S1133BC01D460CB9FEF7A0FA0FFA86FABAF1000FF7
S1133BD00ADABFB90A2323706A4B63604FF4937304
S1133BE0A360694BE360FEE7FDF738FB0028F0D0E3
S1133BF020232370634B63604FF49173A360624B83
S1133C00E360FEE7C6F30E064EB1082323705D4B56
S1133C10636040F22913A3605B4BE360FEE73A68FC
S1133C205A4B9A4209D00C232370564B636040F2DE
S1133C302D13A360544BE360FEE7BAF1000F0CDBD5
S1133C40FDF716FB48B11F2323704E4B63604FF4FE
S1133C509873A3604C4BE360FEE74D4B1B78012B3C
S1133C6017D1FDF7F2FA3E6A804606B3013E3E6282
S1133C700DB17B6A2B6040463E6AFDF7ECFA0023E7
S1133C802370404B636040F24313A3603E4BE360F8
S1133C9009E0022323703B4B636040F23513A360B9
S1133CA0394BE3600026304602B0BDE8F087BAF134
S1133CB0000F0CDA05B12E6040463E6AFDF7CBFAE0
S1133CC01D2323702F4B636040F25113DDE7314B0A
S1133CD01B785BB105B12E604046FDF7BCFA2D237D
S1133CE02370284B636040F25D13CEE74A460621F9
S1133CF03846FEF7F5FF4046FDF7ADFAFEF71CFE29
S1133D00FDF7A3FA244B1B6893F83120032A31D81A
S1133D10DFE802F00212261C0DB15B6C2B6000235D
S1133D202370184B63604FF4BA73A360164BE360BF
S1133D303E6AFDF790FAB6E70DB15B6C2B60212368
S1133D402370104B63604FF4BF73EEE70DB1002393
S1133D502B60222323700B4B63604FF4C473E4E79E
S1133D600DB15B6C2B6031232370064B63604FF401
S1133D70C973DAE70190FDF76EFAFEF7C5F9019809
S1133D80D6E700BF57810000D381000053454D4161
S1133D90343A0020353A0020443B00202DE9F34713
S1133DA00646884614460AB9FEF7AEF94EB90A2308
S1133DB023703E4B636040F22623A3603C4BE360D8
S1133DC0FEE747F6FF5518EA050509D008232370D6
S1133DD0364B636040F22923A360354BE360FEE772
S1133DE03268344B9A4209D00C2323702F4B636002
S1133DF040F22F23A3602E4BE360FEE72E4B1B788B
S1133E00012B09D002232370284B636040F2332333
S1133E10A360274BE36038E001F01CFA8146FDF70C
S1133E2014FAB7680546F7B108F4007A0023394656
S1133E301A467F6ACDF800903046FEF7A3FCBAF12B
S1133E40000F01D0002FF1D12846FDF704FA18F431
S1133E50004F01D1FEF770FD144B636000252570FF
S1133E6040F26523D4E7356ADFF840A0DFF84080EC
S1133E706B1C0ED1FDF7EFF91E2323704FF4117361
S1133E80C4E90238C4F804A03D46284602B0BDE89F
S1133E90F0870135C6E90859FDF7DDF940F24F23F3
S1133EA0C4E902382770C4F804A0EEE75781000083
S1133EB0C981000053454D41343A0020054B064A60
S1133EC0C36100234361136883610BB910607047B9
S1133ED05861FBE7237F0000403A00202DE9F84FAA
S1133EE005468A4693461C460BB9FEF70DF9FDF7C5
S1133EF0B5F9DFF880801C4F064638B120232370C3
S1133F005823C4E90237C4F80480FEE73DB90A2304
S1133F1023705B23C4E90237C4F80480FEE7FDF78D
S1133F2094F9282231468146284603F05FFD0F4B61
S1133F302B6005F10800C5F820B0C5F804A0FEF711
S1133F40BFF92846FFF7BAFF094A138848460133E8
S1133F501380FDF780F973232670C4E90237C4F88F
S1133F600480BDE8F88F00BFDD81000053454D415A
S1133F70443A002057810000F8B5064608B9FEF718
S1133F80C3F8FDF762F91F4B00251D801E4B1D6011
S1133F901E4B1D601E4B1D81FDF75DF9FDF755F9A4
S1133FA01C4B1C68FDF757F974B9FDF74EF91A4B11
S1133FB01D68FDF750F905BB184B7360A423B3606B
S1133FC03570174BF360F8BDFDF73FF9C4E933557D
S1133FD0C4F89450C4F8D850C4F8C050A4F8BA50E7
S1133FE0A4F8BC50074601F035F9A4F88C50C4F885
S1133FF0C800D4F8E8403846D4E7FDF726F9AC8584
S1134000AD69D6E74A3A0020403B0020883C0020B6
S113401018370020503B00202C370020E981000095
S11340206F82000000B5104A104900231370104A33
S11340308BB013700322CDE90632CDE904330D4A67
S11340400890126803920C4A0C48126802920C4AB7
S1134050126801920B4A127800920B4A00F04EFA51
S11340600BB05DF804FB00BF4C3A00205C820000FA
S1134070463A0020C0350020BC350020503A0020CC
S1134080B8350020AC3500209D40000008B501F093
S1134090E1F8014B186008BD0C3700202DE9F04F02
S11340A085B06846FFF768FF684600F07FFC9DF81E
S11340B0003005460BB1FEF727F85C4B18684FF04B
S11340C00008A842C24642F2107728BF0A20B5FB76
S11340D0F0F501F0BFF8564E814601F0BBF83368A5
S11340E0984267D301F0B6F83468041BFDF7ADF8C5
S11340F0504BD3F800B0C3F800A0FDF7ACF84E4B1A
S11341009C425DD94D4B9C425ED94D4B9C425FD342
S11341104C4B9C4295BF4FF47A7038460A260126D0
S11341200BFB06F3B4FBF0F4B3FBF4F39BB2BB421A
S1134130454A28BF3B461380444AFB1A9BB213806E
S1134140434A1188994203D2B8F1000F00D013807A
S1134150DFF808B1FDF779F8DBF80080FDF77BF8AC
S1134160B8F1000F37D1FDF770F8DBF80080FDF7E8
S113417072F8B8F1000F3BD1364B1A78012A04D1FA
S1134180684683F80080FFF7F7FE01F053F9FFF764
S11341907DFF01F05FF8304B1A68A0EB0900824202
S11341A038BF18606A460021284600F011FC4FF021
S11341B001088EE701F04EF83368DB431C1895E7DD
S11341C0012042F21076ABE70A204FF47A76A7E793
S11341D064200646A4E7FDF738F8D8F8CC30C8E9DF
S11341E033A3FDF738F8FDF730F8D8F8E880B5E7E1
S11341F0D8F8D030B8F8BC207343B3FBF4F39BB2C7
S1134200BB4228BF3B469A4238BFA8F8BC30A8F846
S1134210BA3008F1DC0208F1E00140466B4600F0D8
S113422041F8FDF712F8D8F8E880A0E7B03500208F
S11342300C370020083700207F1A0600FF083D00D5
S1134240005A6202FF83D71700370020483A002043
S11342504A3A0020463A0020403B0020503B0020D0
S113426008B500F0F7FF014B186008BD04370020C3
S113427010B50A4C00F0EEFF2368984208D300F012
S1134280E9FF2368C01A064A13681844106010BD79
S113429000F0E0FF2368DB431844F4E70437002010
S11342A0083700202DE9F04105460F4616461C4606
S11342B00BB9FDF729FFFCF7D1FF48B12023237088
S11342C02F4B636040F2BC63A3602E4BE360FEE7B8
S11342D04FB90A2323702A4B636040F2BF63A36083
S11342E0284BE360FEE74EB90A232370244B636036
S11342F040F2C163A360234BE360FEE7FCF7A5FF34
S11343000DB9214B1D68D5F80080B8F1000F10D10C
S1134310FCF7A1FF0823C7F80080C6F800802370CB
S1134320174B636040F2CC63A360164BE360BDE8B7
S1134330F081B5F8408018F001080CD1FCF78BFF30
S11343400723C7F80080C6F8008023700C4B636015
S113435040F2D463E8E7FCF77EFFAA6900231C322D
S113436052F8041F51B13B60EA6BD31A3360002347
S11343702370034B636040F2EF63D5E70133EFE74B
S11343807B82000017830000443B0020064A002380
S1134390C0F8E4301368C0F8E8300BB91060704717
S11343A0C3F8E400FAE700BF503B0020D0E939230A
S11343B042B90A490B600BB1C3F8E4200023C0F8EA
S11343C0E8307047C2F8E83013B9C0F8E4307047F9
S11343D0C3F8E4200023C0F8E830F6E7503B00209F
S11343E0074A00231360074A1380074A13600370C7
S11343F0064B436040F621038360054BC36070475E
S1134400503B0020543B00204C3B00207B820000AA
S1134410F482000038B5F0220446002103F0E6FAE5
S11344201D4BE3600025002104F18000FFF7E8F84C
S1134430C4E92455C4E92C55C4E92655C4E93555C5
S1134440C4E93755C4E91C55C4E93055C4F8A4502F
S1134450A4F8AC50C4F8A850C4F8A050A564E5630F
S113446084F8B850A4F84050256584F84C50A4F85A
S1134470BA50A4F8BC5000F0EDFE4FF08043236323
S1134480402384F83430054BA563C4E93205C4E9FC
S11344903955C4F8EC3038BDEE820000237F0000AB
S11344A0064A031F1C3053F8041F914203D1834270
S11344B0F9D1012070470020704700BF4523CDABE0
S11344C008B9084B1868026883699A4207D3C16B1C
S11344D003EB8100824202D21846FFF7E1BF0020BD
S11344E0704700BF443B0020034A031F1C3043F8BD
S11344F0042F8342FBD170474523CDAB2DE9F04F08
S113450089B0DDE9136A04939DF848300393BDF83C
S113451058300593DDE917831A9C159FBDF8649004
S113452006910546029207930CB9FDF7EDFDFCF7E1
S113453095FE764A764B834630B16260F022C4E938
S1134540022320212170FEE735B96260F322C4E919
S113455002230A212170FEE7029931B96260F62232
S1134560C4E902230A212170FEE736B96260F92208
S1134570C4E902230A212170FEE766490968B942A9
S113458006D96260FC22C4E9022308212170FEE7F7
S1134590574506D86260FF22C4E90223082121702E
S11345A0FEE703993F2907D962604FF48172C4E999
S11345B0022308212170FEE75749059809888142A2
S11345C007D262604FF48372C4E902230821217088
S11345D0FEE72846FFF71EFF4C4A4D4B626019F078
S11345E0030F40F20B1284F800B0A260E36070D1B4
S11345F02AF0070A06EB8A0ACDE9007904990298A1
S11346005346324600F01AFF864283460AD93223C3
S113461023703E4B63604FF49473A3603C4BE360A0
S1134620FDF772FD39463046FFF75EFF029BEB61F2
S1134630049B2B62069BEB60039B384C85F833305C
S113464085F83430C5F800B0C5F808A0C5F8708006
S1134650B8F1000F49D1324BD3F800A001F0E4FCCB
S11346602268511E0C4641464346EAFB004120465F
S113467002F0F0FF079B6B600023C5E92633C5F801
S1134680A03005996867AE6105F18000EF63A5F875
S11346904090FEF7B5FF284600F0CDFEFCF7D5FDAF
S11346A0044695F83300FFF757FA2846FEF736F824
S11346B02846FFF76BFE1B4A1388013313801A4BFD
S11346C01B78012B20461AD009B0BDE8F04FFCF747
S11346D0C2BD19F0020F8BD000231A4602E046F83F
S11346E023200133BB42FAD182E701F09DFC22680A
S11346F00023511E0C461946E8FB0041B7E7FCF7BE
S1134700AAFD09B0BDE8F04FFEF716B97B820000A0
S11347100A8300009C7E0000A4350020C8350020D8
S1134720383A0020543B0020343A002070B5044647
S11347300D4694F83230072B08D8013B062B0BD8D2
S1134740DFE803F01F22221F1F222200FF2B1AD0B2
S1134750BDE87040FDF7D8BC2046FEF77BF828463C
S113476084F83350FFF7F8F9264B1B68A342204620
S113477003D1BDE87040FDF7B5BFBDE87040FDF75B
S1134780CDBF84F8335070BD94F8303094F8336062
S113479084F83350013B072BDAD801A252F823F0F6
S11347A0C14700008747000051470000CB47000085
S11347B0C1470000C147000087470000C14700000F
S11347C02046BDE87040FDF7C3BD2046FDF7C0FD9F
S11347D0E36A5C6AB54294F8333002D2AB42A8D89B
S11347E0D1E7B342A5D12046FFF798F894F83430C6
S11347F0984228BF184694F83330C5B2AB4298D1DA
S1134800C1E700BF443B00202DE9F04104460D46BA
S113481009B9FDF779FCFCF721FD48B120232B7081
S1134820564B6B604FF4DB73AB60554BEB60FEE7AC
S1134830544B1B78012B0AD002232B704F4B6B6017
S11348404FF4DD73AB604E4BEB60BDE8F0812CB9E7
S1134850FCF7FBFC4C4B1C68FCF7FDFCFCF7F5FC7F
S113486094F83230072B804608D8013B062B0DD82C
S1134870DFE803F04935350F49353500FF2B74D097
S1134880FCF7E9FCBDE8F041FDF73EBC2046FDF72E
S1134890E1FFA36B13B12046FFF71EF904F180007A
S11348A0FEF796FE204600F0C7FD2046FFF77EFD8A
S11348B0364A1388013B1380FF2384F83230404684
S11348C0FCF7C9FC00232B702C4B6B6040F23323A4
S11348D0AB602B4BEB60BDE8F041FEF72DB894F8CC
S11348E03030082B3ED8DFE803F00805083D1705F3
S11348F0050805002046FDF710FD94F8323003F05A
S1134900FB03032BC5D104F1540001F0C7FA0028BE
S1134910BFD0FDF7F9FBBCE7E36A5E6A204696F870
S11349203370FDF7FAFC96F8333096F834209A4247
S11349300CD094F833209A4208D13046FEF7EEFFAB
S113494096F83410814228BF0146CFB2002384F880
S1134950303096F83330BB42CFD039463046FFF77B
S1134960E5FECAE7FDF7D0FBC7E7FCF774FC1F239D
S11349702B70024B6B6040F2092363E77B820000DB
S113498000830000343A0020443B0020543B0020C4
S11349901FB5054B186800F050FD69460020FFF76D
S11349A033FF05B05DF804FB443B00200023037093
S11349B0044B436041238360034BC360034B18687B
S11349C0704700BF24830000A1830000C835002085
S11349D02DE9F04F054685B0884614460AB9FDF71F
S11349E093FBFCF73BFC6C4F6C4E30B120232370DF
S11349F07023C4E902366760FEE7FCF739FC30B186
S1134A001F2323707323C4E902366760FEE7644BF7
S1134A1093F80090B9F1010F08D002232370676066
S1134A207723C4E9023605B0BDE8F08F5D4B93F8F7
S1134A3000A0BAF1000F04D02D23237067607C23FB
S1134A40EFE7B8F1000F2FD0B8F1020F2CD0B8F176
S1134A50080F00F09680082323708123C4E90236EE
S1134A606760FEE701F0D4FA4F4B1968A0FB01819F
S1134A70029101F0D9FA534602460299404602F0E7
S1134A80E9FD4A4B1B6893F84C20CAB11A6D1544D2
S1134A901D652D1A25EAE575454A116821B11A6D7F
S1134AA091429CBF521A1A65002D49D0404B1B6895
S1134AB05BB1AB4209D81E2323706760A923B0E71A
S1134AC02844186583F84C90E6E701F0ADFA364BBC
S1134AD002901A680392FCF7B8FB039A0299DFF874
S1134AE0CCA04FF000098046CC46501EE5FB010CDB
S1134AF04B46614602F0AEFDDAF800B02D4A01469D
S1134B00CDE900995B460BF1540001F025FA01252B
S1134B1030B14046FCF79FFB25706760B92380E7FE
S1134B20DAF8000080F83250FDF794FE4046FCF7B6
S1134B3092FBFDF701FF002323706760D22370E727
S1134B40FCF783FB1C4B1D491A784FF00C0C02EB4D
S1134B5042030CFB02F201EB020C01EB83038958C4
S1134B60DCF804209142054606D1FCF774FB0023CF
S1134B7023706760C82354E71846FDF754FE28469F
S1134B80D5E7002D7FF46EAF8623C4E9023684F89E
S1134B9000806760FEE700BF248300009783000065
S1134BA0343A0020353A0020C8350020443B002028
S1134BB0EC350020C12B00002A37002034370020B8
S1134BC000B589B004AB00220093044803AB11463E
S1134BD0FEF720FD09B05DF804FB00BF643B002034
S1134BE01FB504486A460021FEF7A6FE05B05DF82D
S1134BF004FB00BF643B00202DE9F84FDDE90AB453
S1134C0005468A46914698460CB9FDF77DFAFCF7AD
S1134C1025FB334F334E38B1202323704FF4C07338
S1134C20C4E902366760FEE73DB90A23237040F207
S1134C308313C4E902366760FEE72B682A4A93426D
S1134C4007D00C2323704FF4C373C4E902366760A2
S1134C50FEE7264B1B78012B08D0022323704FF468
S1134C60C573C4E902366760BDE8F88FAB8C012BCD
S1134C7017D0022B20D1B9F1000F07D108232370DC
S1134C8040F29113C4E902366760FEE7B8F1000F01
S1134C9014D10A2323704FF4CA73C4E9023667603F
S1134CA0FEE7BAF1000F09D1082323704FF4CC7347
S1134CB0C4E902366760FEE7FDF726FAFFF780FFD6
S1134CC00023C5E907A9C5E9028B237040F2A713A5
S1134CD0C4E902366760BDE8F84FFFF781BF00BF43
S1134CE0B58300005D840000544D5220343A002006
S1134CF070B505460C4609B9FDF706FAFCF7AEFA9D
S1134D0048B1202323703C4B636040F2C913A36075
S1134D103A4BE360FEE74DB90A232370364B6360D8
S1134D204FF4E673A360354BE360FEE72A68344B27
S1134D309A4209D00C2323702F4B636040F2CF13A7
S1134D40A3602E4BE360FEE72E4B1E78012E0BD0A2
S1134D5002232370284B636040F2D313A360274BD4
S1134D60E3600646304670BDFFF72AFF95F826300B
S1134D70032B3CD8DFE803F030120212EB6903B9CD
S1134D802B6AAB61002323701B4B636040F2E11379
S1134D90A3601A4BE360FFF723FFE3E7022385F8E0
S1134DA02630EB6903B92B6A1749AB610B68174AC4
S1134DB02B6153B96B610D600123138000232370B1
S1134DC00D4B636040F2FD13E2E7002068615D6112
S1134DD013880D600133F0E713222270064A6260E3
S1134DE040F20222A260054AE2601E46D3E7FDF7C4
S1134DF08BF90026CFE700BFB58300005284000082
S1134E00544D5220343A0020603B00205C3B00208B
S1134E10044A002383621368C3620BB910607047AD
S1134E209862FBE7583B00202DE9F74F0F9CBDF833
S1134E3030900191054690469A460CB9FDF764F905
S1134E40FCF70CFA364F374E30B17723C4E90236FB
S1134E50202222706760FEE735B97A23C4E902365E
S1134E600A2222706760FEE7B9F1010F15D0B9F18B
S1134E70020F1CD1BAF1000F06D17F23C4E9023618
S1134E80082222706760FEE70D9BBBB98223C4E948
S1134E9002360A2222706760FEE7B8F1000F0DD1D6
S1134EA08623C4E90236082222706760FEE78A235B
S1134EB0C4E90236082222706760FEE7DFF870B0AA
S1134EC09BF80020012A01D1FFF77AFE302200214D
S1134ED0284602F08BFD0122019B85F82620124A08
S1134EE012492A606B600E9A0D9BEA60C5E9078A35
S1134EF0A5F82490AB602846FFF78AFF0A880132A0
S1134F000A809BF80020012A01D1FFF769FE0022E4
S1134F10AD23C4E902362270676003B0BDE8F08FA8
S1134F20B583000066840000544D5220943B002059
S1134F30343A002010B51F4A002313601E4A044669
S1134F4013601E4A8AB01380FFF730FD2378002BCC
S1134F502CD11B4B1B68002B2AD0B0FBF3F3194A4E
S1134F6019491360194A1A4813601A4A0023136036
S1134F70194A13602246FEF77BFC2378B3B90B224F
S1134F80CDE90632CDE90433144A08941268039239
S1134F90134A144912680292134A1448126801927F
S1134FA0134A12780092134AFFF7A8FA0AB010BD08
S1134FB00A23D2E7583B0020603B00205C3B0020E2
S1134FC0D0350020903C002027840000943C002031
S1134FD0643B00208C3C0020883C0020E03500200D
S1134FE0DC35002034840000D8350020983B0020B4
S1134FF0CC350020915100000C4A036911688142AC
S113500004D1136033B100225A6103E04269136191
S1135010002BF9D1064A012380F826300023C0E989
S113502004331388013B1380704700BF603B0020AA
S11350305C3B00202DE9F04705460F4692461C468E
S11350400BB9FDF761F8FCF709F948B12023237087
S11350504B4B63604FF41E73A3604A4BE360FEE75F
S11350604DB90A232370464B636040F27B23A3604F
S1135070444BE360FEE72A68434B9A4209D00C2371
S113508023703F4B636040F27E23A3603D4BE3609B
S1135090FEE73E4B1E78012E0CD002232370384BC2
S11350A0636040F28223A360364BE36006463046D9
S11350B0BDE8F087FFF784FD95F82630032B5AD816
S11350C0DFE803F04E4402440023DFF8B490DFF835
S11350D0B4802370032F40F28A23C4F80490A360A1
S11350E0C4F80C8006D0042F17D027BB2846FFF73E
S11350F083FF06E02846FFF77FFFAB6823B1E9682A
S11351009847FFF76DFDD2E708232370C4F8049095
S113511040F29223C4E90238F3E72846FFF76CFF14
S1135120AB680BB15146EBE708232370C4F8049035
S11351304FF42773EEE7FFF753FD0823237040F283
S1135140A623C4E90238C4F80490FEE71F232370A1
S11351500B4B636040F2AD23A3600A4BE360D0E7DE
S113516013222270064A626040F2B222A260054A0B
S1135170E2601E46C5E7FCF7C7FF0026C1E700BF93
S1135180B583000048840000544D5220343A002076
S11351902DE9FF471F4F204EDFF8848038686A46A8
S11351A00021FFF715FCFFF70BFD00F053F83368FF
S11351B0D8F800400133054633604FF0030954B971
S11351C000F048F8154B1A68401B824238BF18603B
S11351D0FFF706FDE2E76846FCF7A0FFA369D4F8F1
S11351E010A0013BA3614BB9A38C022B0BD1236A02
S11351F0A361A36813B1E168204698476846FDF7A8
S11352006DFC5446DBE72046FFF7F6FE84F8269053
S1135210EFE700BF903C00208C3C0020883C00203D
S1135220603B002008B5FBF757F94FF0E022D2F8B5
S1135230FC3D43F08073C2F8FC3D054B00225A60EC
S11352401A6842F001021A60BDE80840FCF75EBF2C
S1135250001000E0014B5868704700BF001000E0E8
S1135260B0FA80F0704790FAA0F0B0FA80F070477E
S113527090FAA0F0704700BF72B64EF62250CEF2FC
S1135280000040F2FF01C0F200010170002080F331
S1135290098843F69840C2F20000016881F3088847
S11352A000F006F943F22A70C2F2000043F22B71B7
S11352B0C2F200010A78027043F64430C2F20000E0
S11352C043F64831C2F200010A680260106880F3B4
S11352D00988EFF3148040F0020020F0040080F30A
S11352E01488BFF36F8FBDE8F04F0FBCBDE80050CA
S11352F006BC62B6084737484FF0805101607047DA
S113530034484FF0805101607047602080F3118869
S113531043F64432C2F200021168002901BF2E4A4A
S1135320136823F0010313600ED0EFF309801EF01D
S1135330100F08BF20ED108A20E9F04F43F64435E2
S1135340C2F2000529680860744600F0B1F843F61B
S11353504431C2F2000143F64830C2F2000003684F
S11353600B6043F22A72C2F2000243F22B71C2F2C2
S113537000010878107044F0040E002B0AD018685D
S1135380B0E8F04F1EF0100F08BFB0EC108A80F3A5
S113539009881BE043F69841C2F200010868A0F1B5
S11353A01C0080F3088840F20001C0F20011C161C2
S11353B045F2DD31C0F20001816144F69111C0F281
S11353C0000141614FF6F97ECFF6FF7E002080F3A5
S11353D01188704704ED00E034EF00E000BFFDE702
S11353E00B4B1A680B4B02F180421B68013A03EB2A
S11353F08203094A23F0070313604FF0E023D3F834
S1135400343F03F04043B3F1404F00D0FEE7704710
S11354109435002090350020983C002007B5FBF718
S113542014FF0190FCF770FE019803B05DF804EBE3
S1135430FBF711BF704770477047704710B5029C67
S113544002EB840222F007024FF0807442E9020466
S1135450164842F80C0C4FF012344FF0033042E976
S113546005044FF0023042E907306FF0020C4FF0B0
S1135470113342E90A3C42F8201C4FF009334FF043
S1135480103142E90C314FF008304FF0073342E954
S11354900E304FF006344FF00533104642E9103415
S11354A04FF0043340F8443D10BD00BF9149000063
S11354B010B50D4C206848B10C4B1B7833B1436FC9
S11354C00BB9FDF70DFA2068FDF7EEF9084C2368D7
S11354D04BB10020FEF7F4FF012804D02068BDE89A
S11354E01040FFF79BBF10BD483B00203C3A002012
S11354F0443B00204111064A012300F01F0003FA37
S113550000F052F82130184342F82100704700BFE0
S1135510A83C0020044B1B681BB1044B0360002013
S113552070470120704700BFB84400209C3C002015
S113553070B50D4C246884B10C4C26888518B5428E
S11355400DDC6688CD18B54209DC52B14BB1A080A0
S1135550E18022816381002070BD0120FCE70420EA
S1135560FAE70520F8E700BFB84400209C3C00207F
S11355702DE9F74F0093444B1B68002B7FD0DFF8D5
S113558010910D9FB9F80630B9F80A205D181A4435
S11355901FFA82FAADB24FF0010B1FB9384603B0BF
S11355A0BDE8F08FABB29A456BD9384AB9F80840D8
S11355B0B9F80430241A02EB0511009ABC4228BF42
S11355C03C46161E18BF012603447642072CA7EB5F
S11355D004079BB2F6B221D81C44BEB9A34217D229
S11355E0DE0803F007020BFA02F08A5D013322EAB7
S11355F000028A559BB2F1E7D80803F007020E5C5B
S11356000BFA02F2324301330A549BB2A342F3D39E
S11356102846FFF76FFF01350020BEE74FEAD30CA1
S113562001EBD30813F0070310D00BFA03F211F8BF
S11356300CE0D2B2501E52420EEA00003240104337
S1135640083B01F80C0008F101081C44E20809D0E9
S113565031464046019202F0C9F914F00704019A58
S1135660D6D090440BFA04F498F80030E4B26242C5
S1135670013C134034401C4388F80040C8E701272C
S11356808CE704278AE700BFB8440020B83C002018
S11356909C3C002037B5124D2B68FBB9FAF7C8FEC5
S11356A0044618B10124204603B030BDFAF7B4FE15
S11356B028600028F6D0028841880A4B1A801A8193
S11356C04A4359809C80DC8059812046CDE90042C0
S11356D0234622462146FFF74BFFE4E70024E2E796
S11356E0B84400209C3C00202DE9F8431B4FDFF810
S11356F074803C68DFF86890002301251A46D8F8C6
S113570000004188D6188E4207D3FBB913481022F3
S1135710002102F06BF9002012E0E10708D5013303
S1135720D118C9060ABF57F8254064080135E6E7D1
S113573053B109EB0211FAF715FE034610B1072025
S1135740BDE8F883721CEBE70132E9E7044901EB99
S11357500211FAF707FE0028D8D0F0E7A83C002091
S1135760B83C0020B844002030B1026800215388BE
S113577012880846FFF7DCBE0520704737B504469B
S1135780A8B14568FFF7F0FF014668B9226813899C
S1135790528953430193EBB20093C5F30742C5F317
S11357A00723FFF7E5FE0146084603B030BD052197
S11357B0FAE710B470B1836942698489018A0133BC
S11357C00132121B5B1A20469BB25DF8044B92B265
S11357D0FFF7AEBE05205DF8044B7047F0B4D0B1BE
S11357E0C9B10E688C68A64218DA4D68CA68954239
S11357F014DA002E14DB002D12DB01680F88BC4282
S11358000EDA49888A420BDAC0E90365C0E9054229
S1135810F0BCFFF7CEBF0520F0BC70470420FBE7C7
S11358200320F9E730B5054687B000B300226FF0D6
S11358307F43C0E9012301A8FFF76CFE044698B931
S1135840019B2B601A885B88CDE90200013A013B79
S113585002A9284604920593FFF7C0FF044618B92D
S11358600449284600F0EEF9204607B030BD05246F
S1135870FAE700BFA487000010B5040C0C70010AFD
S11358801170187010BD73B50D461646044690B1DC
S11358900C3000F0F9F880B1A26801230193D3B26F
S11358A00093B1B2C2F30723A8B2C2F30742FFF7D1
S11358B05FFE02B070BD0520FBE70120F9E773B578
S11358C00D4616461C4688B10C3000F0DDF878B160
S11358D001230193E3B20093C4F30742C4F3072303
S11358E0B1B2A8B2FFF744FE02B070BD0520FBE7D9
S11358F00120F9E7F0B5164685B00546002840D0EA
S11359000269B2423FDC8269B2423CDB9942C2BFC7
S11359100A461946134642698A4234DBC4689C42EB
S113592031DC8C42B8BF0C469A42D4BFC4EB0207A8
S1135930C4EB03070137A0B20123BAB2B1B2FFF737
S1135940F7FD0446D0B9A8680DF10F030DF10E025E
S11359500DF10D01FFF790FF9DF80F3000932146E4
S113596020469DF80E309DF80D200197FFF700FEAC
S1135970044618B92846FFF71CFF0446204605B024
S1135980F0BD0524FAE70124F8E72DE9F04F0646B7
S1135990C3B01446002A75D08B1E3E2B72D8904695
S11359A0012358F8042F154658F833008242A8BF43
S11359B002469A46854203F10103B8BF054699425F
S11359C0F2D133699A42B8BF1A46B3699D42A8BF5F
S11359D01D46AA421EDB002043B0BDE8F08F1846E6
S11359E058F830E04FEAC10C04EBC10172454B6832
S11359F014DD9A4214DD824500F101030146EED123
S1135A000DF108094FF0000BBB4509F108092DD32E
S1135A100132DEE7002751463846E1E79A42EADDE3
S1135A20A2EB0E01A3EB0E0307EE101A07EE903A59
S1135A30B8EEC77AF8EEE77A54F8301054F80C3020
S1135A40C7EE276A5B1A07EE903AB8EEE77A07EEDC
S1135A50901AF8EEE77A46EE877A02A9FDEEE77A25
S1135A6017EE903A41F827300137C4E759F8043C5F
S1135A7059F8081C01923046FFF73CFF0BF1020B6A
S1135A80019AC1E70520A7E778B103688B420BDCD4
S1135A9083688B4208DB4368934205DCC06890420C
S1135AA0B4BF002001207047002070472DE9F04F5B
S1135AB085B090469DF8382002920446002800F0F4
S1135AC08180A1F120025E2A7ED890F82820022A43
S1135AD08DB21AD13A291AD020291AD0303DADB24C
S1135AE0228CAA4270D9E26901924FF0000B1A4647
S1135AF05E4694F825101FFA8BF399420BD8B6FA38
S1135B0086F0400905B0BDE8F08F203DE7E70A259F
S1135B10E6E70B25E4E794F82230012B05D0022BAD
S1135B201DD0019B53F825A002E0019B13F805A0AA
S1135B304FF0000994F824301FFA89F7BB4212D8B9
S1135B4094F8243094F827100B449F4229DB94F8EE
S1135B5023301D44ADB20BF1010B0132C9E7019BA7
S1135B6033F815A0E4E71AF0010F0FD008EB090190
S1135B7020460392FFF787FE0128C3D8039A00B991
S1135B8001364FEA5A0A09F10109D3E7029B002BB7
S1135B90F7D06368039208EB09012046FFF78FFEF4
S1135BA0EAE7029B5BB16368039208EB07012046B6
S1135BB0FFF785FE0128A5D8039A00B901360137FD
S1135BC0BFB2BDE705209DE702209BE72DE9F74F13
S1135BD00C9F9DF834A09846054678B371B390F8AD
S1135BE028306BB30C468E18C3464FF00009B442FC
S1135BF005D1B9FA89F0400903B0BDE8F08F14F873
S1135C00011B0A2907D195F825303B4495F82670E5
S1135C10C3461F44EBE7CDF800A03B465A4628464E
S1135C20FFF744FF0128E7D808B909F1010995F8FD
S1135C30243095F8272013449B44D8E70520DBE75C
S1135C400220D9E708B520B11C30102219B901F09F
S1135C50CDFE052002E001F0BBFE002008BD2DE9C9
S1135C60F3470546084692461C46DDE90A79019148
S1135C709DF8308001F0C2FE95F8243095F8252077
S1135C80019900FB03F695F82630012C13440AFB16
S1135C9003920CD0022C0FD00023CDE90A283B44F8
S1135CA00246284602B0BDE8F047FFF78FBF2B68D5
S1135CB01B889B1B5B08F0E72B681C88A31BECE785
S1135CC030B50F4C41612368ABB92060836011E0AB
S1135CD0891A9A6841611D462AB113465A698A4253
S1135CE0F6D955B11A46A8601346836013B15A69B0
