S013000046696E616C50726F6A6563742E73333720
S113000000100020510400004D0400004D040000C5
S11300104D0400004D0400004D0400004D04000098
S11300204D0400004D0400004D0400004D04000088
S11300304D0400004D040000EF4D00004D0400008D
S11300404D0400004D0400004D0400004D04000068
S11300504D0400004D0400004D0400004D04000058
S11300604D0400004D0400009D6800004D04000094
S11300704D0400004D0400004D0400004D04000038
S11300804D0400004D040000256900004D040000EB
S11300904D0400004D0400004D0400004D04000018
S11300A04D0400004D0400004D0400004D04000008
S11300B04D0400004D040000D15E00004D0400001A
S11300C04D0400004D0400004D0400004D040000E8
S11300D04D0400004D0400004D0400004D040000D8
S11300E04D0400004D0400004D0400004D040000C8
S11300F04D0400004D0400004D0400004D040000B8
S11301004D0400004D0400004D04000010B5054CE2
S1130110237833B9044B13B10448AFF300800123AF
S1130120237010BD38110020000000005C8D000019
S113013008B5034B1BB103490348AFF3008008BD66
S1130140000000003C1100205C8D0000A3F5803A03
S1130150704700BF174B002B08BF134B9D46FFF79A
S1130160F5FF00218B460F461348144A121A06F075
S1130170A3FE0E4B002B00D098470D4B002B00D054
S113018098470020002104000D000D48002802D0EB
S11301900C48AFF3008006F055FE2000290006F05D
S11301A003FC06F03BFE00BF000008000000000056
S11301B0000000000010002038110020809700206B
S11301C0000000000000000008B5042201230F21F4
S11301D0032001F015FD002008BD00002DE9F041C9
S11301E01A4E0446884617460FCE86B06D460FC594
S11301F096E8030085E8030015482568012100F00E
S113020095FA6068012100F091FA617B207B00235C
S1130210042201F0F5FC617A207A0023042201F023
S1130220EFFC28466946CDF80880ADF8107001F05F
S113023029FE237CA27B1B0643EA0223AB67002032
S11302400A236B6706B0BDE8F08100BFCC770000DD
S113025000350A0070B506680C468D18AC4201D111
S1130260002070BD14F8011B304601F065FEF5E76F
S1130270026813699B06FCD57047000013B5044659
S113028005F0EAFC247B00230122CDE9003264005E
S1130290034AB0FBF4F1034805F040FC02B010BD82
S11302A0A902000054110020024B4FF40052C3F87D
S11302B0A820704700A0004073B50F4B0F4E4FF4B9
S11302C08045C3F89C500446407B05F025FE04237A
S11302D002220DF106013046ADF80630FFF7BAFFF1
S11302E03046FFF7C5FFA07B05F016FE044B002047
S11302F0C3F89C5002B070BD00A00046001000205E
S113030000A0004438B5044601211248124D00F003
S11303100DFAA16811480022FFF760FF00230422B0
S11303200E21032001F06CFC002304220D21032084
S113033001F066FC94E80F0085E80F00084B0122E9
S113034020461A70FFF79AFF2046FFF7B5FF0020FA
S113035038BD00BF00350A007411002000100020D1
S1130360701100202DE9F74F0688DFF8A4B09846F5
S113037003795E43254B14464FF48042C3F89C2016
S11303800134A4B20546407B0F4605F0C5FD2302A7
S113039043F001031E48ADF8063002220DF10601B8
S11303A00134FFF757FF2402F610A4B24FF00009FE
S11303B008F1FF3AC1450ED11548FFF759FFA87B54
S11303C005F0AAFD134B4FF480420020C3F89C2093
S11303D003B0BDE8F08F394632465846FFF73AFF7E
S11303E0CA4514BF44F0FF034FF6FF7302220DF118
S11303F00601584604F58074ADF806303744FFF71B
S113040029FF09F10109A4B2D4E700BF00A0004606
S11304100010002000A00044034B04481B78002B6C
S113042008BF0020704700BF701100207411002025
S11304301FB5054B0FCB6C4684E80F002046FFF731
S113044061FF04B010BD00BFE4770000FEE70000C8
S113045008B500F059F8064B0649074A8B4201D308
S1130460FFF778FE52F8040B43F8040BF6E700BFDD
S11304700010002038110020648D000000487047EF
S1130480005A6202104AD2F8943003F00703023B88
S1130490032B13D8DFE803F00C14020E0B4B1B687C
S11304A0D2F80001C0F304200130B3FBF0F0704730
S11304B0074BF4E7074B1B685B08F1E7054BEEE7D6
S11304C04FF40043ECE700BF00400E402010002032
S11304D0181000201C10002008B5FFF7D3FF054BAF
S11304E0D3F80831C3F308230133B0FBF3F0024B14
S11304F0186008BD00400E4014100020014B18681D
S1130500704700BF18100020044B054A9A60D3F8C6
S1130510882042F47002C3F88820704700ED00E0A0
S1130520000000004FF4004070474FF47A707047A9
S1130530014B1868704700BF2010002005490A6865
S11305401318054883428CBF4FF0FF320B601046EE
S1130550704700BF2410002000000420B0F1804F39
S113056038B504460D4606D01D4B984203D01D48AD
S1130570A22100F03BF82B693F2B03D91948B6217F
S113058000F034F8EB683F2B03D91648B72100F08C
S11305902DF86B683F2B03D91248B82100F026F8D8
S11305A06B682A781B0643EAC27343F40043236052
S11305B0EA682B7A43EA0243A3622A696B7A43EA24
S11305C00243E362AA7A084B43EA0273636004F1CC
S11305D0424404F5801464012B7D236038BD00BFC0
S11305E000040040F477000000FD0004FEE7000072
S11305F00C4B984210D90C4B984210D9022201237B
S11306000A490B640A49D1F8003123F0807343EAA4
S11306100263C1F80031704700221346F0E701225B
S1130620FBE700BF0048E8010090D0030000C84386
S113063000400E4038B5114B5B68114B00221C463C
S1130640C9B21D798D4202D11D68854212D2013290
S1130650052A03F10803F4D10A4841F23A41FFF7AD
S1130660C5FF032205494B6823F0407343EA026344
S11306704B6038BD04EBC2025279F3E700000E4030
S11306801C790000247800001F2810B5044604D902
S1130690034840F22F11FFF7A9FF0120A04010BD2D
S11306A08778000038B5074C41F67133256C236414
S11306B0FFF7E4FE0021FFF7BDFF0DB10023236423
S11306C038BD00BF00000E40044BDB6B5B0604D456
S11306D0034AD2F8C830002BFBD1704700300E40DB
S11306E00000C64308B5FFF7EFFF024B5868C0F39C
S11306F0014008BD00300E40044BD3F84421D2071A
S113070003D4D3F840211042FBD1704700400E407F
S113071038B5054C41F67133256C2364FFF78AFF25
S11307200DB10023236438BD00000E4038B5C0F37A
S11307300323013B092B24D8DFE803F02A2D2323CC
S1130740051619231C20154C0023C0F3043513B1DE
S11307501846FFF7D1FF04F1424404F5801405EB79
S1130760C404A400216038BD0D4C0123EDE70D4CF9
S11307701023EAE70C4C4FF48033E6E70B4C0023DC
S1130780E3E7BDE838400A4841F6D711FFF72EBF2A
S1130790084C0023D9E7084C0023D6E7B0400E40AC
S11307A0E0400E40E8400E40F0400E4050410E4004
S11307B02478000000400E40C0400E4008B5C0F34D
S11307C00313013B092B60D8DFE803F0050B0F1975
S11307D05F5F1F233C532E4BD3F80001C0F304206A
S11307E008BD2B4BD3F81401F8E7294BD3F80001CB
S11307F0C0F300600130FFF747FF0138F0E7244BF6
S1130800D3F80C01C0F30820EAE7214BD3F8080120
S1130810F8E7204B984209D01F4B98420CD041F680
S11308207B311E48FFF7E2FE0020D9E7184BD3F8CE
S1130830200100F00F00DEE7154BD3F82001C0F3D0
S11308400110D8E7164B984208D003F5B01303F50E
S11308508053984206D041F69F31E2E70C4BD3F81F
S11308602801ECE70A4BD3F82801C0F30120043037
S1130870C1E70C4B984205D1054BD3F8300100F089
S11308800300ADE741F6AE31CBE741F6D331C8E71B
S113089000400E408006160080162E0024780000CA
S11308A090171A00A009140008B5FFF787FF01305C
S11308B008BD000000F00F00013808B5072844D82F
S11308C0DFE800F0040F1943232D4335264BD3F8FA
S11308D0943003F00703023B052B3DD8234AD05C38
S11308E008BD214BD3F8803003F00703013B032BF1
S11308F034D81F4AF3E71C4BD3F8843003F00703C2
S1130900013B032B2AD81B4AE9E7174BD3F888305D
S113091003F00703013B032B20D8174ADFE7124BF0
S11309201B6F13F0010F0CBF07200920D8E70E4BF3
S1130930D3F85C3103F03003202B11D0302B11D0CD
S1130940102B14BF01200720CAE70C4841F6277179
S1130950FFF74CFE0020C3E70520C1E70120BFE7F5
S11309600420BDE70820BBE700400E40ED780000FE
S1130970F3780000F7780000F37800002478000092
S113098038B52C4B984205460AD02B4B984207D0D9
S11309902A4B984204D02A4841F23A51FFF726FEE6
S11309A02846FFF787FF234B9D42044611D0224B74
S11309B09D4212D0214B9D4213D1224BD3F880404B
S11309C004F00704042C2DD8DFE804F02A11151DC7
S11309D019001C4BD3F88440F2E71A4BD3F8884033
S11309E0EEE7174841F26951FFF700FEEAE7BDE878
S11309F03840FFF797BDBDE83840FFF799BDBDE823
S1130A003840FFF792BDFFF73DFD0E4B0446D3F887
S1130A100001C0F300600130FFF736FEB4FBF0F4D0
S1130A20204638BD064841F2BB51FFF7DFFD0024E4
S1130A30F6E700BF030020000500240002001E00AA
S1130A402478000000400E4038B500F47813B3F564
S1130A50B01F05467FD02ED8B3F5402F69D011D8EA
S1130A60B3F5802F54D006D843B1B3F5003F5AD024
S1130A7041F607311AE0B3F5202FF9D1BDE838402B
S1130A80FFF700BDB3F5801F00F0A280B3F5A01FEF
S1130A9057D0B3F5602FEBD15B48FFF70BFF072866
S1130AA000F096800928E9D041F2FC215748FFF76D
S1130AB09DFD002036E0B3F5381F5AD013D8B3F5A6
S1130AC0001F5FD00AD8B3F5D01F5DD0B3F5F01F77
S1130AD0CED14F48BDE83840FFF752BFB3F5101FE1
S1130AE0C6D14C48F6E7B3F5481F57D0B3F5781F85
S1130AF000F08280B3F5401FBAD14748FFF740FFAA
S1130B00464B0446D3F82801C0F3012004302BE0FF
S1130B10FFF7B8FC414BD3F80C31C3F3082301337E
S1130B20B0FBF3F038BDFFF7ADFC3C4BD3F8083114
S1130B30F3E7FFF7A7FC394BD3F81431C3F30423CD
S1130B40EDE73448FFF71CFF344BD3F8303103F0A2
S1130B500303D840E6E72E48FFF712FF2F4B044665
S1130B60D3F8200100F00F00FFF78EFDB4FBF0F086
S1130B70D8E72748FFF704FF284BD3F82031C3F305
S1130B800113E6E72448A5E72348FFF7F9FE234BC2
S1130B900446D3F82801C0F30110E5E72048FFF725
S1130BA089FE0138072824D801A353F820F000BF98
S1130BB0B30A0000F30B0000F30B0000D70B000096
S1130BC0F30B0000F30B0000D10B0000DF0B00005F
S1130BD0144B1868A6E7BDE83840FFF78FBCFFF751
S1130BE051FC0E4BD3F80031C3F3042303FB000084
S1130BF098E741F2333159E7FFF744FC04462846AD
S1130C00FFF752FEB2E700BF06000E002478000092
S1130C1002001E00050024000300200000400E40D6
S1130C20B800320028100020013838B50C460328DB
S1130C3064D8DFE800F002441A2FB1F5007F04D332
S1130C40324842F22571FFF7D1FC314AC4F308045B
S1130C50D2F86838002BFBD12E4A136A23F4FF73B1
S1130C6023F001032343136238BD7F2904D92748A5
S1130C7042F23271FFF7BAFC254A04F07F01D2F840
S1130C806038002BFBD1234B1C6924F07F040C43F8
S1130C901C61E9E77F2904D91C4842F24D71FFF732
S1130CA0A5FC1B4A04F07F01D2F86438002BFBD169
S1130CB0184B9C6924F07F040C439C61D4E7154DC8
S1130CC0D5F890305B0704D5104842F25D71FFF708
S1130CD08DFC6B6A23F0300343F010036B62C4F3A2
S1130CE0C311CB1C2A6B0C490F2B01EA020128BF4C
S1130CF00F23214341EA03712963B5E7BDE8384076
S1130D00024842F27771FFF771BC00BF24780000FB
S1130D100020C84300400E4000F8FF0F022810B521
S1130D200C4604D0144842F28F71FFF75FFC134B5A
S1130D305B6A13F0300F1BD0202C16D0302C17D048
S1130D40B4B10D4842F2AA71FFF750FC0C4B0B4AA8
S1130D50D2F8901033EA0101FAD15B024ABFD2F80B
S1130D60A0000120C0F3802010BD4FF40003EEE783
S1130D704FF44003EBE700BF2478000000400E402E
S1130D80FF33E107022808B50CD129B1094B4FF410
S1130D908060C3F8A80059664AB1BDE80840022043
S1130DA0FFF7BCBF044842F2E071FFF71FFC0120CB
S1130DB008BD00BF00400E402478000004282DE93F
S1130DC0F04704460F4691461FD83D4B3D4A13F861
S1130DD000A03D4B13F80080F1B93C4B33F81030C0
S1130DE01366012303FA08F8D2F8903013EA080FC7
S1130DF0FAD1B9F1000F5AD00125324A05FA0AF5A1
S1130E00D2F890302B42FBD151E0BDE8F047304896
S1130E1042F27461FFF7EABB2E4B022833F81060EC
S1130E2047D1536A13F0300F43D12B4BDB6B5A0578
S1130E3004D4274842F28361FFF7D8FB214A536A5E
S1130E40DB0705D5536A23F0300343F010035362E4
S1130E50224D1C4BA8441E664FEA8808D8F800307F
S1130E60002BFBD0B9F1000F21D05544AD002B6805
S1130E70002BFCD0022C1AD1CFB1124F796A11F099
S1130E80010118D0012220212046FFF77BFFD7F86B
S1130E909C40012200210220FFF790FFC4F30A01C5
S1130EA00220FFF7C1FE3E662B68002BFCD0BDE894
S1130EB0F0870027CCE72046FFF730FFE7E700BFC5
S1130EC0FB78000000400E4000790000107900001B
S1130ED0247800000679000000300E408004F210EF
S1130EE0112838B50C460FD000F00F000138072840
S1130EF000F2EB80DFE810F0240066009A00E900BD
S1130F007D00B400E900C200042912D1FFF7F6FA0B
S1130F100546A8B10021284600F056FA023C0A2CE6
S1130F2045D8DFE804F04A473137444444443D0F90
S1130F304D00052904D1664B1D68664B9D42E9D8D6
S1130F400025EBE70320052401221146FFF736FFB5
S1130F50FFF7A8FB0DB1FFF7B7FB5F4B5C67FFF72B
S1130F60BBFA0446FFF78EFAFFF742FBFFF7BAFB22
S1130F7001462046FFF7CCFB002D5DD12846012118
S1130F80BDE8384000F020BA5448FFF731FB022096
S1130F900446D9E75148FFF72BFB01240320D3E78C
S1130FA041F6E871BDE838404D48FFF71FBB41F6F4
S1130FB0ED71F7E701200324C6E700200424C3E70A
S1130FC00724C5E7062933D14548464D42F22C0192
S1130FD0FFF70CFB424842F23C01FFF707FBFFF727
S1130FE051FAFFF705FB404B0122C3F808260323FF
S1130FF021E006293D4DEDD0013C092C2BD801A35D
S113100053F824F05D1000003B100000491000006C
S11310105710000057100000DF0F000057100000A9
S1131020571000005710000035100000304DE3E762
S11310302C4DE1E704232B6038BD0122114600202A
S1131040FFF7BCFE0223F6E7012211461046FFF724
S1131050B5FE0123EFE742F26701A3E70023EAE7C5
S1131060072904D0092906D042F2F1019AE71A4B64
S113107000221A67E0E7184B0122FAE74C1E072CFE
S11310801ED8DFE804F0201D1D161D1D0F040322C9
S11310901149D1F85C3123F0300343EA0213C1F85B
S11310A05C31C9E7012211460420FFF787FE0122C3
S11310B0EEE7012211460220FFF780FE0222E7E755
S11310C042F24F116EE70022E2E742F2262169E77D
S11310D01C100020002D310100400E400148E801A1
S11310E02478000080400E400010C84388400E4021
S11310F084400E4010B504461120FFF7DBFB0428A2
S113110004D1274842F20F51FFF770FA012200215F
S11311100220FFF753FE63781BB9A3780BB9E37879
S113112023B11F4842F24B51FFF760FA237C012B95
S113113004D11B4842F25251FFF758FA194A217C54
S1131140536A23F00103022908BF43F001035362E9
S1131150154B2178C3F8A014637AA18843EAC1230C
S1131160D362136BA07A217A03F07F630343E08890
S113117043EAC02343EAC11303310F2928BF0F21D7
S113118043EA01731363A37B617B1B0143EA0133CD
S1131190E17B0B43217B43EA0143536310BD00BF52
S11311A02478000000400E400000C843EFF3108094
S11311B072B6704700B962B67047EFF311806023CE
S11311C083F31188704780F311887047034B586884
S11311D0C0F30800003818BF0120704700ED00E09C
S11311E0EFF31083DB0706D4EFF311805F2894BF7D
S11311F0002001207047012070470000034BD86B8A
S113120080F04000C0F38010704700BF00300E40F3
S113121038B542EA0323B3F5007F05460C463ED0B9
S113122019D8B3F5807F36D00AD883B3012B21D0E7
S11312301F4840F68E11FFF7D9F9002213461FE02C
S113124040F201129342F3D11A4BD3F824321A0E0E
S1131250C3F3074314E0B3F5407F24D040F20132D6
S1131260934210D040F201229342E1D1114BD3F8C2
S1131270283202E00F4BD3F82432C3F30722DBB247
S11312802B60226038BD0B4BD3F82832DFE7094BC3
S1131290D3F81C32F1E7074BD3F81C32D7E7054BE0
S11312A0D3F82032E9E7034BD3F82032CFE700BF6D
S11312B0447900000081E00F08B5FFF79FFF20B1DB
S11312C0024AD2F8C830002BFBD108BD0000C64347
S11312D01A4B022810B5D3F830320C4612D003282A
S11312E013D0012814BFDBB2C3F307231B0323F479
S11312F07042ECB95AB140F61D111148FFF776F966
S1131300002010BDC3F30743F0E71B0EEEE70D49C1
S1131310CA6E22F470421343CB660120F1E70949F7
S1131320D1F8EC2022F470421343C1F8EC30F4E716
S1131330002AF4D040F62911DFE700BF0081E00F56
S11313404479000000300E40F8B504460F46FFF71C
S113135055FF78B3FFF7B0FF174B5B68C3F3014346
S11313609C4227D0154BD3F80061FFF78BF8022C71
S113137005460FD1124BC6F3042606FB00069E4217
S113138004D9104840F23161FFF730F902212846B0
S1131390FFF7BEF9C4F1020210239340064A136119
S11313A00FB1FFF789FF2CB921462846BDE8F84064
S11313B0FFF7AEB9F8BD00BF00300E4000400E404C
S11313C0002D31014479000013B50246FFF716FFE2
S11313D0C8B152B90D4B0191D3F80041FFF752F84F
S11313E0C4F30422019902FB0002094B1B7843B1A8
S11313F0084B9A4205D8022002B0BDE81040FFF71E
S1131400A3BF0020F8E702B010BD00BF00400E40AB
S11314108A110020002D3101094942780B6823F418
S1131420407343EA0223022A0B6008D1054B5B6A2E
S11314309B0004D5044840F26D61FFF7D7B87047AC
S113144000300E4000400E4044790000224B4AF622
S1131450E85210B5596B5A639A6FD207FCD41B6CCF
S113146013F003031EBF1D4A0124C2F8B44A834289
S113147004D110B9194BC3F8B40A10BD032B00D022
S11314809BB9431E012B10D8134A4FF40023D36297
S1131490936FDB07FCD4136C23F0030343F00103C5
S11314A013640D4A536A1C03FCD50B4B9A6FD20785
S11314B0FCD41A6C22F0030202431A649A6F12F0ED
S11314C00102FBD10038054C18BF01200129C4F8E2
S11314D0B40A08BF5A63D0E700300E400000C64388
S11314E02DE9F04FA0F5E16389B00024B3F5966FC0
S11314F0CDE90244CDE90444CDE9064406468A46D2
S1131500934605D940F6EE215548FFF76FF8A3E05E
S1131510B0F5E16F534B8CBF0122002249D1D3F8BF
S11315201832C3F30721DBB2079104934FF4167505
S11315304FF4966748E0BBF1000F0ED0D9F85C2059
S113154022F4FE4222F00202B6F5E16F42EA0122E1
S113155018BF02200243C9F85C20BAF1000F26D05C
S113156020460021FFF7B4FE044610B940F64B3183
S1131570CAE701214046FFF7ABFE044610B940F626
S11315805331C1E7384A536EBD4238BF3D4623F458
S1131590FF73E72D23F0010328BFE725B6F5E16FBC
S11315A018BF43F0010343EA4503536654E00124A2
S11315B052E0D3F81832190EC3F30743079104938A
S11315C04FF496654FF4E167DFF89C90D9F84C40EE
S11315D00192C4F30174234605A902A8FFF718FE7B
S11315E0D9F8EC30019AC3F30128434606A903A8AD
S11315F0FFF70EFE049BF01B079FF91A4143B1FB52
S1131600F5F299182CBF012300238F421ED3EBB9A6
S1131610069A039FD31B4343B3FBF5F3FF182CBF78
S113162001230023BA4211D383B9059B029AA3EB89
S1131630020C00FB0CF0B0FBF5F555192CBF012092
S11316400020AB4202D300283FF475AF044840F6B3
S11316503C31FEF7CBFF0024204609B0BDE8F08FF3
S1131660447900000081E00F00300E40334A08B591
S1131670136FD16C11F0010F03F0060344D0002B5B
S113168042D0132857D9143813288CBF10230823A9
S11316902A49013BCA6C180322F47F4240EA03231F
S11316A01343CB64264BCA6C1B88C2F30322283332
S11316B0013202EB820003EB5303B3FBF0F3C86C7B
S11316C0013B072B28BF072320F0EE6040EA0363A9
S11316D043F48013CB641B4BB3F90030002B12DBB3
S11316E003F12800C0F34E030344500800EB420208
S11316F0B3FBF2F20B6D072A28BF072223F0700315
S113170043EA02120A6508BDD16C01F001011943D4
S113171004D109280FD90A380928B6E7D26CD207B0
S113172002D50BB92728B0E7074840F69131FEF7F8
S11317305DFF0023ACE70423AAE700BF00300E409E
S11317408611002088110020447900000C4BD3F846
S1131750803910B5044633B9012804D9094840F644
S1131760AF31FEF743FF084A136F23F00703234307
S11317701367064BBDE810401888FFF777BF00BF1A
S11317800000C6434479000000300E40841100205C
S113179038B55A4B02229A639B6B03F00F039342B2
S11317A0044607D0564840F64B21FEF71FFF00259C
S11317B0284638BD0389C82B04D9514840F6552121
S11317C0FEF714FFA28823899A4204D94C4840F6B4
S11317D05621FEF70BFFB4F90C30C82B04DD484842
S11317E040F65721FEF702FF6378012B55D1A388F9
S11317F0C82B04D940F65B214148FEF7F7FEE28886
S113180042F210739A4204D93D4840F66821FEF72B
S1131810EDFEE3884A2B48D9B3F5FA7F47D340F667
S1131820C312934294BF4FF000524FF040523349D9
S1131830B4F90C00CB6C23F0405323F001030028CF
S1131840A8BF43F001031343CB64D1F8EC30A28862
S113185043F44073C1F8EC302A4B1A80CB6E43F04A
S11318608073CB66284BD3F8800900B10420FFF7BE
S11318706DFF264B21891980254BB4F90C20A088D3
S11318801A80FFF7F3FEA37BA3B1012B22D01C48DF
S113189040F6CE01FEF7AAFE0FE0022BAFD1A388DB
S11318A00A2BACD94FF42661A6E70022BFE74FF01C
S11318B08052BCE7114B174A9A6501226088114691
S11318C0FFF70EFE054640B90D4840F69F21FEF78E
S11318D08DFE6DE7094B104AEEE7084AD36B43F4DB
S11318E08063D3636078FFF7B1FDA37AA3F120028C
S11318F053425341044AC2F8943759E700300E402A
S113190044790000841100200000C64386110020A1
S11319108811002077402057372110B70C4B022242
S113192010B59A63DA6B42F48062DA639A6FD20775
S1131930FCD403221A641B6C93420CBF01240024C0
S113194004D0044840F6DD31FEF750FE204610BDB9
S113195000300E404479000038B50D46044618B3F3
S1131960012824D0022825D0032826D004280ED00C
S1131970052825D0831F012B09D9082823D009283D
S113198023D00A2803D10723EB40DB0704D41048F3
S113199040F21341FEF72AFE30200E4B012144434E
S11319A001FA05F51D5138BD40F2FF33ECE74FF65F
S11319B0C073E9E740F6FF73E6E74FF47F43E3E7DC
S11319C04FF6FF73E0E70F23DEE74FF44043DBE716
S11319D0A77900000CA0004638B50D46044618B39C
S11319E0012824D0022825D0032826D004280ED08C
S11319F0052825D0831F012B09D9082823D00928BD
S1131A0023D00A2803D10723EB40DB0704D4104872
S1131A104FF47971FEF7EAFD30200E4B0121444367
S1131A2001FA05F51D5138BD40F2FF33ECE74FF6DE
S1131A30C073E9E740F6FF73E6E74FF47F43E3E75B
S1131A404FF6FF73E0E70F23DEE74FF44043DBE795
S1131A50A77900000CA0004470B505460E46144654
S1131A60FFF7A4FB296881EA040202EA06044C4059
S1131A702C60BDE87040FFF79DBB0000032838B51B
S1131A8004460D4607D9042808D0052803D0A0F140
S1131A900803022B02D835F0011303D008487D2136
S1131AA0FEF7A4FD3020604300F180402A464FF049
S1131AB00111BDE8384000F52040FFF7CDBF00BF5D
S1131AC00B7A00002DE9F0410E4615461F460446E8
S1131AD000285FD0012860D0022861D0032862D09A
S1131AE004280ED0052861D0831F012B09D90828AA
S1131AF05FD009285FD00A2803D10720F040C3072C
S1131B0003D43748BF21FEF771FD86EA050333F09D
S1131B10030303D03248C121FEF768FD072D06F008
S1131B2003064FF00F0149D84FEA85082D4804FAFF
S1131B3008F201FA08F1FFF78FFF03212A4806FA99
S1131B4008F201FA08F1FFF787FF1F2D03D9274890
S1131B509121FEF74BFD264C2C44A4001F2D276039
S1131B6003D922489121FEF741FD9DF81830C4F8AD
S1131B708030204A0123AB401F2DC2F8243403D9FE
S1131B801A489121FEF732FD9DF81C30C4F8003349
S1131B90BDE8F08140F2FF30B0E74FF6C070ADE72A
S1131BA040F6FF70AAE74FF47F40A7E74FF6FF70B7
S1131BB0A4E70F20A2E74FF440409FE7A5F10808EF
S1131BC04FEA88080C4804FA08F201FA08F1FFF712
S1131BD043FF0321094806FA08F201FA08F1B2E7C3
S1131BE00B7A000000A4004008A400406F7A0000B3
S1131BF08020851000A0004004A400400CA40040F4
S1131C00F8B50D4616461F460446D8B301283CD005
S1131C1002283DD003283ED004280ED005283DD00C
S1131C20831F012B09D908283BD009283BD00A2857
S1131C3003D10723EB40DB0704D4274840F21D11EE
S1131C40FEF7D4FC26B1294620467FB3FFF784FE75
S1131C503020604300F18040072D00F5204028D853
S1131C604368AA000F21914023EA010306FA02F215
S1131C701343436076BB294620463FB3BDE8F84092
S1131C80FFF76ABE40F2FF33D4E74FF6C073D1E7E3
S1131C9040F6FF73CEE74FF47F43CBE74FF6FF7375
S1131CA0C8E70F23C6E74FF44043C3E7FFF794FEAA
S1131CB0CEE7A5F1080382689B000F21994022EA30
S1131CC0010206FA03F313438360D3E7BDE8F84047
S1131CD0FFF782BEF8BD00BF0B7A0000022838B5BA
S1131CE004460D4603D911484C21FEF77FFC6B795D
S1131CF01F2B03D90D484F21FEF778FCAB786A7887
S1131D009B0143EA82032A781343EA7843EA0213E5
S1131D102A7943EAC2236A7943EA0233AA7904346A
S1131D2043EA42432401024A135138BDD27A0000E7
S1131D3000200440014B1860704700BF000084423B
S1131D40427801790378002A827870B514BF04269A
S1131D500026002AC27814BF10250025002A4279E3
S1131D604FEA023242EA012242EA0302837914BFB3
S1131D7020240024002BC37942EA034343EA0603E8
S1131D80027A43EA050314BF4FF4004100212343C0
S1131D90002A14BF4FF4003200220B431343014ABC
S1131DA0136070BD0020044070B506460C4615460D
S1131DB022B90D484FF42271FEF718FC1CB90B48E8
S1131DC0FEF742FE04460A4B6D00013CB4FBF5F4F9
S1131DD013EA04234FEA042504D0034840F2A52162
S1131DE0FEF704FC756170BD367B000040410500C0
S1131DF0070080FF38B51E4B1E4D984204460ED096
S1131E00A8420CD003F50063984208D003F5806320
S1131E10984204D0184840F22E41FEF7E7FB40F602
S1131E20AA63E36041F20502002323606260134A5F
S1131E30A3606361E364A26423666367A367E367E3
S1131E400B4B9C4209D0AC4207D003F500639C4283
S1131E5003D003F580639C4201D100232365002352
S1131E60AC42A36502D0064A944200D1E36538BD72
S1131E700000014000040140367B0000F9FF01002E
S1131E80000C014038B52A4B984204460D4610D048
S1131E9003F5806398420CD003F58063984208D020
S1131EA003F58063984204D022484FF45671FEF73C
S1131EB09DFB2046FFF79EFFA97B2A8A2368002901
S1131EC042F0010214BF4FF48061002113430B431D
S1131ED02A7D23602368002A14BF4FF00052002299
S1131EE013432360AB7C1BB1EB7C43F08003A365FD
S1131EF02B7B43F480536360D5E901122046FFF73E
S1131F0053FF6B7B0BB11023E3606B7D1BB1236824
S1131F1043F480332360AB7DEA7D1B07120503F095
S1131F20E04302F4E002134323662B78E36038BDF8
S1131F3000000140367B000003695B06FCD5416369
S1131F40704700002DE9F047374FDDE90884064665
S1131F50154699468A4641B9082323704FF4D9633C
S1131F60A360324B6760E360FEE75AB1531E13422D
S1131F7008D00823237040F2CB63A3602B4B676027
S1131F80E360FEE7FFF719F9002D08BF04254D456E
S1131F9038BF4D46D6F808E06B1E13EA0E0FC5F1A4
S1131FA0000202EA0E0208BF0025154409F1FF33BE
S1131FB0AA4413EA0A0FC9F1000202EA0A0208BF9E
S1131FC04FF0000902EB090372680132A2EB0E0123
S1131FD0A3EB0E0E7145844615491AD2B8F1000FD1
S1131FE002D09B1AC8F80030162540F22273C4E9C7
S1131FF00231257067606046FFF7E5F840F2D76369
S1132000A3600A4B25706760E36000252846BDE89D
S1132010F087B360002323704FF4E563C4E9023111
S11320206760FFF7D0F8F1E79B7B00002A7C000093
S1132030127C000030B50C4685B011461D461BB914
S1132040039200F019F803990648019500230093C0
S113205004220123002C18BF2046FFF773FF05B0AC
S113206030BD00BF2C100020024B00221A6002F089
S11320704BBE00BF8C350020FEE70000014B18600A
S1132080704700BF8C350020704700002DE9F041F7
S1132090044608B9FFF7F0FFFFF798F8194E1A4DF8
S11320A0074638B12023237040F21933C4E90235BE
S11320B06660FEE7154B1B78012B08D002232370C2
S11320C0666040F21D33C4E90235BDE8F081DFF8F3
S11320D0408098F80030F92B05D91E2323706660E0
S11320E040F22233EFE7FFF768F898F80030013345
S11320F088F80030FFF767F82770666040F22D33E8
S1132100E1E700BF447C0000357D00003C3A00203C
S11321103D3A002070B5044608B9FFF7ADFF264BE1
S11321201E78012E09D013232370244B636040F2E0
S1132130F633A360224BE360FEE7224B1B88022B9D
S113214009D8092323701D4B636040F20143A36047
S11321501B4BE360FEE71C4D2B784BB11F23237010
S1132160164B636040F20443A360154BE360FEE743
S1132170FFF736F848B11F232370104B636040F219
S11321800743A3600E4BE360FEE701F0FDFA0F4B3B
S11321900F4A18700F4B2E7018700C2358430E4BB7
S11321A01B5813600D4A136001F00CFE02F0D6FDBB
S11321B0BDE87040FFF760BF1E370020447C00007C
S11321C01F7D00005C3B00203C3A00203337002098
S11321D0503B0020323700203C3700204C3B00208D
S11321E030B14368C1F8EC308368DB68C361704781
S11321F091F83030022B03D0072B05D0034B00E0BD
S1132200034BC1F8EC307047024BFAE72C8D000009
S1132210B77C0000BE7C0000044BC1F8EC3018B160
S1132220826802B1D368C361704700BF2C8D00007F
S11322300023C0E9003303817047036810B533B944
S113224001220281C1E90933016041601CE0028975
S113225091F833400132028193F83320A2420CD822
S11322605B6A002BF8D14B6243688B625962ECE7DE
S1132270C1E909325162996206E09A6A002AF7D1EB
S1132280C1E909329962016010BDC36A5BB19A6801
S1132290526A4AB9C3E902221A8A013A1A8200230D
S11322A0C0E90933C3627047D0E9092111B99162C9
S11322B09A60F1E74A620AB9D960EDE79162EBE707
S11322C038B5C56AAB685B6A4BB1FFF7DEFFC56220
S11322D0014605F10800BDE83840FFF7AEBF38BD40
S11322E0054B40220021013AC3E90011198103F191
S11322F00C03F8D1704700BF3C370020F8B5044602
S113230008B9FFF7B9FE964D6A68D2B12B68954EAD
S11323104BB92346296B94489200FFF78BFE30603B
S113232023780BB1F8BD3360904B32681A60904A41
S11323306B6813608F49904A9B0013600A681344CA
S11323400B602A89B2B12346296B8C481201FFF72E
S113235071FE8B4B18602378002BE3D1894B8A4A9A
S113236018602B8913808349884A1B0113600A680B
S113237013440B606A69002A27D02B69844E002B12
S113238062D12346296B83489200FFF753FE3060E5
S11323902378002BC6D1804B2A7E1A707F4BEA69C2
S11323A01A607F4B32681A606B69EA6864215A4389
S11323B0B2FBF1F27B490A607B4A6E4913607B4AA7
S11323C09B0013600A6813440B606A6A002A28D0D1
S11323D02B6A774E002B39D12346296B754892001E
S11323E0FFF728FE30602378002B9BD1724B95F8C1
S11323F028201A70714B32681A606B6AEA6864218B
S11324005A43B2FBF1F26E490A606E4AE96A1360FC
S11324106D4A9B0013606D4A116056490A68134463
S11324200B606B4E6B6B336002F04CFD03F014FBDE
S1132430054668B101232370664B63604FF4D7737C
S1132440A360654BE3606DE73360A4E73360CDE7D9
S113245003F002FC3368984209D2092323705D4BD0
S113246063604FF4D973A3605B4BE360FEE703F052
S1132470F3FB3368594F984240F0D8803D6032688E
S1132480B2F57A7F07D900230020012104F044FB30
S11324904FF47A754543524B524A1D600023137022
S11324A0514A1370514A1360514A1360514A1370D0
S11324B0514A1370514A2046137002F013F90A234B
S11324C0B0FBF3F04E4B18602578002D7FF42AAF53
S11324D0274A136853B12549086838B10146013BBE
S11324E041F8045BFBD1116801F09AFE454B0025CD
S11324F01D7001F041F9FFF7F3FE434B1D60434BA0
S11325001D80214B1B88002B40F09C80404A0023F7
S11325101360404A1380404A1360404A1380404A83
S11325201360404A2046138001F0F6FD2378002B07
S11325307FF4F8AE204601F011FC2378002B7FF4E1
S1132540F1AE204602F016FB2378002B7FF4EAAEAE
S113255000F0B0FBFFF798FD334B01221A70E1E65F
S11325604010002094350020C77C000098350020DE
S11325709C35002090350020A0350020DA7C000036
S1132580A4350020A8350020AC350020B03500204B
S1132590BC350020EC7C0000B4350020B8350020A8
S11325A0C0350020C4350020C8350020CC350020BB
S11325B0DC350020057D0000D4350020E035002006
S11325C0E4350020E8350020EC350020D835002023
S11325D0D0350020447C0000417D0000F43500200B
S11325E0F03500203C3A00203D3A00204C3B0020CE
S11325F0503B00203237002033370020443A00207B
S1132600403A00205E3B0020183700201C37002091
S11326102C37002030370020343700203837002092
S1132620483A00204C3A00201E37002003F014FBE7
S11326302B4602460121002004F06EFA3368584309
S113264038601CE7204600F0B5FD2378002B3FF4EA
S11326505DAF67E690F833300B490C22534330B535
S1132660CA58CC1832B901252581C0E90422C850C2
S1132670606030BD258901352581002402614461F3
S11326805061C850F5E700BF3C37002090F8332074
S11326900B490C235A4330B58C588B1834B9012597
S11326A01D81C0E904448850586030BD1A89013244
S11326B01A81002202615A6842611061F4E700BF86
S11326C03C37002010B5044690F8330001F06CF854
S11326D0074B94F833201B789A42204603D1BDE877
S11326E01040FFF7D3BFBDE81040FFF7B3BF00BFF2
S11326F03237002038B50C4691F8321007290546C8
S1132700049807D80239052906D8DFE801F006063F
S113271005052525FF293AD138BDA267A4F87C30E8
S1132720606415B12046FFF7B0FD21462846FFF747
S113273073FD94F83230032B06D104F1540003F0F6
S1132740C5F908B1FFF798FC2046FFF7BBFF00234B
S1132750238684F83230DFE7A267A4F87C30606413
S113276015B12046FFF791FD21462846FFF754FD99
S113277094F83230072B06D104F1540003F0A6F983
S113278008B1FFF779FC002323860423E1E7BDE8C1
S11327903840FFF771BCD0E90032934210B50FD036
S11327A01C690021A24215BF6161C3E90412C3E997
S11327B00412C2E9043116BF13610260046043606D
S11327C010BD000070B50446D4E9043590F8330018
S11327D0104A0C219DB953B94143551853502B81CC
S11327E06B6000F0F7FF0023C4E9043370BD484375
S11327F016183189013931815D611350F3E701FB0A
S113280000221189013911812B610BB95560EAE766
S11328105D61E8E73C37002013B5044670B1084B0E
S11328201B78012B0AD10023CDE90033054A416FFF
S11328300346054803F0A8F9044B1C6002B010BD20
S1132840443A0020E92A0000FC350020F835002035
S1132850F8B50446A8B1114B1B78012B11D1056FB3
S11328600F4E7DB90F4B1F6803F0F6F932682B4603
S1132870511E0D461946E7FB0051284604F04CF959
S11328806067F8BD03F0E8F932680023511E0E4674
S11328901946E5FB00613046F0E700BF443A0020EA
S11328A0D0350020403A00202DE9F7435D4B1B78DA
S11328B0012B00D0FEE75C4B93F80080B8F1000FC9
S11328C040F09680FEF779FC584F594C97F80090E9
S11328D0584D064600F058FF40280346387000F073
S11328E08A800C20DFF858814343B9F1400F58F82F
S11328F00330236003D101F057FBAFF3008022685B
S11329002B68DFF840919A4218D1002001F074FC42
S1132910012802D0286802F0F3FA99F800303BB19C
S11329202068436F0BB9FFF793FF2068FFF774FF2C
S1132930304603B0BDE8F043FEF745BC99F80030DB
S11329401BB3DFF80491D9F800305B6FEBB13A4860
S113295001A903F03DF930B9D9F80030019A36489D
S11329605A6703F0B3F8D9F800305A6F6AB993F88C
S1132970330000EB400008EB8000FFF70CFF3B78CE
S11329800C22534358F8033023602268D2F8C03035
S11329900133C2F8C030294A1368013313603B780D
S11329A0402B33D02B682268934215D0A3B102F098
S11329B0C3F92B68D3F8C83098421FD302F0BCF98E
S11329C02B68D3F8C830C01A2A68D2F8CC30C2F8C1
S11329D0C4001844C2F8CC00246802F0ADF9C4F86D
S11329E0C80002F0FAF93046FEF7EDFBBFF36F8F33
S11329F003B0BDE8F083C4F80080CCE702F09CF992
S1132A002B68D3F8C820D2431044DDE701F0C4FAA0
S1132A102C681CB102F090F9C4F8C800AFF3008030
S1132A20DFE700BF3C3A00203D3A00203337002066
S1132A30503B00204C3B0020FC350020543B002040
S1132A403C370020443A0020F83500202DE9F041BD
S1132A50044608B9FFF710FBFEF7B8FB1E4F1F4EE4
S1132A6038B12023237040F24533C4E9023667604D
S1132A70FEE71B4B1B78012B08D0022323706760F1
S1132A8040F24933C4E90236BDE8F081DFF85480EE
S1132A9098F800302BB91F232370676040F24E333F
S1132AA0F0E7FEF78AFB98F80050013DEDB288F894
S1132AB000503DB1FEF787FB2D232370676040F281
S1132AC05633DFE7FEF77FFBFFF7EEFE2570676006
S1132AD04FF45873D6E700BF447C0000277D000004
S1132AE03C3A00203D3A002038B50E4B1B78012BB0
S1132AF00D4616D1FEF761FB00236B670A4B1B687A
S1132B0093F833300446094803EB430300EB830096
S1132B10FFF741FE2046FEF756FBBDE83840FFF7BD
S1132B20C3BE38BD443A0020F83500203C370020AD
S1132B30F8B50C46FEF741FB94F83230013B0746EA
S1132B40062B3FD8DFE803F04B3E043E523E040020
S1132B5094F83030042B08BFE36A4FF0000608BF36
S1132B605D6AA667A4F87C6018BF354602F0E4F8F5
S1132B7060642046FFF789FB94F83230032B28D198
S1132B80FFF7A0FD84F832604FF440732386CDB183
S1132B9095F8333095F834209A4213D094F83320C2
S1132BA09A420FD1284600F0E1FC95F83430834274
S1132BB028BF0346D9B295F833308B4202D0284659
S1132BC001F050FC3846FEF7FEFABDE8F840FFF786
S1132BD06BBE072B04BF042384F83230D4E70023F0
S1132BE084F832302046FFF76DFDEBE7042384F8C8
S1132BF03230E7E7F7B504460D4611B303F02CF87D
S1132C00114B1A680026571E46F1FF31E5FB00718F
S1132C103346384603F080FFCDE9006601460B4A8F
S1132C20234604F1540002F0AFFF08B1FFF724FA81
S1132C300323204684F8323003B0BDE8F040FFF7A8
S1132C40C1BD0223F5E700BFD0350020312B0000C1
S1132C5037B5144D0B4611462A6882F830300023EC
S1132C6082F83130104A127804463AB10F4A1048BB
S1132C7012680191536702F029FF01992868FFF750
S1132C80B9FF64B1296804F10800CC62FFF7D5FAF2
S1132C902968204603B0BDE83040FFF7A1BA2B688D
S1132CA0DC62F5E74C3B0020443A0020F835002074
S1132CB0FC350020774B1B7882B0DBB28DF80530F1
S1132CC0754B1B68DBB28DF80730744B1B78DBB295
S1132CD08DF80530724B1B78DBB28DF80530714BE3
S1132CE01B68DBB28DF807306F4B1B6ADBB28DF8C3
S1132CF007306E4B1B78DBB28DF805306C4B1B78BC
S1132D00DBB28DF805306B4B1B88DBB28DF80630D7
S1132D10694B1B88DBB28DF80630684B1B78DBB23D
S1132D208DF80530664B1B88DBB28DF80630654B99
S1132D301B88DBB28DF80630634B1B88DBB28DF841
S1132D400630624B93F82830DBB28DF80730604BC5
S1132D501B78DBB28DF805305E4B1B88DBB28DF837
S1132D6006305D4B1B88DBB28DF806305B4B1B884D
S1132D70DBB28DF806305A4B1B88DBB28DF8063077
S1132D80584B1B88DBB28DF80630574B1B88DBB2DF
S1132D908DF80630554B5B8DDBB28DF80730544B04
S1132DA01B78DBB28DF80530524B1B88DBB28DF8F3
S1132DB00630514B1B78DBB28DF806304F4B1B6A43
S1132DC0DBB28DF807304E4B1B78DBB28DF8053043
S1132DD04C4B1B88DBB28DF806304B4B1B88DBB2A7
S1132DE08DF80630494B1B68DBB28DF80730484B31
S1132DF01B78DBB28DF80630464B1B78DBB28DF8BE
S1132E000530454B1B78DBB28DF80530434B1B78FE
S1132E10DBB28DF80530424B1B78DBB28DF8053000
S1132E20404B1B78DBB28DF805303F4B1B78DBB28F
S1132E308DF805303D4B1B88DBB28DF806303C4BDA
S1132E401B78DBB28DF805303A4B1B88DBB28DF86A
S1132E500630394B1B88DBB28DF80630374B1B78B4
S1132E60DBB28DF80530364B1B88DBB28DF80630AB
S1132E70344B9B8CDBB28DF80730334B1B88DBB2B1
S1132E808DF806309DF805309DF806309DF8073022
S1132E9002B07047801000207C10002078100020C1
S1132EA018360020841000201C36002088100020D2
S1132EB0443600208A1000208C1000208E10002040
S1132EC0941000209010002092100020483600201A
S1132ED096100020981000209A1000209C100020CA
S1132EE09E100020A0100020A210002078360020A0
S1132EF0A4100020A6100020B0100020A836002046
S1132F00B1100020B2100020A8100020AC10002046
S1132F10B6100020B4100020B5100020BA10002014
S1132F20BB100020BD100020BC100020BE100020EB
S1132F30C0100020B8100020C2100020C4100020CF
S1132F40C6100020D0360020C8100020054B064AC9
S1132F50C36100234361136883610BB91060704738
S1132F605861FBE72C8D0000183700202DE9F84F3D
S1132F7005468B4692461C460BB9FFF77DF8FEF7D3
S1132F8025F9DFF87C801B4F064638B120232370D7
S1132F905523C4E90237C4F80480FEE73DB90A2387
S1132FA023705823C4E90237C4F80480FEE7FEF70F
S1132FB004F9282231468146284603F07DFF0E4B52
S1132FC0C5F820A0C5E9003B05F10800FFF730F97A
S1132FD02846FFF7BBFF094A13884846013313808C
S1132FE0FEF7F1F870232670C4E90237C4F80480B0
S1132FF0BDE8F88FC67D0000464C41471C370020D1
S1133000487D000010B50023038690F83230C0F8E4
S1133010A81004464264072B1AD8DFE803F0121202
S1133020040412121717032B05D1543002F04EFD7D
S113303008B1FFF721F82046FFF744FB002384F88A
S113304032302046BDE81040FFF71FB90423F6E7ED
S1133050FFF712F8F5E700002DE9F84305460F469F
S113306016461C460BB9FFF707F84E4B1B78012B8D
S11330700CD0022323704C4B636040F23233A360C4
S11330804A4BE36000252846BDE8F8834DB90A237E
S11330902370454B636040F23733A360434BE360D6
S11330A0FEE747F6FE731E4209D0082323703E4B09
S11330B0636040F23A33A3603C4BE360FEE72A6866
S11330C03B4B9A4209D00C232370374B63604FF477
S11330D05073A360354BE360FEE701F02DFE81469B
S11330E0FEF76BF8B6F5004F80460BD048F20103AB
S11330F09E421BD036B1012E18D0FEF764F8FEF7BD
S1133100BBFF02E0296A39432962AF68C5F82490FD
S113311087B94046FEF757F8234B636040F26233A9
S11331202770A360214B2D6AE360ACE7296A21EA8A
S11331300701E9E738467F6AB0F8AC3003F00F03C3
S1133140042B07D0082B0FD04046FEF73CF8FEF7BF
S113315093FF0EE0D0F8A4102B6A31EA030308D1E0
S11331604A46FFF74FFF04E0296AD0F8A43019401B
S1133170F6D1002FDED14046FEF725F8330401D402
S1133180FFF792FBFEF719F82D6AFEF71CF80023EF
S11331902370054B636040F2A333A360034BE360E9
S11331A071E700BF3C3A0020487D0000BB7D000071
S11331B0464C4147154BF0B51C68154B1E8800253D
S11331C0721E04F1100192B22B46AFB2BA4213D868
S11331D0110104EB0212635053601381D3600D4A52
S11331E01381D3809680146003700B4B43605D237E
S11331F083600A4BC360F0BD41E9041321F8083C25
S113320041F8043C01351031DFE700BFA835002048
S1133210AC35002020370020D37D0000457E00001F
S1133220428910B582B1094B01681C680C60416881
S11332301960D988891AD980998811449980002302
S1133240C0E9003343818381104610BD203700203C
S113325038B504460D461022002103F02DFE2581C9
S113326038BD00002DE9F74F0C9C064689461746E9
S11332701D460CB9FEF700FFFDF7A8FF48B1202357
S11332802370814B636040F23313A3607F4BE36090
S1133290FEE74EB90A2323707B4B63604FF49B73A4
S11332A0A3607A4BE360FEE7C7F30E034BB1082338
S11332B02370754B636040F23913A360734BE36072
S11332C0FEE73268724B9A4209D00C2323706E4B8E
S11332D0636040F23D13A3606C4BE360FEE73FB2D2
S11332E0002F0CDBFDF77CFF48B11F232370664BD6
S11332F063604FF4A073A360644BE360FEE7654B27
S113330093F800B0BBF1010F1CD1FDF756FF96F8FE
S11333102830DFF888A18046F3B9DAF80030736208
S113332086F828B00DB1F26A2A609A6B3262404680
S11333309E63FDF748FF00232370534B63604FF4F3
S1133340AA7305E0022323704F4B636040F24513D8
S1133350A3604E4BE36013E0726ADAF800108A420D
S113336021D1FF2BDFF82091484F0CD1FDF72BFF23
S11333701E232370C4F8049040F25D13C4E902379D
S113338003B0BDE8F08F013386F828300DB1F36A3D
S11333902B604046FDF717FF23232370C4F80490E5
S11333A040F26913EAE7002F0BDAFDF70CFF0DB1C9
S11333B000232B601D232370334B63604FF4BB73D6
S11333C0C6E7354B1B785BB1FDF7FDFE0DB100235D
S11333D02B602D2323702C4B63604FF4C173B7E72C
S11333E091F8331092F833308B4202D9104601F031
S11333F039F84A4604213046FFF72AFC4046FDF7D7
S1133400E2FEFFF751FAFDF7D8FEDAF8003093F840
S11334103120032A32D8DFE802F00213271D0DB150
S11334205B6C2B6000232370174B63604FF4D073E5
S1133430A360164BE36003B0BDE8F04FFDF7C3BED5
S11334400DB15B6C2B60212323700F4B63604FF431
S1133450D573EDE70DB100232B60222323700A4BB3
S113346063604FF4DA73E3E70DB15B6C2B603123D7
S11334702370054B63604FF4DF73D9E70190FEF7C7
S1133480FBFD0198D7E700BF547E0000D47E000006
S11334904D5554583C3A00203D3A00204C3B002006
S11334A0054B064AC36100234361136883610BB96A
S11334B0106070475861FBE72C8D00002C3700200A
S11334C02DE9F04705468A4614460AB9FEF7D4FDAD
S11334D0FDF77CFEDFF878801A4F064638B12023CA
S11334E023705223C4E90237C4F80480FEE73DB9CF
S11334F00A2323705523C4E90237C4F80480FEE785
S1133500FDF75BFE302231468146284603F0D4FCA9
S11335100D4B05F10800C5E9003AFEF789FE28467F
S1133520FFF7BEFF094A1388484601331380FDF7AD
S11335304AFE6C232670C4E90237C4F80480BDE84F
S1133540F08700BFE07E00004D555458303700200E
S1133550547E0000836B00F138028B42186A01D15B
S11335601060704703F120020346F6E7836B3F20A7
S113357003B970479A6822B192F83320904228BF69
S113358010461B6AF4E700002DE9F04F054685B0AC
S11335908A4614460AB9FEF76FFDFDF717FE5C4F25
S11335A05C4E38B12023237040F25723C4E902361D
S11335B06760FEE73DB90A23237040F25A23C4E949
S11335C002366760FEE7CAF30E033BB1082323709B
S11335D040F25D23C4E902366760FEE72A684E4B79
S11335E09A4207D00C23237040F26123C4E90236C7
S11335F06760FEE7494B1B78012B09D00223237037
S1133600676040F26523C4E9023605B0BDE8F08F77
S1133610DFF81091FDF7D1FD6A6AD9F800309A42BB
S1133620804607D0FDF7CFFD1B23237067604FF45E
S11336301B73E8E701F080FB95F828300290013B0A
S1133640DBB2E86285F8283043B14046FDF7BBFDA4
S113365023232370676040F27D23D4E7D9F8000068
S11336602946FFF777FFD5F808B0BBF1000F0CD15E
S1133670C5F824B085F828B04046FDF7A4FD84F8C9
S113368000B0676040F28A23BDE7D9F8001091F8D2
S1133690332091F834B003925A451BD00846FFF703
S11336A065FF584528BF5846039A5FFA80FB5A4580
S11336B010D20846FFF786F8D9F80020584682F859
S11336C033B000F071F8D9F80000FEF7DFFF144AB8
S11336D082F800B0A9686962012385F828308B6BF1
S11336E02B62029B8D63009300231A462846FFF742
S11336F001F84046FDF767FD1AF4004F01D1FFF7CA
S1133700D3F800232370676040F2AD237BE700BF4A
S1133710547E0000C87E00004D5554583C3A0020A9
S1133720323700204C3B00202DE9F341846B0546E1
S1133730012714B902B0BDE8F081D4F8208001F06B
S1133740FBFA2146E06206462846FFF703FFA1681C
S113375021B984F8281061624446EAE784F82870A5
S11337608B6B2362002365621A468C6320460096A5
S1133770FEF7C0FFF0E70000024B0022C3E900227D
S1133780704700BF0037002008B5064B186828B9F9
S1133790586801F0D7FA2030C0B208BD01F0D2FA5F
S11337A0FAE700BF003700201F28094A07D84FF066
S11337B0004323FA00F013680343136070470123A6
S11337C0C0F13F0003FA00F053681843506070479B
S11337D0003700201F280A4B08D84FF0004222FA75
S11337E000F01A6822EA00021A6070470122C0F150
S11337F03F0002FA00F05A6822EA00025A60704759
S113380000370020054B064AC36100234361136857
S113381083610BB9106070475861FBE72C8D000081
S1133820343700202DE9F84F05468B4691461C4657
S11338300BB9FEF721FCFDF7C9FC274F274E804644
S113384030B1202323705823C4E902366760FEE7B1
S113385035B90A2323705B23C4E902366760FEE7A7
S1133860B9F1000F06D1082323705E23C4E90236A0
S11338706760FEE71A4B1B884B4506D2082323706A
S11338806123C4E902366760FEE7FDF796FC302247
S113389082464146284603F00FFB124B4946C5E9D0
S11338A0003B05F12000FFF7D3FC05F10800FEF70B
S11338B0BFFC2846FFF7A6FF0B4A13885046013386
S11338C01380FDF780FC782384F80080C4E9023675
S11338D06760BDE8F88F00BFEE7E00005E7F0000E9
S11338E0AC35002051554555383700202DE9F347B4
S11338F00A9C0746894616461D460CB9FEF7BCFBD2
S11339000FFA86FABAF1000F0ADABFB90A23237054
S11339106A4B63604FF49373A360694BE360FEE703
S1133920FDF754FC0028F0D020232370634B636020
S11339304FF49173A360624BE360FEE7C6F30E0697
S11339404EB1082323705D4B636040F22913A360DA
S11339505B4BE360FEE73A685A4B9A4209D00C236A
S11339602370564B636040F22D13A360544BE36005
S1133970FEE7BAF1000F0CDBFDF732FC48B11F2360
S113398023704E4B63604FF49873A3604C4BE36019
S1133990FEE74D4B1B78012B17D1FDF70EFC3E6A59
S11339A0804606B3013E3E620DB17B6A2B60404601
S11339B03E6AFDF708FC00232370404B636040F22D
S11339C04313A3603E4BE36009E0022323703B4BA7
S11339D0636040F23513A360394BE3600026304640
S11339E002B0BDE8F087BAF1000F0CDA05B12E6021
S11339F040463E6AFDF7E7FB1D2323702F4B6360AF
S1133A0040F25113DDE7314B1B785BB105B12E60F9
S1133A104046FDF7D8FB2D232370284B636040F20A
S1133A205D13CEE74A4606213846FFF711F94046B2
S1133A30FDF7C9FBFEF738FFFDF7BFFB244B1B68FE
S1133A4093F83120032A31D8DFE802F00212261C51
S1133A500DB15B6C2B6000232370184B63604FF433
S1133A60BA73A360164BE3603E6AFDF7ACFBB6E79E
S1133A700DB15B6C2B6021232370104B63604FF4FA
S1133A80BF73EEE70DB100232B60222323700B4B91
S1133A9063604FF4C473E4E70DB15B6C2B603123B6
S1133AA02370064B63604FF4C973DAE70190FDF7A6
S1133AB08AFBFEF7E1FA0198D6E700BF687F0000B1
S1133AC0E47F000053454D413C3A00203D3A00203C
S1133AD04C3B00202DE9F3470646884614460AB9B4
S1133AE0FEF7CAFA4EB90A2323703E4B636040F2D4
S1133AF02623A3603C4BE360FEE747F6FF5518EA34
S1133B00050509D008232370364B636040F229234E
S1133B10A360354BE360FEE73268344B9A4209D028
S1133B200C2323702F4B636040F22F23A3602E4B92
S1133B30E360FEE72E4B1B78012B09D00223237090
S1133B40284B636040F23323A360274BE36038E0E3
S1133B5001F0F2F88146FDF730FBB7680546F7B18E
S1133B6008F4007A002339461A467F6ACDF800909B
S1133B703046FEF7BFFDBAF1000F01D0002FF1D19E
S1133B802846FDF720FB18F4004F01D1FEF78CFE08
S1133B90144B63600025257040F26523D4E7356A31
S1133BA0DFF840A0DFF840806B1C0ED1FDF70BFB63
S1133BB01E2323704FF41173C4E90238C4F804A01F
S1133BC03D46284602B0BDE8F0870135C6E90859EC
S1133BD0FDF7F9FA40F24F23C4E902382770C4F81C
S1133BE004A0EEE7687F0000DA7F000053454D41F2
S1133BF03C3A0020054B064AC36100234361136825
S1133C0083610BB9106070475861FBE72C8D00008D
S1133C10483A00202DE9F84F05468A4693461C464B
S1133C200BB9FEF729FAFDF7D1FADFF880801C4FB3
S1133C30064638B1202323705823C4E90237C4F858
S1133C400480FEE73DB90A2323705B23C4E90237ED
S1133C50C4F80480FEE7FDF7B0FA28223146814615
S1133C60284603F029F90F4B2B6005F10800C5F82D
S1133C7020B0C5F804A0FEF7DBFA2846FFF7BAFF28
S1133C80094A1388484601331380FDF79CFA7323CD
S1133C902670C4E90237C4F80480BDE8F88F00BF79
S1133CA0EE7F000053454D414C3A0020687F0000F0
S1133CB0F8B5064608B9FEF7DFF9FDF77EFA1F4BA3
S1133CC000251D801E4B1D601E4B1D601E4B1D815B
S1133CD0FDF779FAFDF771FA1C4B1C68FDF773FACE
S1133CE074B9FDF76AFA1A4B1D68FDF76CFA05BB47
S1133CF0184B7360A423B3603570174BF360F8BDA1
S1133D00FDF75BFAC4E93355C4F89450C4F8D850AD
S1133D10C4F8C050A4F8BA50A4F8BC50074601F047
S1133D200BF8A4F88C50C4F8C800D4F8E84038461E
S1133D30D4E7FDF742FAAC85AD69D6E7523A0020E4
S1133D40483B0020903C002020370020583B0020B6
S1133D5034370020FA7F00008080000000B5104A4C
S1133D60104900231370104A8BB013700322CDE95D
S1133D700632CDE904330D4A0890126803920C4AC6
S1133D800C48126802920C4A126801920B4A12788B
S1133D9000920B4A00F04EFA0BB05DF804FB00BF32
S1133DA0543A00206D8000004E3A0020C8350020AF
S1133DB0C4350020583A0020C0350020B435002016
S1133DC0D53D000008B500F0B7FF014B186008BDF1
S1133DD0143700202DE9F04F85B06846FFF768FFDF
S1133DE0684600F07FFC9DF8003005460BB1FEF7F5
S1133DF043F95C4B18684FF00008A842C24642F2EF
S1133E00107728BF0A20B5FBF0F500F095FF564E59
S1133E10814600F091FF3368984267D300F08CFF2D
S1133E203468041BFDF7C9F9504BD3F800B0C3F84C
S1133E3000A0FDF7C8F94E4B9C425DD94D4B9C4206
S1133E405ED94D4B9C425FD34C4B9C4295BF4FF483
S1133E507A7038460A2601260BFB06F3B4FBF0F40D
S1133E60B3FBF4F39BB2BB42454A28BF3B461380E5
S1133E70444AFB1A9BB21380434A1188994203D2E5
S1133E80B8F1000F00D01380DFF808B1FDF795F901
S1133E90DBF80080FDF797F9B8F1000F37D1FDF793
S1133EA08CF9DBF80080FDF78EF9B8F1000F3BD1F7
S1133EB0364B1A78012A04D1684683F80080FFF74C
S1133EC0F7FE01F029F8FFF77DFF00F035FF304BD6
S1133ED01A68A0EB0900824238BF18606A460021C4
S1133EE0284600F011FC4FF001088EE700F024FF93
S1133EF03368DB431C1895E7012042F21076ABE7E8
S1133F000A204FF47A76A7E764200646A4E7FDF773
S1133F1054F9D8F8CC30C8E933A3FDF754F9FDF7C8
S1133F204CF9D8F8E880B5E7D8F8D030B8F8BC2018
S1133F307343B3FBF4F39BB2BB4228BF3B469A42A4
S1133F4038BFA8F8BC30A8F8BA3008F1DC0208F190
S1133F50E00140466B4600F041F8FDF72EF9D8F831
S1133F60E880A0E7B835002014370020103700207F
S1133F707F1A0600FF083D00005A6202FF83D7172C
S1133F8008370020503A0020523A00204E3A0020D0
S1133F90483B0020583B002008B500F0CDFE014B03
S1133FA0186008BD0C37002010B50A4C00F0C4FEA0
S1133FB02368984208D300F0BFFE2368C01A064A5B
S1133FC013681844106010BD00F0B6FE2368DB438C
S1133FD01844F4E70C370020103700202DE9F04195
S1133FE005460F4616461C460BB9FEF745F8FDF785
S1133FF0EDF848B1202323702F4B636040F2BC637B
S1134000A3602E4BE360FEE74FB90A2323702A4BCB
S1134010636040F2BF63A360284BE360FEE74EB9E0
S11340200A232370244B636040F2C163A360234BD3
S1134030E360FEE7FDF7C1F80DB9214B1D68D5F823
S11340400080B8F1000F10D1FDF7BDF80823C7F8C0
S11340500080C6F800802370174B636040F2CC6385
S1134060A360164BE360BDE8F081B5F8408018F01A
S113407001080CD1FDF7A7F80723C7F80080C6F89C
S1134080008023700C4B636040F2D463E8E7FDF7D3
S11340909AF8AA6900231C3252F8041F51B13B60FC
S11340A0EA6BD31A336000232370034B636040F23E
S11340B0EF63D5E70133EFE78C800000288100002F
S11340C04C3B0020064A0023C0F8E4301368C0F8D3
S11340D0E8300BB910607047C3F8E400FAE700BF9A
S11340E0583B0020D0E9392342B90A490B600BB18F
S11340F0C3F8E4200023C0F8E8307047C2F8E83081
S113410013B9C0F8E4307047C3F8E4200023C0F8C2
S1134110E830F6E7583B0020074A00231360074ABB
S11341201380074A13600370064B436040F6210373
S11341308360054BC3607047583B00205C3B002004
S1134140543B00208C8000000581000038B5F0222B
S11341500446002102F0B0FE1D4BE360002500215F
S113416004F18000FFF774F8C4E92455C4E92C5520
S1134170C4E92655C4E93555C4E93755C4E91C5585
S1134180C4E93055C4F8A450A4F8AC50C4F8A850FD
S1134190C4F8A050A564E56384F8B850A4F840506E
S11341A0256584F84C50A4F8BA50A4F8BC5000F02B
S11341B0C3FD4FF080432363402384F83430054B20
S11341C0A563C4E93205C4E93955C4F8EC3038BDF7
S11341D0FF8000002C8D0000064A031F1C3053F89A
S11341E0041F914203D18342F9D10120704700207A
S11341F0704700BF4523CDAB08B9084B1868026867
S113420083699A4207D3C16B03EB8100824202D2D5
S11342101846FFF7E1BF0020704700BF4C3B002069
S1134220034A031F1C3043F8042F8342FBD1704719
S11342304523CDAB2DE9F04F89B0DDE9136A049332
S11342409DF848300393BDF858300593DDE9178392
S11342501A9C159FBDF86490069105460292079337
S11342600CB9FDF709FFFCF7B1FF764A764B83469C
S113427030B16260F022C4E9022320212170FEE7FC
S113428035B96260F322C4E902230A212170FEE7F2
S1134290029931B96260F622C4E902230A2121702D
S11342A0FEE736B96260F922C4E902230A212170CB
S11342B0FEE766490968B94206D96260FC22C4E98E
S11342C0022308212170FEE7574506D86260FF22C9
S11342D0C4E9022308212170FEE703993F2907D985
S11342E062604FF48172C4E9022308212170FEE761
S11342F0574905980988814207D262604FF4837256
S1134300C4E9022308212170FEE72846FFF71EFFB7
S11343104C4A4D4B626019F0030F40F20B1284F8C3
S113432000B0A260E36070D12AF0070A06EB8A0AA3
S1134330CDE90079049902985346324600F0F0FD25
S1134340864283460AD9322323703E4B63604FF47E
S11343509473A3603C4BE360FDF78EFE3946304610
S1134360FFF75EFF029BEB61049B2B62069BEB60F5
S1134370039B384C85F8333085F83430C5F800B0E9
S1134380C5F808A0C5F87080B8F1000F49D1324BC8
S1134390D3F800A001F060FC2268511E0C4641468F
S11343A04346EAFB0041204602F0B6FB079B6B60E4
S11343B00023C5E92633C5F8A03005996867AE61C6
S11343C005F18000EF63A5F84090FEF741FF284611
S11343D000F0A3FDFCF7F1FE044695F83300FFF767
S11343E0E3F92846FEF752F92846FFF76BFE1B4A0D
S11343F01388013313801A4B1B78012B20461AD0E3
S113440009B0BDE8F04FFCF7DEBE19F0020F8BD007
S113441000231A4602E046F823200133BB42FAD1B6
S113442082E701F019FC22680023511E0C4619464C
S1134430E8FB0041B7E7FCF7C6FE09B0BDE8F04F62
S1134440FEF732BA8C8000001B810000407C000023
S1134450AC350020D0350020403A00205C3B0020E1
S11344603C3A002070B504460D4694F83230072BD0
S113447008D8013B062B0BD8DFE803F01F22221FCC
S11344801F222200FF2B1AD0BDE87040FDF7F4BDB7
S11344902046FEF797F9284684F83350FFF784F94D
S11344A0264B1B68A342204603D1BDE87040FEF7AB
S11344B0D1B8BDE87040FEF7E9B884F8335070BD58
S11344C094F8303094F8336084F83350013B072B70
S11344D0DAD801A252F823F0F9440000BF440000E6
S11344E08944000003450000F9440000F944000039
S11344F0BF440000F94400002046BDE87040FDF7C9
S1134500DFBE2046FDF7DCFEE36A5C6AB54294F840
S1134510333002D2AB42A8D8D1E7B342A5D120466A
S1134520FFF724F894F83430984228BF184694F8DA
S11345303330C5B2AB4298D1C1E700BF4C3B002039
S11345402DE9F04104460D4609B9FDF795FDFCF748
S11345503DFE48B120232B70564B6B604FF4DB7348
S1134560AB60554BEB60FEE7544B1B78012B0AD034
S113457002232B704F4B6B604FF4DD73AB604E4BDB
S1134580EB60BDE8F0812CB9FCF717FE4C4B1C68BE
S1134590FCF719FEFCF711FE94F83230072B804625
S11345A008D8013B062B0DD8DFE803F04935350F59
S11345B049353500FF2B74D0FCF705FEBDE8F0410A
S11345C0FDF75ABD2046FEF7FDF8A36B13B1204654
S11345D0FFF7AAF804F18000FEF722FE204600F05F
S11345E09DFC2046FFF77EFD364A1388013B13806D
S11345F0FF2384F832304046FCF7E5FD00232B709E
S11346002C4B6B6040F23323AB602B4BEB60BDE86B
S1134610F041FEF749B994F83030082B3ED8DFE872
S113462003F00805083D1705050805002046FDF7B9
S11346302CFE94F8323003F0FB03032BC5D104F1B4
S1134640540001F043FA0028BFD0FDF715FDBCE784
S1134650E36A5E6A204696F83370FDF716FE96F814
S1134660333096F834209A420CD094F833209A428E
S113467008D13046FEF77AFF96F83410814228BFFD
S11346800146CFB2002384F8303096F83330BB4271
S1134690CFD039463046FFF7E5FECAE7FDF7ECFC1C
S11346A0C7E7FCF790FD1F232B70024B6B6040F2B1
S11346B0092363E78C800000118100003C3A00204C
S11346C04C3B00205C3B00201FB5054B186800F0F4
S11346D026FC69460020FFF733FF05B05DF804FBB4
S11346E04C3B002000230370044B43604123836050
S11346F0034BC360034B1868704700BF358100004B
S1134700B2810000D03500202DE9F04F054685B078
S1134710884614460AB9FDF7AFFCFCF757FD6C4F09
S11347206C4E30B1202323707023C4E902366760D5
S1134730FEE7FCF755FD30B11F2323707323C4E952
S113474002366760FEE7644B93F80090B9F1010FFD
S113475008D00223237067607723C4E9023605B0CA
S1134760BDE8F08F5D4B93F800A0BAF1000F04D0C0
S11347702D23237067607C23EFE7B8F1000F2FD05F
S1134780B8F1020F2CD0B8F1080F00F0968008237E
S113479023708123C4E902366760FEE701F050FA12
S11347A04F4B1968A0FB0181029101F055FA534661
S11347B002460299404602F0AFF94A4B1B6893F84F
S11347C04C20CAB11A6D15441D652D1A25EAE575EC
S11347D0454A116821B11A6D91429CBF521A1A655B
S11347E0002D49D0404B1B685BB1AB4209D81E2356
S11347F023706760A923B0E72844186583F84C90B8
S1134800E6E701F029FA364B02901A680392FCF7A6
S1134810D4FC039A0299DFF8CCA04FF0000980463B
S1134820CC46501EE5FB010C4B46614602F074F980
S1134830DAF800B02D4A0146CDE900995B460BF148
S1134840540001F0A1F9012530B14046FCF7BBFC4E
S113485025706760B92380E7DAF8000080F83250E9
S1134860FDF7B0FF4046FCF7AEFCFEF71DF8002351
S113487023706760D22370E7FCF79FFC1C4B1D4933
S11348801A784FF00C0C02EB42030CFB02F201EB22
S1134890020C01EB83038958DCF80420914205469D
S11348A006D1FCF790FC002323706760C82354E70B
S11348B01846FDF770FF2846D5E7002D7FF46EAF4C
S11348C08623C4E9023684F800806760FEE700BFEF
S11348D035810000A88100003C3A00203D3A0020C8
S11348E0D03500204C3B0020F4350020312B000053
S11348F0323700203C37002000B589B004AB0022D9
S11349000093044803AB1146FEF7ACFC09B05DF814
S113491004FB00BF6C3B00201FB504486A4600211D
S1134920FEF732FE05B05DF804FB00BF6C3B0020CF
S113493070B505460C4609B9FDF79EFBFCF746FC2D
S113494048B1202323703C4B636040F2C913A36039
S11349503A4BE360FEE74DB90A232370364B63609C
S11349604FF4E673A360354BE360FEE72A68344BEB
S11349709A4209D00C2323702F4B636040F2CF136B
S1134980A3602E4BE360FEE72E4B1E78012E0BD066
S113499002232370284B636040F2D313A360274B98
S11349A0E3600646304670BDFFF7A6FF95F8263053
S11349B0032B3CD8DFE803F030120212EB6903B991
S11349C02B6AAB61002323701B4B636040F2E1133D
S11349D0A3601A4BE360FFF79FFFE3E7022385F828
S11349E02630EB6903B92B6A1749AB610B68174A88
S11349F02B6153B96B610D60012313800023237075
S1134A000D4B636040F2FD13E2E7002068615D61D5
S1134A1013880D600133F0E713222270064A6260A6
S1134A2040F20222A260054AE2601E46D3E7FDF787
S1134A3023FB0026CFE700BFC68100005982000097
S1134A40544D52203C3A0020683B0020643B002037
S1134A50044A002383621368C3620BB91060704771
S1134A609862FBE7603B00202DE9F74F0F9CBDF8EF
S1134A7030900191054690469A460CB9FDF7FCFA30
S1134A80FCF7A4FB364F374E30B17723C4E9023626
S1134A90202222706760FEE735B97A23C4E9023622
S1134AA00A2222706760FEE7B9F1010F15D0B9F14F
S1134AB0020F1CD1BAF1000F06D17F23C4E90236DC
S1134AC0082222706760FEE70D9BBBB98223C4E90C
S1134AD002360A2222706760FEE7B8F1000F0DD19A
S1134AE08623C4E90236082222706760FEE78A231F
S1134AF0C4E90236082222706760FEE7DFF870B06E
S1134B009BF80020012A01D1FFF7F6FE3022002194
S1134B10284602F0D1F90122019B85F82620124A89
S1134B2012492A606B600E9A0D9BEA60C5E9078AF8
S1134B30A5F82490AB602846FFF78AFF0A88013263
S1134B400A809BF80020012A01D1FFF7E5FE00222C
S1134B50AD23C4E902362270676003B0BDE8F08F6C
S1134B60C681000064820000544D52209C3B00200A
S1134B703C3A002010B51F4A002313601E4A044625
S1134B8013601E4A8AB01380FFF7ACFD2378002B14
S1134B902CD11B4B1B68002B2AD0B0FBF3F3194A12
S1134BA019491360194A1A4813601A4A00231360FA
S1134BB0194A13602246FEF783FC2378B3B90B220B
S1134BC0CDE90632CDE90433144A089412680392FD
S1134BD0134A144912680292134A14481268019243
S1134BE0134A12780092134AFFF724FB0AB010BD4F
S1134BF00A23D2E7603B0020683B0020643B00208E
S1134C00D8350020983C0020388200009C3C0020CD
S1134C106C3B0020943C0020903C0020E8350020B0
S1134C20E435002045820000E0350020A03B002050
S1134C30D4350020754C00000C4A03691168814288
S1134C4004D1136033B100225A6103E04269136155
S1134C50002BF9D1064A012380F826300023C0E94D
S1134C6004331388013B1380704700BF683B002066
S1134C70643B00202DE9FF471F4F204EDFF884805E
S1134C8038686A460021FFF73FFDFFF735FE00F064
S1134C9053F83368D8F800400133054633604FF0C9
S1134CA0030954B900F048F8154B1A68401B8242B6
S1134CB038BF1860FFF730FEE2E76846FDF7E6F913
S1134CC0A369D4F810A0013BA3614BB9A38C022BB8
S1134CD00BD1236AA361A36813B1E1682046984706
S1134CE06846FDF7B3FE5446DBE72046FFF7A4FF12
S1134CF084F82690EFE700BF983C0020943C002005
S1134D00903C0020683B002008B5FBF7E5FB4FF022
S1134D10E022D2F8FC3D43F08073C2F8FC3D054B21
S1134D2000225A601A6842F001021A60BDE8084085
S1134D30FDF7A4B9001000E0014B5868704700BFAC
S1134D40001000E0B0FA80F0704790FAA0F0B0FADA
S1134D5080F0704790FAA0F0704700BF72B64EF62C
S1134D602250CEF2000040F2FF01C0F200010170B7
S1134D70002080F3098843F6A040C2F200000168D5
S1134D8081F3088800F006F943F23270C2F20000A1
S1134D9043F23371C2F200010A78027043F64C30D8
S1134DA0C2F2000043F65031C2F200010A68026008
S1134DB0106880F30988EFF3148040F0020020F0BB
S1134DC0040080F31488BFF36F8FBDE8F04F0FBC6D
S1134DD0BDE8005006BC62B6084737484FF0805122
S1134DE00160704734484FF0805101607047602083
S1134DF080F3118843F64C32C2F200021168002994
S1134E0001BF2E4A136823F0010313600ED0EFF3A1
S1134E1009801EF0100F08BF20ED108A20E9F04F22
S1134E2043F64C35C2F2000529680860744600F068
S1134E30B1F843F64C31C2F2000143F65030C2F2ED
S1134E40000003680B6043F23272C2F2000243F2C4
S1134E503371C2F200010878107044F0040E002B84
S1134E600AD01868B0E8F04F1EF0100F08BFB0EC7D
S1134E70108A80F309881BE043F6A041C2F20001C6
S1134E800868A0F11C0080F3088840F20001C0F219
S1134E900011C16144F6C161C0F20001816144F2B4
S1134EA0C961C0F2000141614FF6F97ECFF6FF7E81
S1134EB0002080F31188704704ED00E034EF00E037
S1134EC000BFFDE70B4B1A680B4B02F180421B68D5
S1134ED0013A03EB8203094A23F0070313604FF0FE
S1134EE0E023D3F8343F03F04043B3F1404F00D004
S1134EF0FEE770479C35002098350020A03C002038
S1134F0007B5FCF75AF90190FDF7B6F8019803B01C
S1134F105DF804EBFCF757B970477047704770476A
S1134F2010B5029C02EB840222F007024FF0807459
S1134F3042E90204164842F80C0C4FF012344FF0C8
S1134F40033042E905044FF0023042E907306FF0C4
S1134F50020C4FF0113342E90A3C42F8201C4FF096
S1134F6009334FF0103142E90C314FF008304FF063
S1134F70073342E90E304FF006344FF00533104644
S1134F8042E910344FF0043340F8443D10BD00BFF3
S1134F90C946000010B50D4C206848B10C4B1B7875
S1134FA033B1436F0BB9FDF753FC2068FDF734FCB4
S1134FB0084C23684BB10020FFF71EF9012804D0E8
S1134FC02068BDE81040FFF79BBF10BD503B002098
S1134FD0443A00204C3B00204111064A012300F0D2
S1134FE01F0003FA00F052F82130184342F8210060
S1134FF0704700BFB03C0020044B1B681BB1044B3E
S11350000360002070470120704700BFC0440020A7
S1135010A43C002070B50D4C246884B10C4C268847
S11350208518B5420DDC6688CD18B54209DC52B14D
S11350304BB1A080E18022816381002070BD0120FA
S1135040FCE70420FAE70520F8E700BFC04400208D
S1135050A43C00202DE9F74F0093444B1B68002B20
S11350607FD0DFF810910D9FB9F80630B9F80A2007
S11350705D181A441FFA82FAADB24FF0010B1FB942
S1135080384603B0BDE8F08FABB29A456BD9384AC5
S1135090B9F80840B9F80430241A02EB0511009A53
S11350A0BC4228BF3C46161E18BF01260344764264
S11350B0072CA7EB04079BB2F6B221D81C44BEB957
S11350C0A34217D2DE0803F007020BFA02F08A5D4E
S11350D0013322EA00028A559BB2F1E7D80803F0B3
S11350E007020E5C0BFA02F2324301330A549BB2FC
S11350F0A342F3D32846FFF76FFF01350020BEE734
S11351004FEAD30C01EBD30813F0070310D00BFACA
S113511003F211F80CE0D2B2501E52420EEA000023
S113512032401043083B01F80C0008F101081C440C
S1135130E20809D031464046019201F0BDFE14F068
S11351400704019AD6D090440BFA04F498F800307E
S1135150E4B26242013C134034401C4388F80040EE
S1135160C8E701278CE704278AE700BFC044002072
S1135170C03C0020A43C002037B5124D2B68FBB97D
S1135180FBF756F9044618B10124204603B030BD9C
S1135190FBF742F928600028F6D0028841880A4BC0
S11351A01A801A814A4359809C80DC8059812046A8
S11351B0CDE90042234622462146FFF74BFFE4E7B0
S11351C00024E2E7C0440020A43C00202DE9F84379
S11351D01B4FDFF874803C68DFF8689000230125DA
S11351E01A46D8F800004188D6188E4207D3FBB976
S11351F013481022002101F05FFE002012E0E107B5
S113520008D50133D118C9060ABF57F825406408E8
S11352100135E6E753B109EB0211FBF7A3F80346A6
S113522010B10720BDE8F883721CEBE70132E9E70F
S1135230044901EB0211FBF795F80028D8D0F0E7F8
S1135240B03C0020C03C0020C044002030B10268C3
S11352500021538812880846FFF7DCBE05207047FA
S113526037B50446A8B14568FFF7F0FF014668B9B1
S113527022681389528953430193EBB20093C5F317
S11352800742C5F30723FFF7E5FE0146084603B0CE
S113529030BD0521FAE710B470B18369426984898D
S11352A0018A01330132121B5B1A20469BB25DF85E
S11352B0044B92B2FFF7AEBE05205DF8044B704775
S11352C0F0B4D0B1C9B10E688C68A64218DA4D6842
S11352D0CA68954214DA002E14DB002D12DB016833
S11352E00F88BC420EDA49888A420BDAC0E90365AA
S11352F0C0E90542F0BCFFF7CEBF0520F0BC704703
S11353000420FBE70320F9E730B5054687B000B376
S113531000226FF07F43C0E9012301A8FFF76CFE70
S1135320044698B9019B2B601A885B88CDE902007A
S1135330013A013B02A9284604920593FFF7C0FFF6
S1135340044618B90449284600F094FA204607B0E8
S113535030BD0524FAE700BFA085000010B5040C99
S11353600C70010A1170187010BD73B50D46164605
S1135370044690B10C3000F09FF980B1A26801237B
S11353800193D3B20093B1B2C2F30723A8B2C2F31C
S11353900742FFF75FFE02B070BD0520FBE7012066
S11353A0F9E773B50D4616461C4688B10C3000F07B
S11353B083F978B101230193E3B20093C4F3074264
S11353C0C4F30723B1B2A8B2FFF744FE02B070BD24
S11353D00520FBE70120F9E7C36810B504468B42BA
S11353E06369CCBF012000208B42A369B8BF40F0A1
S11353F0020093422369B8BF40F004009342C8BF3F
S113540040F0080010BDF0B5164685B005460028EA
S113541040D00269B2423FDC8269B2423CDB99422D
S1135420C2BF0A461946134642698A4234DBC4683D
S11354309C4231DC8C42B8BF0C469A42D4BFC4EBC8
S11354400207C4EB03070137A0B20123BAB2B1B219
S1135450FFF7E0FD0446D0B9A8680DF10F030DF184
S11354600E020DF10D01FFF779FF9DF80F30009347
S1135470214620469DF80E309DF80D200197FFF738
S1135480E9FD044618B92846FFF705FF04462046FF
S113549005B0F0BD0524FAE70124F8E7F0B50E469F
S11354A085B00546002840D0C168B1423FDC41695F
S11354B0B1423CDB9A42C2BF11461A460B4681698F
S11354C0914234DB04699C4231DC9442B8BF1446F7
S11354D09942D4BFC4EB0107C4EB03070137A1B25F
S11354E0BBB20122B0B2FFF795FD0446D0B9A8685B
S11354F00DF10F030DF10E020DF10D01FFF72EFF5B
S11355009DF80F300093214620469DF80E309DF8FB
S11355100D200197FFF79EFD044618B92846FFF7B2
S1135520BAFE0446204605B0F0BD0524FAE701247E
S1135530F8E72DE9F74F0C9F0C4615461E468046AA
S1135540002800F0B180994205D13B4603B0BDE884
S1135550F04FFFF7A3BFBA4204D103B0BDE8F04F48
S1135560FFF751BFFFF738FF3A46314681464046C0
S1135570FFF732FF00228246114649EA0A03DBB2F2
S1135580002B00F0958009EA0A03DBB2002B40F0FF
S11355908D80B9F1000F14BF4B465346D80717D579
S11355A0D8F80C100B1B7A1B5A43331B92FBF3F2F3
S11355B02A444046FFF710FFB9F1000F02D1174605
S11355C00E4603E0814615460C4650468246D4E713
S11355D0980702D5D8F81410E4E7580709D5D8F885
S11355E01820531B311B59437B1B91FBF3F12144BE
S11355F0DFE71B07DDD5D8F81020F2E77B1BB442A8
S113560024DA321B934224DC3B4637461E462B46A3
S11356104FF0000B25461C46A5EB0709B442A7EB47
S1135620050309EBD979B4BFA6EB040AA4EB060A77
S113563001934FEA6909B442D4BF01264FF0FF3603
S1135640BD421ADD002003B0BDE8F08FA21B9342D7
S11356500ADD4FF0010BBD42DEDD234634461E4613
S11356602B463D461F46D7E73B4637461E462B464C
S11356704FF0000B25461C46EDE7BBF1000F10D0A0
S11356802A4621464046FFF770FE0028DBD1D1446C
S1135690B9F1000FC2BF019BA419A9EB030901359D
S11356A0CEE722462946EDE70520CCE70120CAE7EC
S11356B0BD42A3DBEB1BA2E778B103688B420BDC92
S11356C083688B4208DB4368934205DCC0689042E0
S11356D0B4BF002001207047002070472DE9F04F2F
S11356E085B090469DF8382002920446002800F0C8
S11356F08180A1F120025E2A7ED890F82820022A17
S11357008DB21AD13A291AD020291AD0303DADB21F
S1135710228CAA4270D9E26901924FF0000B1A461A
S11357205E4694F825101FFA8BF399420BD8B6FA0B
S113573086F0400905B0BDE8F08F203DE7E70A2573
S1135740E6E70B25E4E794F82230012B05D0022B81
S11357501DD0019B53F825A002E0019B13F805A07E
S11357604FF0000994F824301FFA89F7BB4212D88D
S113577094F8243094F827100B449F4229DB94F8C2
S113578023301D44ADB20BF1010B0132C9E7019B7B
S113579033F815A0E4E71AF0010F0FD008EB090164
S11357A020460392FFF7E1FD0128C3D8039A00B90C
S11357B001364FEA5A0A09F10109D3E7029B002B8B
S11357C0F7D06368039208EB09012046FFF7E9FD6F
S11357D0EAE7029B5BB16368039208EB070120468A
S11357E0FFF7DFFD0128A5D8039A00B90136013778
S11357F0BFB2BDE705209DE702209BE72DE9F74FE7
S11358000C9F9DF834A09846054678B371B390F880
S113581028306BB30C468E18C3464FF00009B442CF
S113582005D1B9FA89F0400903B0BDE8F08F14F846
S1135830011B0A2907D195F825303B4495F82670B9
S1135840C3461F44EBE7CDF800A03B465A46284622
S1135850FFF744FF0128E7D808B909F1010995F8D1
S1135860243095F8272013449B44D8E70520DBE730
S11358700220D9E708B520B11C30102219B901F073
S11358801BFB052002E001F009FB002008BD2DE907
S1135890F3470546084692461C46DDE90A7901911C
S11358A09DF8308001F0E6FB95F8243095F825202A
S11358B0019900FB03F695F82630012C13440AFBEA
S11358C003920CD0022C0FD00023CDE90A283B44CC
S11358D00246284602B0BDE8F047FFF78FBF2B68A9
S11358E01B889B1B5B08F0E72B681C88A31BECE759
S11358F030B50F4C41612368ABB92060836011E07F
S1135900891A9A6841611D462AB113465A698A4226
S1135910F6D955B11A46A8601346836013B15A6983
S1135920511A596130BD0025F0E72060F5E700BF4A
S1135930DC44002010B500F077FA0A4C0A4B1968D1
S11359402368C31A01B10BB9206010BD4A699A4299
S11359502EBFD21A9B1A00224A6128BF00238968ED
S1135960F0E700BFC8440020DC44002038B50F4BEA
S11359700F4D1C682B685B6902201C4400F082FAFE
S1135980204600F057FA0B492A6800230B70D08890
S1135990800702D501230B7038BD9268002AFBD022
S11359A050690344012BF2D9F6E700BFC844002034
S11359B0DC440020D044002070B516469DF8142025
S11359C00271049A0260C0E903360022BDF818305F
S11359D08260C38004460D4600F026FA3044A0617C
S11359E03DB9E368656113B121682046984796B1D3
S11359F03546FBF7E2FB0646FFF79CFF29462046A7
S1135A00FFF776FF054B1B68A34201D1FFF7AEFFFA
S1135A103046FBF7D8FB002070BD00BFDC440020FB
S1135A200C490B6800227BB183420AD183687AB1A6
S1135A30936083681BB15A6941690A445A61002022
S1135A4070471A469B68EEE70028EFD002207047A3
S1135A500B60EEE7DC44002070B5154EFBF7ADFBA0
S1135A6034780546FCB9134B1C60134B1C60134B74
S1135A701C8000F093F9012000F004FA00F040FAD1
S1135A800F4B0246186020B92846FBF79CFB2320E5
S1135A9070BD23460B4840F2E73101F03DF80A4B54
S1135AA01860012333702846FBF78DFB0020EFE7D5
S1135AB0C4440020DC440020C8440020D244002018
S1135AC0D844002018FCFFFFCC4400202DE9F0410D
S1135AD00546F8B1FBF771FB0F4F0646FFF72AFFA7
S1135AE02846D7F80080FFF79BFF044628B13046CC
S1135AF0FBF769FB2046BDE8F081A8453B6803D16C
S1135B0023B1FFF733FFF2E7002BF0D1022000F0BE
S1135B10C7F9ECE72224EDE7DC440020F0B50D469C
S1135B2085B016461F46044680B1FFF7CFFFBDF887
S1135B302C3002939DF828302A46CDE9007329467B
S1135B4033462046FFF738FF05B0F0BD2220FBE7BF
S1135B5038B50C46054698B191B100230B70FBF79C
S1135B602CFB084B1B6801210BB122781AB1FBF7FF
S1135B702AFB002038BDAB4214BF9B682170F3E7B9
S1135B802220F7E7DC440020F0B587B01F4600234D
S1135B900D4616468DF817300446A0B10DF11701D5
S1135BA0FFF7D6FF9DF817207AB9BDF83430029379
S1135BB09DF830302946CDE9007320463346FFF77F
S1135BC0FBFE07B0F0BD2220FBE70320F9E700004D
S1135BD0F8B50C460546C8B1C1B1FBF7EEFA064666
S1135BE0FFF7A8FE6B692360134B1B68AB420FD011
S1135BF023B93046FBF7E7FA03201CE05969226811
S1135C009B680A442260F1E700230FE0222012E09F
S1135C100A4D276800F008F92B68C01A8742F3D9A7
S1135C2000F002F92B68226813441B1A30462360E3
S1135C30FBF7C9FA0020F8BDDC440020C84400206A
S1135C4038B5FBF7BAFA054600F0EEF804462846E4
S1135C50FBF7B9FA204638BD014B1868704700BFFE
S1135C60D8440020C2072DE9F84F04460BD5464A14
S1135C70138801339BB21380FFF75CFE434B1B6810
S1135C800BB1FFF773FEA3077CD5FBF796FA054625
S1135C90FFF750FE4FF0000A3C4FDFF8F8905646ED
S1135CA0D0463C680CB163698BB1394B0022012E9C
S1135CB01A7003D1BAF1020F08BF1E70002C51D024
S1135CC0FFF754FE2846BDE8F84FFBF77CBA23469D
S1135CD01A792179914288BF1C469B6813B15A698D
S1135CE0002AF5D02846FBF76EFAD4F810A0BAF1D2
