:1000000000100020510400004D0400004D040000C9
:100010004D0400004D0400004D0400004D0400009C
:100020004D0400004D0400004D0400004D0400008C
:100030004D0400004D040000E73900004D040000AD
:100040004D0400004D0400004D0400004D0400006C
:100050004D0400004D0400004D0400004D0400005C
:100060004D0400004D040000690500004D0400002F
:100070004D0400004D0400004D0400004D0400003C
:100080004D0400004D040000850500004D040000F3
:100090004D0400004D0400004D0400004D0400001C
:1000A0004D0400004D0400004D0400004D0400000C
:1000B0004D0400004D040000DD4700004D04000029
:1000C0004D0400004D0400004D0400004D040000EC
:1000D0004D0400004D0400004D0400004D040000DC
:1000E0004D0400004D0400004D0400004D040000CC
:1000F0004D0400004D0400004D0400004D040000BC
:100100004D0400004D0400004D04000010B5054CE6
:10011000237833B9044B13B10448AFF300800123B3
:10012000237010BD2C11002000000000405E000074
:1001300008B5034B1BB103490348AFF3008008BD6A
:100140000000000030110020405E0000A3F5803A5E
:10015000704700BF174B002B08BF134B9D46FFF79E
:10016000F5FF00218B460F461348144A121A04F07B
:1001700015FF0E4B002B00D098470D4B002B00D0E5
:1001800098470020002104000D000D48002802D0EF
:100190000C48AFF3008004F0CFFE2000290004F0EB
:1001A0009DFC04F0B5FE00BF000008000000000048
:1001B00000000000001000202C1100206C460020E0
:1001C000000000000000000008B5042201230F21F8
:1001D000032001F051FC002008BD00002DE9F04192
:1001E0001A4E0446884617460FCE86B06D460FC598
:1001F00096E8030085E8030015482568012100F012
:100200006FFA6068012100F06BFA617B207B0023AC
:10021000042201F031FC617A207A0023042201F0EB
:100220002BFC28466946CDF80880ADF8107001F027
:1002300065FD237CA27B1B0643EA0223AB670020FB
:100240000A236B6706B0BDE8F08100BFD84F0000FD
:1002500000350A0070B506680C468D18AC4201D115
:10026000002070BD14F8011B304601F0A1FDF5E738
:10027000026813699B06FCD57047000013B504465D
:1002800004F070F9247B00230122CDE900326400E0
:10029000034AB0FBF4F1034804F0C6F802B010BD05
:1002A000A902000048110020024B4FF40052C3F88D
:1002B000A820704700A0004073B50F4B0F4E4FF4BD
:1002C0008045C3F89C500446407B04F0ABFA0423FD
:1002D00002220DF106013046ADF80630FFF7BAFFF5
:1002E0003046FFF7C5FFA07B04F09CFA044B0020CA
:1002F000C3F89C5002B070BD00A000460010002062
:1003000000A0004438B5044601211248124D00F007
:10031000E7F9A16811480022FFF760FF00230422DB
:100320000E21032001F0A8FB002304220D2103204D
:1003300001F0A2FB94E80F0085E80F00084B0122B2
:1003400020461A70FFF79AFF2046FFF7B5FF0020FE
:1003500038BD00BF00350A006811002000100020E1
:10036000641100202DE9F74F0688DFF8A4B0984605
:1003700003795E43254B14464FF48042C3F89C201A
:100380000134A4B20546407B0F4604F04BFA230229
:1003900043F001031E48ADF8063002220DF10601BC
:1003A0000134FFF757FF2402F610A4B24FF0000902
:1003B00008F1FF3AC1450ED11548FFF759FFA87B58
:1003C00004F030FA134B4FF480420020C3F89C2015
:1003D00003B0BDE8F08F394632465846FFF73AFF82
:1003E000CA4514BF44F0FF034FF6FF7302220DF11C
:1003F0000601584604F58074ADF806303744FFF71F
:1004000029FF09F10109A4B2D4E700BF00A000460A
:100410000010002000A00044034B04481B78002B70
:1004200008BF0020704700BF641100206811002041
:100430001FB5054B0FCB6C4684E80F002046FFF735
:1004400061FF04B010BD00BFF04F0000FEE70000E8
:1004500008B500F059F8064B0649074A8B4201D30C
:10046000FFF778FE52F8040B43F8040BF6E700BFE1
:10047000001000202C110020485E0000004870474A
:10048000005A6202104AD2F8943003F00703023B8C
:10049000032B13D8DFE803F00C14020E0B4B1B6880
:1004A000D2F80001C0F304200130B3FBF0F0704734
:1004B000074BF4E7074B1B685B08F1E7054BEEE7DA
:1004C0004FF40043ECE700BF00400E402010002036
:1004D000181000201C10002008B5FFF7D3FF054BB3
:1004E000D3F80831C3F308230133B0FBF3F0024B18
:1004F000186008BD00400E4014100020014B186821
:10050000704700BF18100020044B054A9A60D3F8CA
:10051000882042F47002C3F88820704700ED00E0A4
:10052000000000004FF4004070474FF47A707047AD
:10053000014B1868704700BF2010002070B5094EAD
:100540000446012504B970BD94FAA4F0B0FA80F015
:1005500005FA00F324EA030456F82030002BF1D00A
:100560009847EFE778110020054BD3F82804D3F81B
:100570001C24104000F05530C3F82404FFF7DEBF00
:1005800000A00040054BD3F82804D3F81C241040E9
:1005900000F0AA30C3F82404FFF7D0BF00A0004049
:1005A000FEE700000C4B984210D90C4B984210D932
:1005B000022201230A490B640A49D1F8003123F0D1
:1005C000807343EA0263C1F800317047002213468A
:1005D000F0E70122FBE700BF0048E8010090D003EC
:1005E0000000C84300400E4038B5114B5B68114B0A
:1005F00000221C46C9B21D798D4202D11D68854278
:1006000012D20132052A03F10803F4D10A4841F25B
:100610003A41FFF7C5FF032205494B6823F04073B9
:1006200043EA02634B6038BD04EBC2025279F3E740
:1006300000000E40F8500000005000001F2810B5C8
:10064000044604D9034840F22F11FFF7A9FF012007
:10065000A04010BD6350000038B5074C41F671331F
:10066000256C2364FFF70AFF0021FFF7BDFF0DB1E2
:100670000023236438BD00BF00000E40044BDB6B39
:100680005B0604D4034AD2F8C830002BFBD1704774
:1006900000300E400000C64308B5FFF7EFFF024BE5
:1006A0005868C0F3014008BD00300E40044BD3F839
:1006B0004421D20703D4D3F840211042FBD1704724
:1006C00000400E4038B5054C41F67133256C23646B
:1006D000FFF78AFF0DB10023236438BD00000E40F0
:1006E00038B5C0F30323013B092B24D8DFE803F01E
:1006F0002A2D2323051619231C20154C0023C0F393
:10070000043513B11846FFF7D1FF04F1424404F554
:10071000801405EBC404A400216038BD0D4C0123F6
:10072000EDE70D4C1023EAE70C4C4FF48033E6E77D
:100730000B4C0023E3E7BDE838400A4841F6D711E7
:10074000FFF72EBF084C0023D9E7084C0023D6E75B
:10075000B0400E40E0400E40E8400E40F0400E40F9
:1007600050410E400050000000400E40C0400E407E
:1007700008B5C0F30313013B092B60D8DFE803F091
:10078000050B0F195F5F1F233C532E4BD3F800015D
:10079000C0F3042008BD2B4BD3F81401F8E7294B14
:1007A000D3F80001C0F300600130FFF747FF0138C4
:1007B000F0E7244BD3F80C01C0F30820EAE7214B03
:1007C000D3F80801F8E7204B984209D01F4B984214
:1007D0000CD041F67B311E48FFF7E2FE0020D9E73E
:1007E000184BD3F8200100F00F00DEE7154BD3F8CB
:1007F0002001C0F30110D8E7164B984208D003F54A
:10080000B01303F58053984206D041F69F31E2E7DA
:100810000C4BD3F82801ECE70A4BD3F82801C0F3BE
:1008200001200430C1E70C4B984205D1054BD3F8A9
:10083000300100F00300ADE741F6AE31CBE741F601
:10084000D331C8E700400E408006160080162E0007
:100850000050000090171A00A009140008B5FFF717
:1008600087FF013008BD000000F00F00013808B517
:10087000072844D8DFE800F0040F1943232D43353F
:10088000264BD3F8943003F00703023B052B3DD8E9
:10089000234AD05C08BD214BD3F8803003F0070316
:1008A000013B032B34D81F4AF3E71C4BD3F88430A9
:1008B00003F00703013B032B2AD81B4AE9E7174B38
:1008C000D3F8883003F00703013B032B20D8174AE5
:1008D000DFE7124B1B6F13F0010F0CBF072009203D
:1008E000D8E70E4BD3F85C3103F03003202B11D046
:1008F000302B11D0102B14BF01200720CAE70C4861
:1009000041F62771FFF74CFE0020C3E70520C1E741
:100910000120BFE70420BDE70820BBE700400E40F0
:10092000C9500000CF500000D3500000CF5000004D
:100930000050000038B52C4B984205460AD02B4B8E
:10094000984207D02A4B984204D02A4841F23A51A3
:10095000FFF726FE2846FFF787FF234B9D420446FC
:1009600011D0224B9D4212D0214B9D4213D1224BDC
:10097000D3F8804004F00704042C2DD8DFE804F0FD
:100980002A11151D19001C4BD3F88440F2E71A4BAD
:10099000D3F88840EEE7174841F26951FFF700FEAF
:1009A000EAE7BDE83840FFF7BDBDBDE83840FFF7D6
:1009B000BFBDBDE83840FFF7B8BDFFF763FD0E4B84
:1009C0000446D3F80001C0F300600130FFF736FEA3
:1009D000B4FBF0F4204638BD064841F2BB51FFF7A6
:1009E000DFFD0024F6E700BF03002000050024001F
:1009F00002001E000050000000400E4038B500F418
:100A00007813B3F5B01F05467FD02ED8B3F5402F2D
:100A100069D011D8B3F5802F54D006D843B1B3F5BF
:100A2000003F5AD041F607311AE0B3F5202FF9D133
:100A3000BDE83840FFF726BDB3F5801F00F0A28067
:100A4000B3F5A01F57D0B3F5602FEBD15B48FFF78C
:100A50000BFF072800F096800928E9D041F2FC211D
:100A60005748FFF79DFD002036E0B3F5381F5AD0F8
:100A700013D8B3F5001F5FD00AD8B3F5D01F5DD0EF
:100A8000B3F5F01FCED14F48BDE83840FFF752BF55
:100A9000B3F5101FC6D14C48F6E7B3F5481F57D041
:100AA000B3F5781F00F08280B3F5401FBAD14748F4
:100AB000FFF740FF464B0446D3F82801C0F301205E
:100AC00004302BE0FFF7DEFC414BD3F80C31C3F3CD
:100AD00008230133B0FBF3F038BDFFF7D3FC3C4BE8
:100AE000D3F80831F3E7FFF7CDFC394BD3F81431D5
:100AF000C3F30423EDE73448FFF71CFF344BD3F86E
:100B0000303103F00303D840E6E72E48FFF712FF29
:100B10002F4B0446D3F8200100F00F00FFF78EFDA5
:100B2000B4FBF0F0D8E72748FFF704FF284BD3F8D1
:100B30002031C3F30113E6E72448A5E72348FFF774
:100B4000F9FE234B0446D3F82801C0F30110E5E772
:100B50002048FFF789FE0138072824D801A353F85D
:100B600020F000BF670A0000A70B0000A70B0000E1
:100B70008B0B0000A70B0000A70B0000850B0000EB
:100B8000930B0000144B1868A6E7BDE83840FFF748
:100B9000B5BCFFF777FC0E4BD3F80031C3F3042349
:100BA00003FB000098E741F2333159E7FFF76AFC95
:100BB00004462846FFF752FEB2E700BF06000E00CB
:100BC0000050000002001E00050024000300200069
:100BD00000400E40B800320024100020013838B523
:100BE0000C46032864D8DFE800F002441A2FB1F560
:100BF000007F04D3324842F22571FFF7D1FC314A1D
:100C0000C4F30804D2F86838002BFBD12E4A136ACB
:100C100023F4FF7323F001032343136238BD7F29BC
:100C200004D9274842F23271FFF7BAFC254A04F092
:100C30007F01D2F86038002BFBD1234B1C6924F0D4
:100C40007F040C431C61E9E77F2904D91C4842F268
:100C50004D71FFF7A5FC1B4A04F07F01D2F8643800
:100C6000002BFBD1184B9C6924F07F040C439C6142
:100C7000D4E7154DD5F890305B0704D5104842F203
:100C80005D71FFF78DFC6B6A23F0300343F01003B6
:100C90006B62C4F3C311CB1C2A6B0C490F2B01EA06
:100CA000020128BF0F23214341EA03712963B5E7FD
:100CB000BDE83840024842F27771FFF771BC00BFCF
:100CC000005000000020C84300400E4000F8FF0F15
:100CD000022810B50C4604D0144842F28F71FFF779
:100CE0005FFC134B5B6A13F0300F1BD0202C16D027
:100CF000302C17D0B4B10D4842F2AA71FFF750FC66
:100D00000C4B0B4AD2F8901033EA0101FAD15B0286
:100D10004ABFD2F8A0000120C0F3802010BD4FF4DC
:100D20000003EEE74FF44003EBE700BF0050000084
:100D300000400E40FF33E107022808B50CD129B16D
:100D4000094B4FF48060C3F8A80059664AB1BDE86A
:100D500008400220FFF7BCBF044842F2E071FFF7F1
:100D60001FFC012008BD00BF00400E4000500000E5
:100D700004282DE9F04704460F4691461FD83D4B05
:100D80003D4A13F800A03D4B13F80080F1B93C4BED
:100D900033F810301366012303FA08F8D2F89030C4
:100DA00013EA080FFAD1B9F1000F5AD00125324ADF
:100DB00005FA0AF5D2F890302B42FBD151E0BDE89C
:100DC000F047304842F27461FFF7EABB2E4B02282D
:100DD00033F8106047D1536A13F0300F43D12B4BD7
:100DE000DB6B5A0504D4274842F28361FFF7D8FB36
:100DF000214A536ADB0705D5536A23F0300343F0D9
:100E000010035362224D1C4BA8441E664FEA88080B
:100E1000D8F80030002BFBD0B9F1000F21D0554499
:100E2000AD002B68002BFCD0022C1AD1CFB1124F91
:100E3000796A11F0010118D0012220212046FFF724
:100E40007BFFD7F89C40012200210220FFF790FF92
:100E5000C4F30A010220FFF7C1FE3E662B68002B97
:100E6000FCD0BDE8F0870027CCE72046FFF730FF35
:100E7000E7E700BFD750000000400E40DC50000004
:100E8000EC50000000500000E250000000300E4026
:100E90008004F210112838B50C460FD000F00F0076
:100EA0000138072800F2EB80DFE810F0240066002C
:100EB0009A00E9007D00B400E900C200042912D1C3
:100EC000FFF71CFB0546A8B10021284600F056FAA2
:100ED000023C0A2C45D8DFE804F04A473137444445
:100EE00044443D0F4D00052904D1664B1D68664BF7
:100EF0009D42E9D80025EBE7032005240122114695
:100F0000FFF736FFFFF7A8FB0DB1FFF7B7FB5F4B0D
:100F10005C67FFF7E1FA0446FFF7B4FAFFF742FB1C
:100F2000FFF7BAFB01462046FFF7CCFB002D5DD151
:100F300028460121BDE8384000F020BA5448FFF7A8
:100F400031FB02200446D9E75148FFF72BFB01246F
:100F50000320D3E741F6E871BDE838404D48FFF77C
:100F60001FBB41F6ED71F7E701200324C6E700201F
:100F70000424C3E70724C5E7062933D14548464D75
:100F800042F22C01FFF70CFB424842F23C01FFF712
:100F900007FBFFF777FAFFF705FB404B0122C3F889
:100FA0000826032321E006293D4DEDD0013C092C04
:100FB0002BD801A353F824F011100000EF0F00000C
:100FC000FD0F00000B1000000B100000930F00003D
:100FD0000B1000000B1000000B100000E90F0000C8
:100FE000304DE3E72C4DE1E704232B6038BD0122AF
:100FF00011460020FFF7BCFE0223F6E7012211464E
:101000001046FFF7B5FE0123EFE742F26701A3E7C1
:101010000023EAE7072904D0092906D042F2F101AA
:101020009AE71A4B00221A67E0E7184B0122FAE709
:101030004C1E072C1ED8DFE804F0201D1D161D1DB8
:101040000F0403221149D1F85C3123F0300343EA45
:101050000213C1F85C31C9E7012211460420FFF7F1
:1010600087FE0122EEE7012211460220FFF780FEF3
:101070000222E7E742F24F116EE70022E2E742F276
:10108000262169E71C100020002D310100400E4090
:101090000148E8010050000080400E400010C843A5
:1010A00088400E4084400E4010B504461120FFF7E2
:1010B000DBFB042804D1274842F20F51FFF770FAF6
:1010C000012200210220FFF753FE63781BB9A378A9
:1010D0000BB9E37823B11F4842F24B51FFF760FA96
:1010E000237C012B04D11B4842F25251FFF758FADE
:1010F000194A217C536A23F00103022908BF43F0F7
:1011000001035362154B2178C3F8A014637AA188B8
:1011100043EAC123D362136BA07A217A03F07F6381
:101120000343E08843EAC02343EAC11303310F2994
:1011300028BF0F2143EA01731363A37B617B1B016B
:1011400043EA0133E17B0B43217B43EA01435363D1
:1011500010BD00BF0050000000400E400000C8431A
:10116000EFF3108072B6704700B962B67047EFF3C4
:101170001180602383F31188704780F311887047D2
:10118000034B5868C0F30800003818BF01207047AF
:1011900000ED00E0EFF31083DB0706D4EFF31180DE
:1011A0005F2894BF00200120704701207047000095
:1011B000034BD86B80F04000C0F38010704700BF35
:1011C00000300E4038B542EA0323B3F5007F0546F0
:1011D0000C463ED019D8B3F5807F36D00AD883B3F9
:1011E000012B21D01F4840F68E11FFF7D9F90022BC
:1011F00013461FE040F201129342F3D11A4BD3F889
:1012000024321A0EC3F3074314E0B3F5407F24D011
:1012100040F20132934210D040F201229342E1D1D8
:10122000114BD3F8283202E00F4BD3F82432C3F32A
:101230000722DBB22B60226038BD0B4BD3F828327B
:10124000DFE7094BD3F81C32F1E7074BD3F81C3228
:10125000D7E7054BD3F82032E9E7034BD3F8203228
:10126000CFE700BF205100000081E00F08B5FFF775
:101270009FFF20B1024AD2F8C830002BFBD108BD35
:101280000000C6431A4B022810B5D3F830320C4682
:1012900012D0032813D0012814BFDBB2C3F30723F5
:1012A0001B0323F47042ECB95AB140F61D111148EA
:1012B000FFF776F9002010BDC3F30743F0E71B0EDC
:1012C000EEE70D49CA6E22F470421343CB6601204B
:1012D000F1E70949D1F8EC2022F470421343C1F838
:1012E000EC30F4E7002AF4D040F62911DFE700BF24
:1012F0000081E00F2051000000300E40F8B5044698
:101300000F46FFF755FF78B3FFF7B0FF174B5B6849
:10131000C3F301439C4227D0154BD3F80061FFF77C
:10132000B1F8022C05460FD1124BC6F3042606FB7A
:1013300000069E4204D9104840F23161FFF730F9AF
:1013400002212846FFF7BEF9C4F1020210239340A0
:10135000064A13610FB1FFF789FF2CB921462846D1
:10136000BDE8F840FFF7AEB9F8BD00BF00300E4051
:1013700000400E40002D31012051000013B50246FF
:10138000FFF716FFC8B152B90D4B0191D3F80041D8
:10139000FFF778F8C4F30422019902FB0002094B1D
:1013A0001B7843B1084B9A4205D8022002B0BDE831
:1013B0001040FFF7A3BF0020F8E702B010BD00BF48
:1013C00000400E40FE110020002D310109494278F5
:1013D0000B6823F4407343EA0223022A0B6008D10E
:1013E000054B5B6A9B0004D5044840F26D61FFF732
:1013F000D7B8704700300E4000400E40205100002A
:10140000224B4AF6E85210B5596B5A639A6FD207CD
:10141000FCD41B6C13F003031EBF1D4A0124C2F849
:10142000B44A834204D110B9194BC3F8B40A10BDB1
:10143000032B00D09BB9431E012B10D8134A4FF445
:101440000023D362936FDB07FCD4136C23F00303F8
:1014500043F0010313640D4A536A1C03FCD50B4B84
:101460009A6FD207FCD41A6C22F0030202431A646A
:101470009A6F12F00102FBD10038054C18BF012011
:101480000129C4F8B40A08BF5A63D0E700300E40FF
:101490000000C6432DE9F04FA0F5E16389B00024B8
:1014A000B3F5966FCDE90244CDE90444CDE9064495
:1014B00006468A46934605D940F6EE215548FFF781
:1014C0006FF8A3E0B0F5E16F534B8CBF012200220F
:1014D00049D1D3F81832C3F30721DBB20791049343
:1014E0004FF416754FF4966748E0BBF1000F0ED02D
:1014F000D9F85C2022F4FE4222F00202B6F5E16F38
:1015000042EA012218BF02200243C9F85C20BAF166
:10151000000F26D020460021FFF7B4FE044610B984
:1015200040F64B31CAE701214046FFF7ABFE0446C7
:1015300010B940F65331C1E7384A536EBD4238BF47
:101540003D4623F4FF73E72D23F0010328BFE72571
:10155000B6F5E16F18BF43F0010343EA4503536654
:1015600054E0012452E0D3F81832190EC3F30743B4
:10157000079104934FF496654FF4E167DFF89C9070
:10158000D9F84C400192C4F30174234605A902A87E
:10159000FFF718FED9F8EC30019AC3F3012843464F
:1015A00006A903A8FFF70EFE049BF01B079FF91A7C
:1015B0004143B1FBF5F299182CBF012300238F4260
:1015C0001ED3EBB9069A039FD31B4343B3FBF5F33A
:1015D000FF182CBF01230023BA4211D383B9059B06
:1015E000029AA3EB020C00FB0CF0B0FBF5F55519C9
:1015F0002CBF01200020AB4202D300283FF475AF7E
:10160000044840F63C31FEF7CBFF0024204609B0E9
:10161000BDE8F08F205100000081E00F00300E4047
:10162000334A08B5136FD16C11F0010F03F00603B4
:1016300044D0002B42D0132857D9143813288CBF1C
:10164000102308232A49013BCA6C180322F47F4265
:1016500040EA03231343CB64264BCA6C1B88C2F3B6
:1016600003222833013202EB820003EB5303B3FB66
:10167000F0F3C86C013B072B28BF072320F0EE6076
:1016800040EA036343F48013CB641B4BB3F900308F
:10169000002B12DB03F12800C0F34E030344500873
:1016A00000EB4202B3FBF2F20B6D072A28BF0722C0
:1016B00023F0700343EA02120A6508BDD16C01F001
:1016C0000101194304D109280FD90A380928B6E7BE
:1016D000D26CD20702D50BB92728B0E7074840F6ED
:1016E0009131FEF75DFF0023ACE70423AAE700BFBA
:1016F00000300E40FA110020FC11002020510000A3
:101700000C4BD3F8803910B5044633B9012804D9FD
:10171000094840F6AF31FEF743FF084A136F23F044
:10172000070323431367064BBDE810401888FFF7F3
:1017300077BF00BF0000C6432051000000300E40BC
:10174000F811002038B55A4B02229A639B6B03F0C4
:101750000F039342044607D0564840F64B21FEF74C
:101760001FFF0025284638BD0389C82B04D95148DE
:1017700040F65521FEF714FFA28823899A4204D926
:101780004C4840F65621FEF70BFFB4F90C30C82B3D
:1017900004DD484840F65721FEF702FF6378012B2D
:1017A00055D1A388C82B04D940F65B214148FEF7E8
:1017B000F7FEE28842F210739A4204D93D4840F69F
:1017C0006821FEF7EDFEE3884A2B48D9B3F5FA7F8E
:1017D00047D340F6C312934294BF4FF000524FF0EC
:1017E00040523349B4F90C00CB6C23F0405323F042
:1017F00001030028A8BF43F001031343CB64D1F8D1
:10180000EC30A28843F44073C1F8EC302A4B1A80C4
:10181000CB6E43F08073CB66284BD3F8800900B1C0
:101820000420FFF76DFF264B21891980254BB4F961
:101830000C20A0881A80FFF7F3FEA37BA3B1012B35
:1018400022D01C4840F6CE01FEF7AAFE0FE0022B84
:10185000AFD1A3880A2BACD94FF42661A6E70022AA
:10186000BFE74FF08052BCE7114B174A9A6501223F
:1018700060881146FFF70EFE054640B90D4840F658
:101880009F21FEF78DFE6DE7094B104AEEE7084AEF
:10189000D36B43F48063D3636078FFF7B1FDA37A21
:1018A000A3F1200253425341044AC2F8943759E746
:1018B00000300E4020510000F81100200000C64307
:1018C000FA110020FC11002077402057372110B773
:1018D0000C4B022210B59A63DA6B42F48062DA6331
:1018E0009A6FD207FCD403221A641B6C93420CBF7C
:1018F0000124002404D0044840F6DD31FEF750FEF8
:10190000204610BD00300E402051000038B50D4675
:10191000044618B3012824D0022825D0032826D055
:1019200004280ED0052825D0831F012B09D90828AB
:1019300023D0092823D00A2803D10723EB40DB0753
:1019400004D4104840F21341FEF72AFE30200E4B1B
:101950000121444301FA05F51D5138BD40F2FF3322
:10196000ECE74FF6C073E9E740F6FF73E6E74FF4A4
:101970007F43E3E74FF6FF73E0E70F23DEE74FF423
:101980004043DBE7835100000CA0004638B50D460C
:10199000044618B3012824D0022825D0032826D0D5
:1019A00004280ED0052825D0831F012B09D908282B
:1019B00023D0092823D00A2803D10723EB40DB07D3
:1019C00004D410484FF47971FEF7EAFD30200E4B35
:1019D0000121444301FA05F51D5138BD40F2FF33A2
:1019E000ECE74FF6C073E9E740F6FF73E6E74FF424
:1019F0007F43E3E74FF6FF73E0E70F23DEE74FF4A3
:101A00004043DBE7835100000CA0004470B505465D
:101A10000E461446FFF7A4FB296881EA040202EA95
:101A200006044C402C60BDE87040FFF79DBB0000F1
:101A3000032838B504460D4607D9042808D00528E0
:101A400003D0A0F10803022B02D835F0011303D014
:101A500008487D21FEF7A4FD3020604300F180405E
:101A60002A464FF00111BDE8384000F52040FFF74D
:101A7000CDBF00BFE7510000F8B50D4616461F4622
:101A80000446D8B301283CD002283DD003283ED0DC
:101A900004280ED005283DD0831F012B09D9082822
:101AA0003BD009283BD00A2803D10723EB40DB07B2
:101AB00004D4274840F21D11FEF772FD26B12946D5
:101AC00020467FB3FFF722FF3020604300F18040C3
:101AD000072D00F5204028D84368AA000F21914027
:101AE00023EA010306FA02F21343436076BB294658
:101AF00020463FB3BDE8F840FFF708BF40F2FF3390
:101B0000D4E74FF6C073D1E740F6FF73CEE74FF44A
:101B10007F43CBE74FF6FF73C8E70F23C6E74FF4C9
:101B20004043C3E7FFF732FFCEE7A5F10803826821
:101B30009B000F21994022EA010206FA03F31343A6
:101B40008360D3E7BDE8F840FFF720BFF8BD00BFD2
:101B5000E7510000022838B504460D4603D9114864
:101B60004C21FEF71DFD6B791F2B03D90D484F212A
:101B7000FEF716FDAB786A789B0143EA82032A7868
:101B80001343EA7843EA02132A7943EAC2236A79C3
:101B900043EA0233AA79043443EA42432401024A65
:101BA000135138BD4B52000000200440014B186017
:101BB000704700BF00008442427801790378002A10
:101BC000827870B514BF04260026002AC27814BF9C
:101BD00010250025002A42794FEA023242EA01220A
:101BE00042EA0302837914BF20240024002BC37926
:101BF00042EA034343EA0603027A43EA050314BFB9
:101C00004FF4004100212343002A14BF4FF4003257
:101C100000220B431343014A136070BD00200440AF
:101C200070B506460C46154622B90D484FF4227190
:101C3000FEF7B6FC1CB90B48FEF7E0FE04460A4B63
:101C40006D00013CB4FBF5F413EA04234FEA0425CC
:101C500004D0034840F2A521FEF7A2FC756170BDD7
:101C6000AF52000040410500070080FF38B51E4B11
:101C70001E4D984204460ED0A8420CD003F50063D6
:101C8000984208D003F58063984204D0184840F287
:101C90002E41FEF785FC40F6AA63E36041F205029F
:101CA000002323606260134AA3606361E364A2645B
:101CB00023666367A367E3670B4B9C4209D0AC4282
:101CC00007D003F500639C4203D003F580639C4278
:101CD00001D1002323650023AC42A36502D0064A4C
:101CE000944200D1E36538BD00000140000401408A
:101CF000AF520000F9FF0100000C014038B52A4B3B
:101D0000984204460D4610D003F5806398420CD0EB
:101D100003F58063984208D003F58063984204D0AD
:101D200022484FF45671FEF73BFC2046FFF79EFF1A
:101D3000A97B2A8A2368002942F0010214BF4FF4CC
:101D40008061002113430B432A7D23602368002A0E
:101D500014BF4FF00052002213432360AB7C1BB131
:101D6000EB7C43F08003A3652B7B43F480536360DB
:101D7000D5E901122046FFF753FF6B7B0BB110230F
:101D8000E3606B7D1BB1236843F480332360AB7D3C
:101D9000EA7D1B07120503F0E04302F4E00213435F
:101DA00023662B78E36038BD00000140AF5200008D
:101DB00003695B06FCD54163704700002DE9F047DD
:101DC000374FDDE908840646154699468A4641B9EB
:101DD000082323704FF4D963A360324B6760E3603C
:101DE000FEE75AB1531E134208D00823237040F275
:101DF000CB63A3602B4B6760E360FEE7FFF7B7F9A7
:101E0000002D08BF04254D4538BF4D46D6F808E0E3
:101E10006B1E13EA0E0FC5F1000202EA0E0208BFA4
:101E20000025154409F1FF33AA4413EA0A0FC9F14A
:101E3000000202EA0A0208BF4FF0000902EB0903A0
:101E400072680132A2EB0E01A3EB0E0E71458446BF
:101E500015491AD2B8F1000F02D09B1AC8F8003009
:101E6000162540F22273C4E902312570676060468E
:101E7000FFF783F940F2D763A3600A4B25706760D0
:101E8000E36000252846BDE8F087B3600023237097
:101E90004FF4E563C4E902316760FFF76EF9F1E7DB
:101EA00014530000A35300008B53000030B50C46C0
:101EB00085B011461D461BB9039200F019F803992D
:101EC000064801950023009304220123002C18BF2B
:101ED0002046FFF773FF05B030BD00BF281000207B
:101EE000024B00221A6001F00BBD00BF003600203B
:101EF000FEE70000014B1860704700BF003600206D
:101F00007047000070B5044608B9FFF7F1FF264B93
:101F10001E78012E09D013232370244B636040F2F6
:101F2000F633A360224BE360FEE7224B1B88012BB4
:101F300009D8092323701D4B636040F20143A3605D
:101F40001B4BE360FEE71C4D2B784BB11F23237026
:101F5000164B636040F20443A360154BE360FEE759
:101F6000FFF718F948B11F232370104B636040F24C
:101F70000743A3600E4BE360FEE700F063FE0F4BE8
:101F80000F4A18700F4B2E7018700C2358430E4BCD
:101F90001B5813600D4A136000F018FF01F0DAFCC3
:101FA000BDE87040FFF7A4BF4A370020BC530000D3
:101FB0007F540000883B0020683A00205F370020F3
:101FC0007C3B00205E37002068370020783B0020F3
:101FD000044BC1F8EC3018B1826802B1D368C36118
:101FE000704700BF3F540000036810B533B90122A9
:101FF0000281C1E90933016041601CE0028991F866
:1020000033400132028193F83320A2420CD85B6A3C
:10201000002BF8D14B6243688B625962ECE7C1E94F
:1020200009325162996206E09A6A002AF7D1C1E941
:1020300009329962016010BDC36A5BB19A68526A45
:102040004AB9C3E902221A8A013A1A820023C0E976
:102050000933C3627047D0E9092111B991629A60CE
:10206000F1E74A620AB9D960EDE79162EBE738B56A
:10207000C56AAB685B6A4BB1FFF7DEFFC56201461C
:1020800005F10800BDE83840FFF7AEBF38BD0000DD
:10209000054B40220021013AC3E90011198103F1E7
:1020A0000C03F8D1704700BF68370020F8B504462C
:1020B00008B9FFF71DFF844D6A68D2B12B68834EC3
:1020C0004BB92346296B82489200FFF7EFFE306040
:1020D00023780BB1F8BD33607E4B32681A607E4ABC
:1020E0006B6813607D497E4A9B0013600A68134445
:1020F0000B602A89B2B12346296B7A481201FFF797
:10210000D5FE794B18602378002BE3D1774B784AC2
:1021100018602B8913807149764A1B0113600A6885
:1021200013440B606A69002A27D02B69724E002B7A
:1021300036D12346296B71489200FFF7B7FE306015
:102140002378002BC6D16E4B2A7E1A706D4BEA693C
:102150001A606D4B32681A606B69EA6864215A43F1
:10216000B2FBF1F269490A60694A5C491360694A45
:102170009B0013600A6813440B60674E6B6B3360FF
:1021800001F09CFC02F0EEF8054658B101232370E3
:10219000624B63604FF4D773A360614BE36099E7D0
:1021A0003360D0E702F0DEF93368984209D20923A0
:1021B00023705A4B63604FF4D973A360584BE360AC
:1021C000FEE702F0CFF93368564F984269D13D607F
:1021D0003268B2F57A7F07D900230020012102F08E
:1021E00015FD4FF47A7545434F4B504A1D6000234F
:1021F00013704F4A13704F4A13604F4A13604F4A8F
:1022000013704F4A13704F4A2046137001F06EFA54
:102210000A23B0FBF3F04C4B18602578002D7FF4B7
:1022200059AF2D4A136853B12A49086838B101469D
:10223000013B41F8045BFBD1116800F0F5FF434B13
:1022400000251D7000F0F6FCFFF722FF404B1D60DB
:10225000404B1D80264B1B88002B2ED13E4A00236D
:1022600013603E4A13803E4A13603E4A13803E4A42
:1022700013603E4A2046138000F052FF2378002B63
:102280007FF428AF204600F06DFD2378002B7FF40B
:1022900021AF00F0F1FAFFF733FE354B01221A703F
:1022A00018E702F05FF92B4602460121002002F0F8
:1022B000ADFC3368584338608AE7204600F022FCC2
:1022C0002378002BCAD005E73C10002008360020F8
:1022D000415400000C360020103600200436002047
:1022E0001436002054540000183600201C360020FC
:1022F00020360020243600203036002066540000AE
:10230000283600202C3600203436002038360020B5
:102310003C3600204036002044360020BC530000EC
:10232000875400004C36002048360020683A0020D0
:10233000693A0020783B00207C3B00205E3700207B
:102340005F370020703A00206C3A00208A3B002062
:102350004437002048370020583700205C370020E1
:102360006037002064370020743A0020783A00205B
:102370004A37002090F833300B490C22534330B5D4
:10238000CA58CC1832B901252581C0E90422C850A9
:10239000606030BD258901352581002402614461DA
:1023A0005061C850F5E700BF6837002090F833202F
:1023B0000B490C235A4330B58C588B1834B901257E
:1023C0001D81C0E904448850586030BD1A8901322B
:1023D0001A81002202615A6842611061F4E700BF6D
:1023E0006837002010B5044690F8330000F03AFC3E
:1023F000074B94F833201B789A42204603D1BDE85E
:102400001040FFF7D3BFBDE81040FFF7B3BF00BFD8
:102410005E37002038B50C4691F832100729054682
:10242000049807D80239052906D8DFE801F0060626
:1024300005052525FF293AD138BDA267A4F87C30CF
:10244000606415B12046FFF7F7FD21462846FFF7E7
:10245000BFFD94F83230032B06D104F1540001F093
:10246000BBFF08B1FFF744FD2046FFF7BBFF002389
:10247000238684F83230DFE7A267A4F87C306064FA
:1024800015B12046FFF7D8FD21462846FFF7A0FDED
:1024900094F83230072B06D104F1540001F09CFF70
:1024A00008B1FFF725FD002323860423E1E7BDE8FB
:1024B0003840FFF71DBDD0E90032934210B50FD070
:1024C0001C690021A24215BF6161C3E90412C3E97E
:1024D0000412C2E9043116BF136102600460436054
:1024E00010BD000070B50446D4E9043590F83300FF
:1024F000104A0C219DB953B94143551853502B81B3
:102500006B6000F0C5FB0023C4E9043370BD484391
:1025100016183189013931815D611350F3E701FBF0
:1025200000221189013911812B610BB95560EAE74D
:102530005D61E8E76837002013B5044670B1084BC9
:102540001B78012B0AD10023CDE90033054A416FE6
:102550000346054801F09EFF044B1C6002B010BD0D
:10256000703A00206D2700005436002050360020BD
:10257000F8B50446A8B1114B1B78012B11D1056F9A
:102580000F4E7DB90F4B1F6801F0ECFF32682B46F0
:10259000511E0D461946E7FB0051284602F036FB56
:1025A0006067F8BD01F0DEFF32680023511E0E4661
:1025B0001946E5FB00613046F0E700BF703A0020A5
:1025C000443600206C3A00202DE9F7435D4B1B7820
:1025D000012B00D0FEE75C4B93F80080B8F1000FB0
:1025E00040F09680FEF7C3FD584F594C97F8009085
:1025F000584D064600F026FB40280346387000F090
:102600008A800C20DFF858814343B9F1400F58F815
:102610000330236003D100F0CBFCAFF300802268CD
:102620002B68DFF840919A4218D1002000F0E8FDB5
:10263000012802D0286801F05FFA99F800303BB118
:102640002068436F0BB9FFF793FF2068FFF774FF13
:10265000304603B0BDE8F043FEF78FBD99F8003077
:102660001BB3DFF80491D9F800305B6FEBB13A4847
:1026700001A901F033FF30B9D9F80030019A36488A
:102680005A6701F0A9FED9F800305A6F6AB993F879
:10269000330000EB400008EB8000FFF70CFF3B78B5
:1026A0000C22534358F8033023602268D2F8C0301C
:1026B0000133C2F8C030294A1368013313603B78F4
:1026C000402B33D02B682268934215D0A3B101F080
:1026D0002FF92B68D3F8C83098421FD301F028F99E
:1026E0002B68D3F8C830C01A2A68D2F8CC30C2F8A8
:1026F000C4001844C2F8CC00246801F019F9C4F8E9
:10270000C80001F066F93046FEF737FDBFF36F8F62
:1027100003B0BDE8F083C4F80080CCE701F008F90D
:102720002B68D3F8C820D2431044DDE700F038FC12
:102730002C681CB101F0FCF8C4F8C800AFF30080AD
:10274000DFE700BF683A0020693A00205F370020C9
:102750007C3B0020783B002054360020803B00204A
:1027600068370020703A00205036002038B50E4BF4
:102770001B78012B0D4616D1FEF7F9FC00236B6781
:102780000A4B1B6893F833300446094803EB4303B4
:1027900000EB8300FFF78FFE2046FEF7EEFCBDE85E
:1027A0003840FFF711BF38BD703A00205036002086
:1027B00068370020F8B50C46FEF7D9FC94F83230A3
:1027C000013B0746062B3FD8DFE803F04B3E043EB3
:1027D000523E040094F83030042B08BFE36A4FF0F7
:1027E000000608BF5D6AA667A4F87C6018BF35467E
:1027F00001F09EF860642046FFF71EFC94F832302A
:10280000032B28D1FFF7EEFD84F832604FF44073BC
:102810002386CDB195F8333095F834209A4213D001
:1028200094F833209A420FD1284600F0CEF995F85B
:102830003430834228BF0346D9B295F833308B42F7
:1028400002D0284600F012FE3846FEF796FCBDE89E
:10285000F840FFF7B9BE072B04BF042384F83230D9
:10286000D4E7002384F832302046FFF7BBFDEBE7C6
:10287000042384F83230E7E7754B1B7882B0DBB273
:102880008DF80530734B1B68DBB28DF80730724B47
:102890001B78DBB28DF80530704B1B78DBB28DF8FE
:1028A00005306F4B1B68DBB28DF807306D4B1B6A30
:1028B000DBB28DF807306C4B1B78DBB28DF805303E
:1028C0006A4B1B78DBB28DF80530694B1B88DBB295
:1028D0008DF80630674B1B88DBB28DF80630664BEF
:1028E0001B78DBB28DF80530644B1B88DBB28DF8AA
:1028F0000630634B1B88DBB28DF80630614B1B88BA
:10290000DBB28DF80630604B93F82830DBB28DF8DF
:1029100007305E4B1B78DBB28DF805305C4B1B88B3
:10292000DBB28DF806305B4B1B88DBB28DF80630CE
:10293000594B1B88DBB28DF80630584B1B88DBB235
:102940008DF80630564B1B88DBB28DF80630554BA0
:102950001B88DBB28DF80630534B5B8DDBB28DF8F4
:102960000730524B1B78DBB28DF80530504B1B887B
:10297000DBB28DF806304F4B1B78DBB28DF806309A
:102980004D4B1B6ADBB28DF807304C4B1B78DBB22A
:102990008DF805304A4B1B88DBB28DF80630494B69
:1029A0001B88DBB28DF80630474B1B68DBB28DF815
:1029B0000730464B1B78DBB28DF80630444B1B7852
:1029C000DBB28DF80530434B1B78DBB28DF8053058
:1029D000414B1B78DBB28DF80530404B1B78DBB2E6
:1029E0008DF805303E4B1B78DBB28DF805303D4B42
:1029F0001B78DBB28DF805303B4B1B88DBB28DF8C2
:102A000006303A4B1B78DBB28DF80530384B1B880B
:102A1000DBB28DF80630374B1B88DBB28DF8063001
:102A2000354B1B78DBB28DF80530344B1B88DBB29D
:102A30008DF80630324B1B88DBB28DF806309DF8DE
:102A400005309DF806309DF8073002B0704700BF92
:102A50007C100020781000207410002070360020B8
:102A60008010002074360020841000209C36002046
:102A700086100020881000208A100020901000206E
:102A80008C1000208E100020A03600209210002014
:102A90009410002096100020981000209A1000201A
:102AA0009C1000209E100020D0360020A010002096
:102AB000A2100020AC10002000370020AD10002034
:102AC000AE100020A4100020A8100020B21000209A
:102AD000B0100020B1100020B6100020B710002068
:102AE000B9100020B8100020BA100020BC1000203F
:102AF000B4100020BE100020283700202A37002004
:102B0000C0100020154BF0B51C68154B1E88002521
:102B1000721E04F1100192B22B46AFB2BA4213D822
:102B2000110104EB0212635053601381D3600D4A0C
:102B30001381D3809680146003700B4B43605D2338
:102B400083600A4BC360F0BD41E9041321F8083CDF
:102B500041F8043C01351031DFE700BF1C3600208E
:102B6000203600204C3700208E5400000055000015
:102B7000428910B582B1094B01681C680C6041683C
:102B80001960D988891AD9809988114499800023BD
:102B9000C0E9003343818381104610BD4C370020CB
:102BA00038B504460D461022002102F0F7F92581C0
:102BB00038BD836B00F138028B42186A01D1106076
:102BC000704703F120020346F6E7836B3F2003B909
:102BD00070479A6822B192F83320904228BF10467D
:102BE0001B6AF4E72DE9F341846B0546012714B90C
:102BF00002B0BDE8F081D4F8208000F099FE2146B3
:102C0000E06206462846FFF7D4FFA16821B984F8A0
:102C1000281061624446EAE784F828708B6B2362CF
:102C2000002365621A468C6320460096FFF7F2FB8C
:102C3000F0E70000024B0022C3E90022704700BF0A
:102C40002C37002008B5064B186828B9586800F0E2
:102C500075FE2030C0B208BD00F070FEFAE700BF7C
:102C60002C3700201F28094A07D84FF0004323FAC9
:102C700000F013680343136070470123C0F13F0065
:102C800003FA00F053681843506070472C37002057
:102C90001F280A4B08D84FF0004222FA00F01A68A9
:102CA00022EA00021A6070470122C0F13F0002FAD6
:102CB00000F05A6822EA00025A6070472C37002060
:102CC000F8B5064608B9FFF713F9FEF750FA1E4BA0
:102CD00000251D801D4B1D601D4B1D81FEF74DFA0B
:102CE000FEF745FA1B4B1C68FEF747FA74B9FEF76E
:102CF0003EFA194B1D68FEF740FA05BB174B73608F
:102D0000A423B3603570164BF360F8BDFEF72FFABD
:102D1000C4E93355C4F89450C4F8D850C4F8C0502E
:102D2000A4F8BA50A4F8BC50074600F001FEA4F87D
:102D30008C50C4F8C800D4F8E8403846D4E7FEF711
:102D400016FAAC85AD69D6E77E3A0020743B0020C8
:102D50004C370020843B0020603700200F550000D6
:102D60009555000000B5104A104900231370104A11
:102D70008BB013700322CDE90632CDE904330D4A3E
:102D80000890126803920C4A0C48126802920C4A8E
:102D9000126801920B4A127800920B4A00F04EFA28
:102DA0000BB05DF804FB00BF803A002082550000A4
:102DB0007A3A00203C36002038360020843A002041
:102DC0003436002028360020DD2D000008B500F044
:102DD000AFFD014B186008BD403700202DE9F04FD2
:102DE00085B06846FFF76CFF684600F07FFC9DF8F1
:102DF000003005460BB1FFF77BF85C4B18684FF0CD
:102E00000008A842C24642F2107728BF0A20B5FB4C
:102E1000F0F500F08DFD564E814600F089FD3368D7
:102E2000984267D300F084FD3468041BFEF79FF9D5
:102E3000504BD3F800B0C3F800A0FEF79EF94E4BFC
:102E40009C425DD94D4B9C425ED94D4B9C425FD319
:102E50004C4B9C4295BF4FF47A7038460A260126A7
:102E60000BFB06F3B4FBF0F4B3FBF4F39BB2BB42F1
:102E7000454A28BF3B461380444AFB1A9BB2138045
:102E8000434A1188994203D2B8F1000F00D0138051
:102E9000DFF808B1FEF76BF9DBF80080FEF76DF99B
:102EA000B8F1000F37D1FEF762F9DBF80080FEF7CA
:102EB00064F9B8F1000F3BD1364B1A78012A04D1DE
:102EC000684683F80080FFF7FBFE00F021FEFFF765
:102ED0007DFF00F02DFD304B1A68A0EB0900824207
:102EE00038BF18606A460021284600F011FC4FF0F8
:102EF00001088EE700F01CFD3368DB431C1895E7E2
:102F0000012042F21076ABE70A204FF47A76A7E769
:102F100064200646A4E7FEF72AF9D8F8CC30C8E9C1
:102F200033A3FEF72AF9FEF722F9D8F8E880B5E7CF
:102F3000D8F8D030B8F8BC207343B3FBF4F39BB29D
:102F4000BB4228BF3B469A4238BFA8F8BC30A8F81D
:102F5000BA3008F1DC0208F1E00140466B4600F0AF
:102F600041F8FEF704F9D8F8E880A0E72C360020F5
:102F7000403700203C3700207F1A0600FF083D0044
:102F8000005A6202FF83D717343700207C3A0020B2
:102F90007E3A00207A3A0020743B0020843B0020D7
:102FA00008B500F0C5FC014B186008BD383700209B
:102FB00010B50A4C00F0BCFC2368984208D300F01E
:102FC000B7FC2368C01A064A13681844106010BD85
:102FD00000F0AEFC2368DB431844F4E738370020E8
:102FE0003C3700202DE9F04105460F4616461C46A9
:102FF0000BB9FEF77DFFFEF7C3F848B1202323701D
:103000002F4B636040F2BC63A3602E4BE360FEE78E
:103010004FB90A2323702A4B636040F2BF63A36059
:10302000284BE360FEE74EB90A232370244B63600C
:1030300040F2C163A360234BE360FEE7FEF797F81D
:103040000DB9214B1D68D5F80080B8F1000F10D1E3
:10305000FEF793F80823C7F80080C6F800802370B5
:10306000174B636040F2CC63A360164BE360BDE88E
:10307000F081B5F8408018F001080CD1FEF77DF81A
:103080000723C7F80080C6F8008023700C4B6360EC
:1030900040F2D463E8E7FEF770F8AA6900231C3217
:1030A00052F8041F51B13B60EA6BD31A336000231E
:1030B0002370034B636040F2EF63D5E70133EFE722
:1030C000A15500003D560000783B0020064A002331
:1030D000C0F8E4301368C0F8E8300BB910607047EE
:1030E000C3F8E400FAE700BF843B0020D0E93923AD
:1030F00042B90A490B600BB1C3F8E4200023C0F8C1
:10310000E8307047C2F8E83013B9C0F8E4307047CF
:10311000C3F8E4200023C0F8E830F6E7843B002041
:10312000074A00231360074A1380074A136003709D
:10313000064B436040F621038360054BC360704734
:10314000843B0020883B0020803B0020A1550000EC
:103150001A56000038B5F0220446002101F01EFF87
:103160001D4BE3600025002104F18000FFF718FDEE
:10317000C4E92455C4E92C55C4E92655C4E935559C
:10318000C4E93755C4E91C55C4E93055C4F8A45006
:10319000A4F8AC50C4F8A850C4F8A050A564E563E6
:1031A00084F8B850A4F84050256584F84C50A4F831
:1031B000BA50A4F8BC5000F0BBFB4FF0804323632F
:1031C000402384F83430054BA563C4E93205C4E9D3
:1031D0003955C4F8EC3038BD145600003F54000097
:1031E000064A031F1C3053F8041F914203D1834247
:1031F000F9D1012070470020704700BF4523CDABB7
:1032000008B9084B1868026883699A4207D3C16BF2
:1032100003EB8100824202D21846FFF7E1BF002093
:10322000704700BF783B0020034A031F1C3043F85F
:10323000042F8342FBD170474523CDAB2DE9F04FDE
:1032400089B0DDE9136A04939DF848300393BDF813
:1032500058300593DDE917831A9C159FBDF86490DB
:1032600006910546029207930CB9FEF741FEFDF761
:1032700087FF764A764B834630B16260F022C4E91C
:10328000022320212170FEE735B96260F322C4E9F0
:1032900002230A212170FEE7029931B96260F62209
:1032A000C4E902230A212170FEE736B96260F922DF
:1032B000C4E902230A212170FEE766490968B94280
:1032C00006D96260FC22C4E9022308212170FEE7CE
:1032D000574506D86260FF22C4E902230821217005
:1032E000FEE703993F2907D962604FF48172C4E970
:1032F000022308212170FEE7574905980988814279
:1033000007D262604FF48372C4E90223082121705E
:10331000FEE72846FFF71EFF4C4A4D4B626019F04E
:10332000030F40F20B1284F800B0A260E36070D18A
:103330002AF0070A06EB8A0ACDE900790499029877
:103340005346324600F0E8FB864283460AD93223D0
:1033500023703E4B63604FF49473A3603C4BE36077
:10336000FEF7C6FD39463046FFF75EFF029BEB6174
:10337000049B2B62069BEB60039B384C85F8333033
:1033800085F83430C5F800B0C5F808A0C5F87080DD
:10339000B8F1000F49D1324BD3F800A001F0E2F8A8
:1033A0002268511E0C4641464346EAFB0041204636
:1033B00001F02CFC079B6B600023C5E92633C5F8A0
:1033C000A03005996867AE6105F18000EF63A5F84C
:1033D0004090FFF7E5FB284600F09BFBFDF7C7FE9A
:1033E000044695F83300FFF73DFC2846FEF7DEFF64
:1033F0002846FFF76BFE1B4A1388013313801A4BD4
:103400001B78012B20461AD009B0BDE8F04FFDF71C
:10341000B4BE19F0020F8BD000231A4602E046F822
:1034200023200133BB42FAD182E701F09BF82268E6
:103430000023511E0C461946E8FB0041B7E7FDF793
:103440009CFE09B0BDE8F04FFFF7BEB8A1550000E3
:1034500030560000B85300002036002044360020CB
:103460006C3A0020883B0020683A002070B5044682
:103470000D4694F83230072B08D8013B062B0BD8A9
:10348000DFE803F01F22221F1F222200FF2B1AD089
:10349000BDE87040FEF72CBD2046FFF723F8284614
:1034A00084F83350FFF7DEFB264B1B68A34220460F
:1034B00003D1BDE87040FEF75DBFBDE87040FEF788
:1034C00075BF84F8335070BD94F8303094F8336091
:1034D00084F83350013B072BDAD801A252F823F0CD
:1034E00001350000C7340000913400000B350000A6
:1034F0000135000001350000C7340000013500002F
:103500002046BDE87040FEF7B2BD2046FEF7AFFD95
:10351000E36A5C6AB54294F8333002D2AB42A8D871
:10352000D1E7B342A5D12046FFF74FFB94F83430E2
:10353000984228BF184694F83330C5B2AB4298D1B0
:10354000C1E700BF783B00202DE9F04104460D465D
:1035500009B9FEF7CDFCFDF713FE48B120232B700F
:10356000564B6B604FF4DB73AB60554BEB60FEE783
:10357000544B1B78012B0AD002232B704F4B6B60EE
:103580004FF4DD73AB604E4BEB60BDE8F0812CB9BE
:10359000FDF7EDFD4C4B1C68FDF7EFFDFDF7E7FD7A
:1035A00094F83230072B804608D8013B062B0DD803
:1035B000DFE803F04935350F49353500FF2B74D06E
:1035C000FDF7DBFDBDE8F041FEF792BC2046FEF7BB
:1035D00089FFA36B13B12046FFF704FB04F18000C1
:1035E000FFF7C6FA204600F095FA2046FFF77EFD69
:1035F000364A1388013B1380FF2384F8323040465B
:10360000FDF7BBFD00232B702C4B6B6040F2332386
:10361000AB602B4BEB60BDE8F041FEF7D5BF94F8F3
:103620003030082B3ED8DFE803F00805083D1705C9
:10363000050805002046FEF7FFFC94F8323003F041
:10364000FB03032BC5D104F1540000F0C5FE002894
:10365000BFD0FEF74DFCBCE7E36A5E6A204696F8F1
:103660003370FEF7E9FC96F8333096F834209A422E
:103670000CD094F833209A4208D13046FFF7A5FACF
:1036800096F83410814228BF0146CFB2002384F857
:10369000303096F83330BB42CFD039463046FFF752
:1036A000E5FECAE7FEF724FCC7E7FDF766FD1F232A
:1036B0002B70024B6B6040F2092363E7A1550000B9
:1036C00026560000683A0020783B0020883B002006
:1036D0001FB5054B186800F01EFA69460020FFF779
:1036E00033FF05B05DF804FB783B00200023037036
:1036F000044B436041238360034BC360034B186852
:10370000704700BF4A560000C756000044360020EC
:103710002DE9F04F054685B0884614460AB9FEF7F4
:10372000E7FBFDF72DFD6C4F6C4E30B1202323706D
:103730007023C4E902366760FEE7FDF72BFD30B168
:103740001F2323707323C4E902366760FEE7644BCE
:1037500093F80090B9F1010F08D00223237067603D
:103760007723C4E9023605B0BDE8F08F5D4B93F8CE
:1037700000A0BAF1000F04D02D23237067607C23D2
:10378000EFE7B8F1000F2FD0B8F1020F2CD0B8F14D
:10379000080F00F09680082323708123C4E90236C5
:1037A0006760FEE700F0D2FE4F4B1968A0FB018175
:1037B000029100F0D7FE534602460299404601F0BE
:1037C00025FA4A4B1B6893F84C20CAB11A6D154470
:1037D0001D652D1A25EAE575454A116821B11A6D56
:1037E00091429CBF521A1A65002D49D0404B1B686C
:1037F0005BB1AB4209D81E2323706760A923B0E7F1
:103800002844186583F84C90E6E700F0ABFE364B91
:1038100002901A680392FDF7AAFC039A0299DFF856
:10382000CCA04FF000098046CC46501EE5FB010CB1
:103830004B46614601F0EAF9DAF800B02D4A01463C
:10384000CDE900995B460BF1540000F023FE012501
:1038500030B14046FDF791FC25706760B92380E7E1
:10386000DAF8000080F83250FEF73CFE4046FDF7E3
:1038700084FCFEF7A9FE002323706760D22370E763
:10388000FDF775FC1C4B1D491A784FF00C0C02EB30
:1038900042030CFB02F201EB020C01EB830389589B
:1038A000DCF804209142054606D1FDF766FC0023B2
:1038B00023706760C82354E71846FEF7FCFD2846CE
:1038C000D5E7002D7FF46EAF8623C4E9023684F875
:1038D00000806760FEE700BF4A560000BD5600004A
:1038E000683A0020693A002044360020783B0020E6
:1038F0004C360020B52700005E37002068370020D6
:1039000008B5FCF7E9FD4FF0E022D2F8FC3D43F0AA
:103910008073C2F8FC3D054B00225A601A6842F0E1
:1039200001021A60BDE80840FEF7E4BA001000E0AA
:10393000014B5868704700BF001000E0B0FA80F0FB
:10394000704790FAA0F0B0FA80F0704790FAA0F0BB
:10395000704700BF72B64EF62250CEF2000040F221
:10396000FF01C0F200010170002080F3098843F6D6
:103970008C30C2F20000016881F3088800F006F97B
:1039800043F25E70C2F2000043F25F71C2F20001C6
:103990000A78027043F67830C2F2000043F67C31B8
:1039A000C2F200010A680260106880F30988EFF330
:1039B000148040F0020020F0040080F31488BFF36C
:1039C0006F8FBDE8F04F0FBCBDE8005006BC62B67B
:1039D000084737484FF080510160704734484FF036
:1039E000805101607047602080F3118843F678327F
:1039F000C2F200021168002901BF2E4A136823F0A9
:103A0000010313600ED0EFF309801EF0100F08BF02
:103A100020ED108A20E9F04F43F67835C2F2000518
:103A200029680860744600F0B1F843F67831C2F2B4
:103A3000000143F67C30C2F2000003680B6043F2E1
:103A40005E72C2F2000243F25F71C2F200010878B6
:103A5000107044F0040E002B0AD01868B0E8F04F44
:103A60001EF0100F08BFB0EC108A80F309881BE02D
:103A700043F68C31C2F200010868A0F11C0080F30B
:103A8000088840F20001C0F20011C16143F6B9217B
:103A9000C0F20001816143F2D161C0F200014161D5
:103AA0004FF6F97ECFF6FF7E002080F31188704735
:103AB00004ED00E034EF00E000BFFDE70B4B1A68B7
:103AC0000B4B02F180421B68013A03EB8203094A67
:103AD00023F0070313604FF0E023D3F8343F03F0E3
:103AE0004043B3F1404F00D0FEE77047103600204E
:103AF0000C3600208C3B002007B5FDF738FB019009
:103B0000FEF7F6F9019803B05DF804EBFDF735BB5D
:103B1000704770477047704710B5029C02EB8402F3
:103B200022F007024FF0807442E90204164842F87E
:103B30000C0C4FF012344FF0033042E905044FF003
:103B4000023042E907306FF0020C4FF0113342E9C6
:103B50000A3C42F8201C4FF009334FF0103142E983
:103B60000C314FF008304FF0073342E90E304FF080
:103B700006344FF00533104642E910344FF0043359
:103B800040F8443D10BD00BFD136000010B50D4CCB
:103B9000206848B10C4B1B7833B1436F0BB9FEF76B
:103BA000E7FC2068FEF7C8FC084C23684BB10020F6
:103BB000FFF726FB012804D02068BDE81040FFF77E
:103BC0009BBF10BD7C3B0020703A0020783B00205A
:103BD0004111064A012300F01F0003FA00F052F8D9
:103BE0002130184342F82100704700BF9C3B002061
:103BF000044B1B681BB1044B03600020704701207D
:103C0000704700BFAC430020903B002070B50D4CC6
:103C1000246884B10C4C26888518B5420DDC668872
:103C2000CD18B54209DC52B14BB1A080E1802281B0
:103C30006381002070BD0120FCE70420FAE7052025
:103C4000F8E700BFAC430020903B00202DE9F74F80
:103C50000093444B1B68002B7FD0DFF810910D9F21
:103C6000B9F80630B9F80A205D181A441FFA82FA2A
:103C7000ADB24FF0010B1FB9384603B0BDE8F08F6D
:103C8000ABB29A456BD9384AB9F80840B9F8043054
:103C9000241A02EB0511009ABC4228BF3C46161EAE
:103CA00018BF012603447642072CA7EB04079BB2FA
:103CB000F6B221D81C44BEB9A34217D2DE0803F0E5
:103CC00007020BFA02F08A5D013322EA00028A55EC
:103CD0009BB2F1E7D80803F007020E5C0BFA02F280
:103CE000324301330A549BB2A342F3D32846FFF771
:103CF0006FFF01350020BEE74FEAD30C01EBD3087C
:103D000013F0070310D00BFA03F211F80CE0D2B253
:103D1000501E52420EEA000032401043083B01F8A8
:103D20000C0008F101081C44E20809D03146404665
:103D3000019201F033F914F00704019AD6D09044AF
:103D40000BFA04F498F80030E4B26242013C1340EC
:103D500034401C4388F80040C8E701278CE704275B
:103D60008AE700BFAC430020AC3B0020903B002022
:103D700037B5124D2B68FBB9FCF75AFB044618B156
:103D80000124204603B030BDFCF746FB2860002824
:103D9000F6D0028841880A4B1A801A814A4359801A
:103DA0009C80DC8059812046CDE900422346224692
:103DB0002146FFF74BFFE4E70024E2E7AC43002095
:103DC000903B00202DE9F8431B4FDFF874803C68DE
:103DD000DFF86890002301251A46D8F800004188D2
:103DE000D6188E4207D3FBB913481022002101F0E8
:103DF000D5F8002012E0E10708D50133D118C90633
:103E00000ABF57F8254064080135E6E753B109EBCE
:103E10000211FCF7A7FA034610B10720BDE8F883AA
:103E2000721CEBE70132E9E7044901EB0211FCF7F0
:103E300099FA0028D8D0F0E79C3B0020AC3B00204A
:103E4000AC43002030B10268002153881288084634
:103E5000FFF7DCBE0520704737B50446A8B14568BA
:103E6000FFF7F0FF014668B922681389528953436E
:103E70000193EBB20093C5F30742C5F30723FFF7A5
:103E8000E5FE0146084603B030BD0521FAE710B44F
:103E900070B1836942698489018A01330132121B3E
:103EA0005B1A20469BB25DF8044B92B2FFF7AEBEA0
:103EB00005205DF8044B7047F0B4D0B1C9B10E686D
:103EC0008C68A64218DA4D68CA68954214DA002E4A
:103ED00014DB002D12DB01680F88BC420EDA498822
:103EE0008A420BDAC0E90365C0E90542F0BCFFF77E
:103EF000CEBF0520F0BC70470420FBE70320F9E7A4
:103F000030B5054687B000B300226FF07F43C0E9AB
:103F1000012301A8FFF76CFE044698B9019B2B60B2
:103F20001A885B88CDE90200013A013B02A92846C4
:103F300004920593FFF7C0FF044618B904492846C8
:103F400000F01DF9204607B030BD0524FAE700BF98
:103F50000C5A000073B50D461646044690B10C305D
:103F600000F02FF880B1A26801230193D3B200932F
:103F7000B1B2C2F30723A8B2C2F30742FFF766FE4D
:103F800002B070BD0520FBE70120F9E773B50D46CF
:103F900016461C4688B10C3000F013F878B10123A6
:103FA0000193E3B20093C4F30742C4F30723B1B211
:103FB000A8B2FFF74BFE02B070BD0520FBE7012061
:103FC000F9E778B103688B420BDC83688B4208DB2E
:103FD0004368934205DCC0689042B4BF00200120D2
:103FE0007047002070472DE9F04F85B090469DF84E
:103FF000382002920446002800F08180A1F12002BE
:104000005E2A7ED890F82820022A8DB21AD13A2949
:104010001AD020291AD0303DADB2228CAA4270D9D4
:10402000E26901924FF0000B1A465E4694F82510A3
:104030001FFA8BF399420BD8B6FA86F0400905B007
:10404000BDE8F08F203DE7E70A25E6E70B25E4E72A
:1040500094F82230012B05D0022B1DD0019B53F880
:1040600025A002E0019B13F805A04FF0000994F889
:1040700024301FFA89F7BB4212D894F8243094F800
:1040800027100B449F4229DB94F823301D44ADB226
:104090000BF1010B0132C9E7019B33F815A0E4E7EE
:1040A0001AF0010F0FD008EB090120460392FFF729
:1040B00051FF0128C3D8039A00B901364FEA5A0AC2
:1040C00009F10109D3E7029B002BF7D06368039243
:1040D00008EB09012046FFF759FFEAE7029B5BB1B5
:1040E0006368039208EB07012046FFF74FFF0128A2
:1040F000A5D8039A00B901360137BFB2BDE7052044
:104100009DE702209BE72DE9F74F0C9F9DF834A017
:104110009846054678B371B390F828306BB30C46D7
:104120008E18C3464FF00009B44205D1B9FA89F0A0
:10413000400903B0BDE8F08F14F8011B0A2907D12C
:1041400095F825303B4495F82670C3461F44EBE7AD
:10415000CDF800A03B465A462846FFF744FF012809
:10416000E7D808B909F1010995F8243095F8272016
:1041700013449B44D8E70520DBE70220D9E708B5C4
:1041800020B11C30102219B900F008FF052002E010
:1041900000F0F6FE002008BD2DE9F347054608466D
:1041A00092461C46DDE90A7901919DF8308000F0C5
:1041B000FDFE95F8243095F82520019900FB03F6C3
:1041C00095F82630012C13440AFB03920CD0022CE4
:1041D0000FD00023CDE90A283B440246284602B00E
:1041E000BDE8F047FFF78FBF2B681B889B1B5B0860
:1041F000F0E72B681C88A31BECE7000030B50F4CE0
:1042000041612368ABB92060836011E0891A9A6824
:1042100041611D462AB113465A698A42F6D955B101
:104220001A46A8601346836013B15A69511A59613E
:1042300030BD0025F0E72060F5E700BFC84300204F
:1042400010B500F077FA0A4C0A4B19682368C31AB4
:1042500001B10BB9206010BD4A699A422EBFD21A33
:104260009B1A00224A6128BF00238968F0E700BF3B
:10427000B4430020C843002038B50F4B0F4D1C68D5
:104280002B685B6902201C4400F082FA204600F093
:1042900057FA0B492A6800230B70D088800702D593
:1042A00001230B7038BD9268002AFBD0506903448B
:1042B000012BF2D9F6E700BFB4430020C843002029
:1042C000BC43002070B516469DF814200271049A74
:1042D0000260C0E903360022BDF818308260C38056
:1042E00004460D4600F026FA3044A0613DB9E3686B
:1042F000656113B121682046984796B13546FCF7B1
:1043000036FF0646FFF79CFF29462046FFF776FF5B
:10431000054B1B68A34201D1FFF7AEFF3046FCF707
:104320002CFF002070BD00BFC84300200C490B6863
:1043300000227BB183420AD183687AB1936083689B
:104340001BB15A6941690A445A61002070471A46F4
:104350009B68EEE70028EFD0022070470B60EEE785
:10436000C843002070B5154EFCF701FF34780546B0
:10437000FCB9134B1C60134B1C60134B1C8000F0EA
:1043800093F9012000F004FA00F040FA0F4B0246C6
:10439000186020B92846FCF7F0FE232070BD2346A4
:1043A0000B4840F2E73100F031FC0A4B1860012362
:1043B00033702846FCF7E1FE0020EFE7B043002011
:1043C000C8430020B4430020BE430020C443002063
:1043D00018FCFFFFB84300202DE9F0410546F8B175
:1043E000FCF7C5FE0F4F0646FFF72AFF2846D7F811
:1043F0000080FFF79BFF044628B13046FCF7BDFE66
:104400002046BDE8F081A8453B6803D123B1FFF702
:1044100033FFF2E7002BF0D1022000F0C7F9ECE700
:104420002224EDE7C8430020F0B50D4685B01646BE
:104430001F46044680B1FFF7CFFFBDF82C30029332
:104440009DF828302A46CDE9007329463346204698
:10445000FFF738FF05B0F0BD2220FBE738B50C466A
:10446000054698B191B100230B70FCF780FE084B14
:104470001B6801210BB122781AB1FCF77EFE0020E7
:1044800038BDAB4214BF9B682170F3E72220F7E7E9
:10449000C8430020F0B587B01F4600230D461646DE
:1044A0008DF817300446A0B10DF11701FFF7D6FFC4
:1044B0009DF817207AB9BDF8343002939DF830305A
:1044C0002946CDE9007320463346FFF7FBFE07B0CF
:1044D000F0BD2220FBE70320F9E70000F8B50C4609
:1044E0000546C8B1C1B1FCF742FE0646FFF7A8FE7B
:1044F0006B692360134B1B68AB420FD023B9304666
:10450000FCF73BFE03201CE0596922689B680A44C3
:104510002260F1E700230FE0222012E00A4D276815
:1045200000F008F92B68C01A8742F3D900F002F9AD
:104530002B68226813441B1A30462360FCF71DFECB
:104540000020F8BDC8430020B443002038B5FCF774
:104550000EFE054600F0EEF804462846FCF70DFE78
:10456000204638BD014B1868704700BFC443002087
:10457000C2072DE9F84F04460BD5464A138801338C
:104580009BB21380FFF75CFE434B1B680BB1FFF738
:1045900073FEA3077CD5FCF7EAFD0546FFF750FE46
:1045A0004FF0000A3C4FDFF8F8905646D0463C6882
:1045B0000CB163698BB1394B0022012E1A7003D103
:1045C000BAF1020F08BF1E70002C51D0FFF754FE45
:1045D0002846BDE8F84FFCF7D0BD23461A7921796B
:1045E000914288BF1C469B6813B15A69002AF5D0D6
:1045F0002846FCF7C2FDD4F810A0BAF1000F3BD05A
:1046000000F098F8A269851AEB17AA4578EB030326
:1046100033DA23691344A36101222369D3B1CAB9F0
:10462000EB17BAEB050563EB4303002B04DA40F20A
:1046300002414846FBF7B4FFFCF799FD2946824644
:104640002046FFF7DBFDA36922691344A3615046AE
:10465000FCF793FDE368B4F806A0013613B12168B6
:1046600020469847FCF783FD0546FFF7E9FD9EE7E6
:10467000022000F09BF8ABE75546FCF778FD834637
:104680002046FFF753FE5846FCF777FD0022C4E7AB
:10469000BDE8F88FBE430020C8430020C04300207F
:1046A0003C5D00000020704710B51E4B86B01868B6
:1046B000596803AA03C2197AD3F8090011700024BB
:1046C000B3F80D200190DB7B1748ADF808200121DD
:1046D0008DF80A30FCF704F88DF80C40FFF7E2FF84
:1046E0008DF8100003A8FDF767FA01A901208DF8E5
:1046F0000440FDF72FFA0D4A536A23F4FF6323F0B9
:104700000703536240F2FF73136201209460FDF7C8
:104710004DFA074B4FF08042C3F880211A6006B073
:1047200010BD00BFB35D0000A009140000200440CC
:1047300000E100E0014B9868704700BF0020044092
:10474000114A9368516D9269520704D4CA1A032A18
:1047500001D88B420DD1C21A022A98BFD81C0A4B2D
:10476000B0F1FF3F38BF013858655A6A42F0040281
:104770005A62064A137833B103490B6D43F00203C2
:104780000B6500231370704700200440C210002006
:104790008207054A00F00103516A48BF43F0040351
:1047A0000B435362704700BF00200440820700F0B3
:1047B000010309D5074A0121117007490A6D22F04A
:1047C000030243F004030A6503494A6A22EA030329
:1047D0004B627047C21000200020044010B5FCF767
:1047E000C6FC094A93690446590703F0010003F027
:1047F000070348BF40F002001362FFF7B9FE2046EE
:10480000BDE81040FCF7B9BC0020044008B50448DE
:10481000FCF7F4F80346FFF745FF23FA00F008BD64
:10482000A009140010B50446FBF756FE4FF47A7346
:104830005C43B0FBF3F30648B0FBF3F0B4FBF0F0DD
:10484000032804D9BDE81040800800F009B810BD65
:1048500040420F00000000000000000000000000C7
:10486000013800D0FCE7704708B500F013F9BDE847
:10487000084000F039B8000000B5164D164C89B05C
:1048800004AA00214FF47A70FEF742FF9DF8103021
:104890001BB112486621FBF783FE114B1022C3F8AF
:1048A00008212846FFF7D8FA23680C2B04BF002301
:1048B00023602268531C236001210523CDE90131C7
:1048C000009308490023D2B22846FFF765FCFFF7A2
:1048D00079FAD5E7D0430020CC430020C35D000027
:1048E00000A00040DF5D000030B58FB0FBF76CFC2E
:1048F00018B11F483721FBF753FE0020FFF738FAA5
:1049000018B11B483B21FBF74BFE1A48FFF7F8FA9A
:1049100018B117483F21FBF743FE164D6FF07F4358
:1049200000242846C5E90134FFF796FA12492846C3
:10493000FFF725FC0AAB08930223CDE9064360226A
:104940000923CDE902320D4B019314230093CDE9E5
:10495000044423460A4A0B490B48FEF76FFC9DF8B6
:1049600028301BB102485821FBF71AFE0FB030BDAA
:10497000C35D0000D0430020DC560000FC43002053
:1049800079480000EC5D00007C45002070B52A4BA2
:1049900086B001AA03F11006154618685968144636
:1049A00003C40833B3422246F7D11B882380234B2C
:1049B00001225A64224BD3F8FC20224B120E12D152
:1049C0004AF6E851C3F89011D3F8981141F0040168
:1049D000C3F89811C3F89021D3F8642142F400522F
:1049E000C3F8642101E0012AF6D0174A136A23F4C0
:1049F000441343F488131362A2F58052D2F8A43111
:104A000043F4F843C2F8A431FCF762FF2846FCF7F0
:104A10004BFB04211120FCF73DFA0C480121FBF768
:104A20005FFE0B480321FCF735FA012100220846FE
:104A3000FCF79EF906B070BDF85D000000000E4066
:104A40000081E00F00300E4000400E4030253E0057
:104A500005002400002208B511460120FCF788F962
:104A6000002211461046FCF783F907480A21FCF79B
:104A700011FA06480121FBF733FEBDE8084004485F
:104A80000121FBF72DBE00BF02001E0030253E00B5
:104A900000350A0010B500210520FCF7C9FF0422EB
:104AA000114600230520FCF7E7FF00210520FCF755
:104AB000BFFF0521084600230422FCF7DDFF002389
:104AC000012206210520FCF7D7FFBDE81040002396
:104AD000012207210520FCF7CFBF0000F0B5444BB1
:104AE0008FB001AA03F110051646186859681446DC
:104AF00003C40833AB422246F7D13E4B09AA03F167
:104B00001007154618685968144603C40833BB4299
:104B10002246F7D11B882380374B01225A64374B3A
:104B2000D3F8FC20364B120E12D14AF6E851C3F8E6
:104B30009011D3F8981141F00401C3F89811C3F80B
:104B40009021D3F8642142F40052C3F8642101E0BB
:104B5000012AF6D02B4A136A23F4441343F4881332
:104B60001362A2F580520024D2F8A43143F4F84332
:104B7000C2F8A43130468DF8004002268DF801407D
:104B8000FCF7E0FD68468DF80160FCF71FFC284645
:104B9000FCF78AFA012211460320FCF7E9F8052107
:104BA0001120FCF777F9224621463046FCF7E0F861
:104BB000FFF750FFFFF7EAFEFDF792F905A8FDF7B2
:104BC00075FA9DF814301BB10F482B21FBF7E8FC58
:104BD000FFF74AFE05A8FDF795F99DF814301BB1C3
:104BE00009483021FBF7DCFC00200FB0F0BD00BF0E
:104BF000185E0000285E000000000E400081E00FFB
:104C000000300E4000400E400A5E000053B94AB921
:104C1000002908BF00281CBF4FF0FF314FF0FF30C4
:104C200000F074B9ADF1080C6DE904CE00F006F89F
:104C3000DDF804E0DDE9022304B070472DE9F04718
:104C4000089D04468E46002B4DD18A42944669D970
:104C5000B2FA82F252B101FA02F3C2F1200120FA53
:104C600001F10CFA02FC41EA030E94404FEA1C48A1
:104C7000210CBEFBF8F61FFA8CF708FB16E341EA9D
:104C8000034306FB07F199420AD91CEB030306F123
:104C9000FF3080F01F81994240F21C81023E634444
:104CA0005B1AA4B2B3FBF8F008FB103344EA0344E8
:104CB00000FB07F7A7420AD91CEB040400F1FF33FD
:104CC00080F00A81A74240F207816444023840EA3A
:104CD0000640E41B00261DB1D4400023C5E9004373
:104CE0003146BDE8F0878B4209D9002D00F0EF80F6
:104CF0000026C5E9000130463146BDE8F087B3FA29
:104D000083F6002E4AD18B4202D3824200F2F98010
:104D1000841A61EB030301209E46002DE0D0C5E913
:104D2000004EDDE702B9FFDEB2FA82F2002A40F05F
:104D30009280A1EB0C014FEA1C471FFA8CFE012662
:104D4000200CB1FBF7F307FB131140EA01410EFB06
:104D500003F0884208D91CEB010103F1FF3802D2AD
:104D6000884200F2CB804346091AA4B2B1FBF7F0A7
:104D700007FB101144EA01440EFB00FEA64508D9CA
:104D80001CEB040400F1FF3102D2A64500F2BB8007
:104D90000846A4EB0E0440EA03409CE7C6F1200756
:104DA000B34022FA07FC4CEA030C20FA07F401FA9C
:104DB00006F31C43F9404FEA1C4900FA06F3B1FB25
:104DC000F9F8200C1FFA8CFE09FB181140EA01418A
:104DD00008FB0EF0884202FA06F20BD91CEB010127
:104DE00008F1FF3A80F08880884240F28580A8F17F
:104DF00002086144091AA4B2B1FBF9F009FB1011D1
:104E000044EA014100FB0EFE8E4508D91CEB01016E
:104E100000F1FF346CD28E456AD90238614440EA11
:104E20000840A0FB0294A1EB0E01A142C846A64691
:104E300056D353D05DB1B3EB080261EB0E0101FA1A
:104E400007F722FA06F3F1401F43C5E90071002677
:104E50003146BDE8F087C2F12003D8400CFA02FCCD
:104E600021FA03F3914001434FEA1C471FFA8CFEDD
:104E7000B3FBF7F007FB10360B0C43EA064300FBCD
:104E80000EF69E4204FA02F408D91CEB030300F16B
:104E9000FF382FD29E422DD9023863449B1B89B222
:104EA000B3FBF7F607FB163341EA034106FB0EF3AB
:104EB0008B4208D91CEB010106F1FF3816D28B4258
:104EC00014D9023E6144C91A46EA004638E72E4624
:104ED000284605E70646E3E61846F8E64B45A9D21C
:104EE000B9EB020864EB0C0E0138A3E74646EAE78B
:104EF000204694E74046D1E7D0467BE7023B614439
:104F000032E7304609E76444023842E7704700BFA1
:104F100008B5074B044613B10021AFF30080054BE1
:104F20001868836A03B19847204600F047F800BF2D
:104F3000000000003C5E000070B50D4D0D4C641B80
:104F4000A4100026A64209D10B4D0C4C00F038F8F5
:104F5000641BA4100026A64205D170BD55F8043B81
:104F600098470136EEE755F8043B98470136F2E7DB
:104F700024110020241100202411002028110020D9
:104F80000A44914200F1FF3300D1704710B511F887
:104F9000014B03F8014F9142F9D110BD0244034681
:104FA000934200D1704703F8011BF9E7034613F859
:104FB000012B002AFBD1181A01387047FEE700BF09
:104FC000F8B500BFF8BC08BC9E467047F8B500BFF6
:104FD000F8BC08BC9E4670470500000000000000B9
:104FE00040420F000501000000000000000000002A
:104FF0008000800001010000E0C810003C060200B3
:10500000433A2F53696C69636F6E4C6162732F531F
:10501000696D706C696369747953747564696F2F15
:1050200076352F646576656C6F7065722F73646B6F
:10503000732F6765636B6F5F73646B5F7375697400
:10504000652F76332E322F706C6174666F726D2F00
:10505000656D6C69622F7372632F656D5F636D752B
:105060002E6300633A5C73696C69636F6E6C616296
:10507000735C73696D706C6963697479737475645A
:10508000696F5C76355C646576656C6F7065725CC3
:1050900073646B735C6765636B6F5F73646B5F7383
:1050A000756974655C76332E325C706C6174666F02
:1050B000726D5C656D6C69625C696E635C656D5F89
:1050C000636F6D6D6F6E2E68000403020B050C0399
:1050D00002010A0302060A09070301050806020085
:1050E00004000001400004000100100000028000E4
:1050F000080002002000000040787D010000000050
:10510000005A620200010000C0CF6A0002000000E5
:10511000809FD50002010000002D31010202000035
:10512000433A2F53696C69636F6E4C6162732F53FE
:10513000696D706C696369747953747564696F2FF4
:1051400076352F646576656C6F7065722F73646B4E
:10515000732F6765636B6F5F73646B5F73756974DF
:10516000652F76332E322F706C6174666F726D2FDF
:10517000656D6C69622F7372632F656D5F656D7508
:105180002E6300633A5C73696C69636F6E6C616275
:10519000735C73696D706C69636974797374756439
:1051A000696F5C76355C646576656C6F7065725CA2
:1051B00073646B735C6765636B6F5F73646B5F7362
:1051C000756974655C76332E325C706C6174666FE1
:1051D000726D5C656D6C69625C696E635C656D5F68
:1051E0006770696F2E6800433A2F53696C69636F6B
:1051F0006E4C6162732F53696D706C696369747969
:1052000053747564696F2F76352F646576656C6F9E
:105210007065722F73646B732F6765636B6F5F7359
:10522000646B5F73756974652F76332E322F706CE3
:105230006174666F726D2F656D6C69622F73726336
:105240002F656D5F6770696F2E6300433A2F536956
:105250006C69636F6E4C6162732F53696D706C691A
:105260006369747953747564696F2F76352F64653B
:1052700076656C6F7065722F73646B732F676563EF
:105280006B6F5F73646B5F73756974652F76332E14
:10529000322F706C6174666F726D2F656D6C696210
:1052A0002F7372632F656D5F727463632E630043A7
:1052B0003A2F53696C69636F6E4C6162732F536947
:1052C0006D706C696369747953747564696F2F7656
:1052D000352F646576656C6F7065722F73646B73C0
:1052E0002F6765636B6F5F73646B5F73756974655C
:1052F0002F76332E322F706C6174666F726D2F654E
:105300006D6C69622F7372632F656D5F7573617267
:10531000742E6300433A2F53696C69636F6E4C615E
:1053200062732F53696D706C696369747953747516
:1053300064696F2F76352F646576656C6F70657262
:105340002F73646B732F6765636B6F5F73646B5F41
:1053500073756974652F76332E322F706C617466A5
:105360006F726D2F6D69637269756D5F6F732F63F7
:105370006F6D6D6F6E2F736F757263652F6C6962E1
:105380002F6C69625F6D656D2E63004D656D5F53B7
:105390006567416C6C6F63457874437269746963C7
:1053A000616C004D656D5F536567416C6C6F63495F
:1053B0006E7465726E616C0040000000433A2F53BA
:1053C000696C69636F6E4C6162732F53696D706CA9
:1053D000696369747953747564696F2F76352F64C6
:1053E0006576656C6F7065722F73646B732F67657C
:1053F000636B6F5F73646B5F73756974652F76336E
:105400002E322F706C6174666F726D2F6D696372CE
:1054100069756D5F6F732F6B65726E656C2F736F3F
:10542000757263652F6F735F636F72652E630054CF
:1054300061736B2051005461736B2053656D0020C4
:10544000004B65726E656C2773204953522053746C
:1054500061636B004B65726E656C2773204D7367DB
:1054600020506F6F6C004B65726E656C2773205314
:10547000746174205461736B20537461636B004FCB
:10548000535374617274004F53496E697400433A08
:105490002F53696C69636F6E4C6162732F53696D32
:1054A000706C696369747953747564696F2F7635AC
:1054B0002F646576656C6F7065722F73646B732FE4
:1054C0006765636B6F5F73646B5F73756974652F7A
:1054D00076332E322F706C6174666F726D2F6D692A
:1054E000637269756D5F6F732F6B65726E656C2F7C
:1054F000736F757263652F6F735F6D73672E6300D3
:105500004F535F4D7367506F6F6C496E6974004302
:105510003A2F53696C69636F6E4C6162732F5369E4
:105520006D706C696369747953747564696F2F76F3
:10553000352F646576656C6F7065722F73646B735D
:105540002F6765636B6F5F73646B5F7375697465F9
:105550002F76332E322F706C6174666F726D2F6DE3
:1055600069637269756D5F6F732F6B65726E656CC1
:105570002F736F757263652F6F735F737461742E11
:1055800063004B65726E656C2773205374617420E1
:105590005461736B004F5353746174526573657437
:1055A00000433A2F53696C69636F6E4C6162732FCD
:1055B00053696D706C696369747953747564696F4C
:1055C0002F76352F646576656C6F7065722F736406
:1055D0006B732F6765636B6F5F73646B5F73756964
:1055E00074652F76332E322F706C6174666F726D16
:1055F0002F6D69637269756D5F6F732F6B65726E66
:10560000656C2F736F757263652F6F735F74617351
:105610006B2E63003F5461736B004F535F54617393
:105620006B496E6974004F535461736B44656C0031
:105630004F535461736B437265617465004F5354EB
:1056400061736B53746B43686B00433A2F53696CFF
:1056500069636F6E4C6162732F53696D706C69631F
:1056600069747953747564696F2F76352F64657624
:10567000656C6F7065722F73646B732F6765636BF6
:105680006F5F73646B5F73756974652F76332E3249
:105690002F706C6174666F726D2F6D6963726975BE
:1056A0006D5F6F732F6B65726E656C2F736F7572A4
:1056B00063652F6F735F74696D652E63004F53547C
:1056C000696D65446C79004F5354696D6554696325
:1056D0006B52617465487A4765740000EC560000AF
:1056E00020030164060802000100000000040A0A09
:1056F0000403060608020000000000000E040E1F4E
:10570000081F0C1F0E0E00001000010E0E0E0F0ED3
:10571000071F1F0E110E1C110111110E0F0E0F1E6F
:105720001F11111111111F0E000E040002000100C3
:1057300010000C0001040801060000000000000039
:10574000020000000000000C040600000000000041
:1057500000040A0A1E1309040404040400000000E3
:10576000110611080C0102101111060608000211A1
:10577000101111110901011111040809011B111166
:1057800011111101041111111111100200080A0068
:10579000040001001000121E0100000104000000BE
:1057A00000000000020000000000000204080200E7
:1057B0000000000000040A1F010805020208150489
:1057C00000000010190410040A0F01081111060648
:1057D000041F041010111101110101011104080529
:1057E0000115131111111101041111110A110802EF
:1057F00001081100080E0D0E160E02110D060C09FF
:10580000040B0D0E0F160D0E0711111111111F02B1
:1058100004081500000000000004000A0E04020045
:1058200002080E1F001F00081504080809100F04C5
:105830000E1E00000200080816110F01110F0F1DA7
:105840001F040803011515110F110F0E0411111576
:10585000040A0402020800000010130119110711C4
:105860001304080504151311111913010211111164
:105870000A11080104100800000000000000001FC9
:105880001002150002081504060000041304041099
:105890001F10110211100606041F0404151F110128
:1058A000110101111104080501111911011505104B
:1058B000041111150A04020204080000001E11015F
:1058C000111F021E11040803041511110F1E010EF1
:1058D00002111115041E040204080000000000005B
:1058E0000000000A0F190900040404040400060261
:1058F0001104021108111102110806040800020027
:1059000015111111090101111104090901111111D8
:105910000109091004110A15110401020808000008
:1059200000111111110102101104090504111111C6
:105930000110011012190A150A10020204080000D1
:10594000000000000004000A04181600080200000D
:10595000020006010E0E1F0E080E0E020E060002B9
:10596000100001040E110F0E071F010E110E06117B
:105970001F11110E0116110F040E040A11041F0E3F
:10598000100E001F001E0F0E1E0E020E110E060935
:105990000E11110E0110010F0C16040A110E1F0C2E
:1059A00004060000000000000000000000000000ED
:1059B00000000000000000000000000000000000E7
:1059C00000000000000000000000000000000000D7
:1059D00000000000000000000000000000000000C7
:1059E00000000000000000000000000000000000B7
:1059F00000000000000000000000000000000000A7
:105A00000000000000000000000000001C5A000020
:105A100020030164080802000100000000186C6CFB
:105A200010CE3808600C0000000000007C307C7C48
:105A3000C6FE7CFE7C7C000070001C7C7C7C7E7C36
:105A40007EFEFE7CC63C78C606C6C67C7E7C7E7C1E
:105A50007EC6C6C6C6C6FE7C007C10000C000600D2
:105A600060003800060000060C0000000000000086
:105A7000000000000000003018188C00000000003A
:105A800000186CFEFC6A2C1830186C18000000C05E
:105A9000C638C6C6C606C6C0C6C61818387C38C6BC
:105AA000C6C6C6C6C60606C6C618306606EECEC64A
:105AB000C6C6C6C618C6C6C6C6C6C00C066038006E
:105AC0000C00060060000C00061830060C000000F8
:105AD0000000000018000000000000181830D60078
